{"contracts/AssetManager.sol":{"AssetManager":{"abi":[{"inputs":[],"stateMutability":"nonpayable","type":"constructor"},{"anonymous":false,"inputs":[{"indexed":true,"internalType":"uint256","name":"id","type":"uint256"}],"name":"AssetDeleted","type":"event"},{"anonymous":false,"inputs":[{"indexed":true,"internalType":"uint256","name":"id","type":"uint256"},{"indexed":false,"internalType":"string","name":"category","type":"string"},{"indexed":false,"internalType":"string","name":"building","type":"string"},{"indexed":false,"internalType":"uint256","name":"floor","type":"uint256"},{"indexed":false,"internalType":"uint256","name":"room","type":"uint256"}],"name":"AssetRegistered","type":"event"},{"anonymous":false,"inputs":[{"indexed":false,"internalType":"uint256","name":"assetId","type":"uint256"},{"indexed":false,"internalType":"string","name":"reason","type":"string"},{"indexed":false,"internalType":"address","name":"punishedUser","type":"address"}],"name":"FaultCancelled","type":"event"},{"anonymous":false,"inputs":[{"indexed":true,"internalType":"uint256","name":"id","type":"uint256"},{"indexed":false,"internalType":"string","name":"status","type":"string"},{"indexed":false,"internalType":"string","name":"faultType","type":"string"}],"name":"FaultReported","type":"event"},{"anonymous":false,"inputs":[{"indexed":true,"internalType":"uint256","name":"id","type":"uint256"},{"indexed":false,"internalType":"address","name":"technician","type":"address"},{"indexed":false,"internalType":"uint256","name":"timestamp","type":"uint256"}],"name":"MaintenanceCompleted","type":"event"},{"anonymous":false,"inputs":[{"indexed":true,"internalType":"uint256","name":"id","type":"uint256"},{"indexed":false,"internalType":"address","name":"technician","type":"address"}],"name":"MaintenanceStarted","type":"event"},{"anonymous":false,"inputs":[{"indexed":true,"internalType":"uint256","name":"assetId","type":"uint256"},{"indexed":false,"internalType":"string","name":"dataHash","type":"string"}],"name":"PredictiveHashStored","type":"event"},{"anonymous":false,"inputs":[{"indexed":true,"internalType":"address","name":"technician","type":"address"}],"name":"TechnicianApproved","type":"event"},{"anonymous":false,"inputs":[{"indexed":true,"internalType":"address","name":"user","type":"address"}],"name":"TechnicianDenied","type":"event"},{"anonymous":false,"inputs":[{"indexed":true,"internalType":"address","name":"user","type":"address"}],"name":"TechnicianRequested","type":"event"},{"anonymous":false,"inputs":[{"indexed":false,"internalType":"address","name":"user","type":"address"}],"name":"UserApproved","type":"event"},{"anonymous":false,"inputs":[{"indexed":false,"internalType":"address","name":"user","type":"address"}],"name":"UserDenied","type":"event"},{"anonymous":false,"inputs":[{"indexed":false,"internalType":"address","name":"user","type":"address"}],"name":"UserRegistrationRequested","type":"event"},{"inputs":[{"internalType":"address","name":"user","type":"address"}],"name":"approveTechnician","outputs":[],"stateMutability":"nonpayable","type":"function"},{"inputs":[{"internalType":"address","name":"user","type":"address"}],"name":"approveUser","outputs":[],"stateMutability":"nonpayable","type":"function"},{"inputs":[{"internalType":"uint256","name":"","type":"uint256"}],"name":"assetMetadata","outputs":[{"internalType":"string","name":"category","type":"string"},{"internalType":"string","name":"building","type":"string"},{"internalType":"uint256","name":"floor","type":"uint256"},{"internalType":"uint256","name":"room","type":"uint256"},{"internalType":"string","name":"brand","type":"string"},{"internalType":"string","name":"model","type":"string"},{"internalType":"string","name":"ipfsHash","type":"string"},{"internalType":"string","name":"globalId","type":"string"},{"internalType":"string","name":"positionId","type":"string"},{"internalType":"string","name":"physicalId","type":"string"}],"stateMutability":"view","type":"function"},{"inputs":[{"internalType":"uint256","name":"","type":"uint256"}],"name":"assets","outputs":[{"internalType":"uint256","name":"id","type":"uint256"},{"internalType":"string","name":"status","type":"string"},{"internalType":"address","name":"technician","type":"address"},{"internalType":"uint256","name":"lastMaintenanceTimestamp","type":"uint256"},{"internalType":"string","name":"faultType","type":"string"},{"internalType":"bool","name":"isDeleted","type":"bool"}],"stateMutability":"view","type":"function"},{"inputs":[{"internalType":"uint256","name":"_id","type":"uint256"},{"internalType":"string","name":"reason","type":"string"}],"name":"cancelFault","outputs":[],"stateMutability":"nonpayable","type":"function"},{"inputs":[{"internalType":"uint256","name":"_id","type":"uint256"},{"internalType":"string","name":"endComment","type":"string"}],"name":"completeMaintenance","outputs":[],"stateMutability":"nonpayable","type":"function"},{"inputs":[{"internalType":"uint256","name":"","type":"uint256"},{"internalType":"uint256","name":"","type":"uint256"}],"name":"completedMaintenances","outputs":[{"internalType":"bool","name":"readyForPayment","type":"bool"},{"internalType":"address","name":"technician","type":"address"},{"internalType":"uint256","name":"suggestedAmount","type":"uint256"},{"internalType":"bool","name":"isPaid","type":"bool"},{"internalType":"uint256","name":"paymentTimestamp","type":"uint256"},{"internalType":"uint256","name":"paidAmountWei","type":"uint256"},{"internalType":"address","name":"userReimbursed","type":"address"},{"internalType":"uint256","name":"userReimbursedAmountWei","type":"uint256"}],"stateMutability":"view","type":"function"},{"inputs":[{"internalType":"uint256","name":"_id","type":"uint256"},{"internalType":"uint256","name":"technicianWei","type":"uint256"},{"internalType":"address","name":"faultReporter","type":"address"},{"internalType":"uint256","name":"faultCostWei","type":"uint256"}],"name":"confirmPayment","outputs":[],"stateMutability":"nonpayable","type":"function"},{"inputs":[{"internalType":"address","name":"","type":"address"}],"name":"counterMiss","outputs":[{"internalType":"uint256","name":"","type":"uint256"}],"stateMutability":"view","type":"function"},{"inputs":[{"internalType":"uint256","name":"_id","type":"uint256"}],"name":"deleteAsset","outputs":[],"stateMutability":"nonpayable","type":"function"},{"inputs":[{"internalType":"address","name":"user","type":"address"}],"name":"denyTechnician","outputs":[],"stateMutability":"nonpayable","type":"function"},{"inputs":[{"internalType":"address","name":"user","type":"address"}],"name":"denyUser","outputs":[],"stateMutability":"nonpayable","type":"function"},{"inputs":[{"internalType":"uint256","name":"_id","type":"uint256"}],"name":"getAllCompletedMaintenance","outputs":[{"components":[{"internalType":"bool","name":"readyForPayment","type":"bool"},{"internalType":"address","name":"technician","type":"address"},{"internalType":"uint256","name":"suggestedAmount","type":"uint256"},{"internalType":"bool","name":"isPaid","type":"bool"},{"internalType":"uint256","name":"paymentTimestamp","type":"uint256"},{"internalType":"uint256","name":"paidAmountWei","type":"uint256"},{"internalType":"address","name":"userReimbursed","type":"address"},{"internalType":"uint256","name":"userReimbursedAmountWei","type":"uint256"}],"internalType":"struct AssetManager.CompletedMaintenance[]","name":"","type":"tuple[]"}],"stateMutability":"view","type":"function"},{"inputs":[{"internalType":"uint256","name":"_id","type":"uint256"}],"name":"getAssetStatus","outputs":[{"internalType":"string","name":"","type":"string"}],"stateMutability":"view","type":"function"},{"inputs":[{"internalType":"uint256","name":"_id","type":"uint256"},{"internalType":"uint256","name":"index","type":"uint256"}],"name":"getCompletedMaintenance","outputs":[{"components":[{"internalType":"bool","name":"readyForPayment","type":"bool"},{"internalType":"address","name":"technician","type":"address"},{"internalType":"uint256","name":"suggestedAmount","type":"uint256"},{"internalType":"bool","name":"isPaid","type":"bool"},{"internalType":"uint256","name":"paymentTimestamp","type":"uint256"},{"internalType":"uint256","name":"paidAmountWei","type":"uint256"},{"internalType":"address","name":"userReimbursed","type":"address"},{"internalType":"uint256","name":"userReimbursedAmountWei","type":"uint256"}],"internalType":"struct AssetManager.CompletedMaintenance","name":"","type":"tuple"}],"stateMutability":"view","type":"function"},{"inputs":[{"internalType":"uint256","name":"_id","type":"uint256"}],"name":"getCompletedMaintenanceCount","outputs":[{"internalType":"uint256","name":"","type":"uint256"}],"stateMutability":"view","type":"function"},{"inputs":[{"internalType":"uint256","name":"_id","type":"uint256"}],"name":"getMaintenanceHistory","outputs":[{"components":[{"internalType":"uint256","name":"startTime","type":"uint256"},{"internalType":"uint256","name":"endTime","type":"uint256"},{"internalType":"address","name":"technician","type":"address"},{"internalType":"string","name":"oldPhysicalId","type":"string"},{"internalType":"string","name":"newPhysicalId","type":"string"},{"internalType":"string","name":"technicianComment","type":"string"}],"internalType":"struct AssetManager.MaintenanceRecord[]","name":"","type":"tuple[]"}],"stateMutability":"view","type":"function"},{"inputs":[],"name":"getPendingTechnicians","outputs":[{"internalType":"address[]","name":"","type":"address[]"}],"stateMutability":"view","type":"function"},{"inputs":[],"name":"getPendingUsers","outputs":[{"internalType":"address[]","name":"","type":"address[]"}],"stateMutability":"view","type":"function"},{"inputs":[{"internalType":"address","name":"user","type":"address"}],"name":"getRole","outputs":[{"internalType":"enum AssetManager.Role","name":"","type":"uint8"}],"stateMutability":"view","type":"function"},{"inputs":[{"internalType":"address","name":"tech","type":"address"}],"name":"getTechnicianCompletedAssets","outputs":[{"internalType":"uint256[]","name":"","type":"uint256[]"}],"stateMutability":"view","type":"function"},{"inputs":[{"internalType":"address","name":"user","type":"address"}],"name":"hasRequestedTechnician","outputs":[{"internalType":"bool","name":"","type":"bool"}],"stateMutability":"view","type":"function"},{"inputs":[{"internalType":"uint256","name":"","type":"uint256"},{"internalType":"uint256","name":"","type":"uint256"}],"name":"maintenanceHistory","outputs":[{"internalType":"uint256","name":"startTime","type":"uint256"},{"internalType":"uint256","name":"endTime","type":"uint256"},{"internalType":"address","name":"technician","type":"address"},{"internalType":"string","name":"oldPhysicalId","type":"string"},{"internalType":"string","name":"newPhysicalId","type":"string"},{"internalType":"string","name":"technicianComment","type":"string"}],"stateMutability":"view","type":"function"},{"inputs":[],"name":"nextAssetId","outputs":[{"internalType":"uint256","name":"","type":"uint256"}],"stateMutability":"view","type":"function"},{"inputs":[],"name":"owner","outputs":[{"internalType":"address","name":"","type":"address"}],"stateMutability":"view","type":"function"},{"inputs":[],"name":"paymentManager","outputs":[{"internalType":"contract PaymentManager","name":"","type":"address"}],"stateMutability":"view","type":"function"},{"inputs":[{"internalType":"uint256","name":"","type":"uint256"}],"name":"pendingTechnicians","outputs":[{"internalType":"address","name":"","type":"address"}],"stateMutability":"view","type":"function"},{"inputs":[{"internalType":"address","name":"","type":"address"}],"name":"pendingUsers","outputs":[{"internalType":"bool","name":"","type":"bool"}],"stateMutability":"view","type":"function"},{"inputs":[{"internalType":"uint256","name":"","type":"uint256"}],"name":"pendingUsersList","outputs":[{"internalType":"address","name":"","type":"address"}],"stateMutability":"view","type":"function"},{"inputs":[{"internalType":"uint256","name":"","type":"uint256"},{"internalType":"uint256","name":"","type":"uint256"}],"name":"predictiveHashes","outputs":[{"internalType":"string","name":"","type":"string"}],"stateMutability":"view","type":"function"},{"inputs":[{"internalType":"string","name":"category","type":"string"},{"internalType":"string","name":"building","type":"string"},{"internalType":"uint256","name":"floor","type":"uint256"},{"internalType":"uint256","name":"room","type":"uint256"},{"internalType":"string","name":"brand","type":"string"},{"internalType":"string","name":"model","type":"string"},{"internalType":"string","name":"ipfsHash","type":"string"},{"internalType":"string","name":"globalId","type":"string"},{"internalType":"string","name":"positionId","type":"string"},{"internalType":"string","name":"physicalId","type":"string"}],"name":"registerAsset","outputs":[],"stateMutability":"nonpayable","type":"function"},{"inputs":[{"internalType":"uint256","name":"_id","type":"uint256"},{"internalType":"string","name":"newPhysicalId","type":"string"}],"name":"replacePhysicalItem","outputs":[],"stateMutability":"nonpayable","type":"function"},{"inputs":[{"internalType":"uint256","name":"_id","type":"uint256"},{"internalType":"string","name":"_faultType","type":"string"}],"name":"reportFault","outputs":[],"stateMutability":"nonpayable","type":"function"},{"inputs":[],"name":"requestTechnicianRole","outputs":[],"stateMutability":"nonpayable","type":"function"},{"inputs":[],"name":"requestUserRegistration","outputs":[],"stateMutability":"nonpayable","type":"function"},{"inputs":[{"internalType":"address","name":"_paymentMgr","type":"address"}],"name":"setPaymentManager","outputs":[],"stateMutability":"nonpayable","type":"function"},{"inputs":[{"internalType":"uint256","name":"_id","type":"uint256"},{"internalType":"string","name":"startComment","type":"string"}],"name":"startMaintenance","outputs":[],"stateMutability":"nonpayable","type":"function"},{"inputs":[{"internalType":"uint256","name":"_assetId","type":"uint256"},{"internalType":"string","name":"_dataHash","type":"string"}],"name":"storePredictiveHash","outputs":[],"stateMutability":"nonpayable","type":"function"},{"inputs":[{"internalType":"address","name":"","type":"address"}],"name":"technicianRequests","outputs":[{"internalType":"bool","name":"","type":"bool"}],"stateMutability":"view","type":"function"},{"inputs":[{"internalType":"address","name":"","type":"address"}],"name":"userRoles","outputs":[{"internalType":"enum AssetManager.Role","name":"","type":"uint8"}],"stateMutability":"view","type":"function"}],"evm":{"bytecode":{"linkReferences":{},"object":"60806040523460b557600980546001600160a01b03191633908117909155600090815260056020526040808220805460ff199081166003179091557f81bfd3acdc1c8e8cfc23f2f592eafacf599bde7b219ec93c9c42bbdfabd43c4880548216600117905573db8a806ad71485bf331700e9870624bdcf10ef829092527f1a89786d5f01996b37c978ba3b77f3f3af5fe4b2f01302f3bb29b11800c0136280549092166002179091555161316b90816100bb8239f35b600080fdfe608080604052600436101561001357600080fd5b600090813560e01c908163080b2dc1146128995750806309b7864e146127d95780630a45dbe31461263d5780631f082314146126135780632062ea3d1461259e5780632e22a6d6146124a05780632f1d5c321461247557806331a4d37814611edc57806335326ebf146121f15780634427673314611a4f57806348e071d4146120c8578063504e35d314611f1b5780635286852f14611edc57806365b79c8514611d425780636c4e976414611ce45780636cf154ee14611a9257806374d5e10014611a4f578063765207f81461180c57806376badc0614611539578063774d6f8d146114a45780637e702dc8146114475780637eb79b531461136b578063823a65f5146113125780638da5cb5b146112e95780638ed91318146112cb578063912c55ac146111a0578063944847471461105f57806395459b5814611020578063aee1fe4914610ff9578063b74771d414610f29578063c2c3351914610c7e578063cf2e4a1414610c45578063cf35bdd014610b8d578063d624fdb61461099c578063e70330f6146108fa578063e738ea06146108b6578063e8c9bb8d146104c3578063fae77675146103e6578063fd279420146102695763fe09b5ec146101d957600080fd5b3461026657806003193601126102665760405180916020600b54928381520191600b82527f0175b7a638427703f0dbe7bb9bbf987a2551717b34e79f33b5b1008d1fa01db9915b818110610247576102438561023781870382612b7d565b60405191829182612913565b0390f35b82546001600160a01b0316845260209093019260019283019201610220565b80fd5b5034610266578060031936011261026657338152600560205260ff60408220541660048110156103d25760010361037c57338152600660205260ff60408220541661034357338152600660205260408120805460ff19166001179055600754600160401b81101561032f576102e981600161030793016007556007612a32565b81546001600160a01b0360039290921b91821b19163390911b179055565b337f7d22e892d3f75caf71252ebb2597854eed989b2aa917e7422adad03a74643b068280a280f35b634e487b7160e01b82526041600452602482fd5b60405162461bcd60e51b8152602060048201526011602482015270105b1c9958591e481c995c5d595cdd1959607a1b6044820152606490fd5b60405162461bcd60e51b815260206004820152602860248201527f4f6e6c792055736572732063616e207265717565737420746f20626520546563604482015267686e696369616e7360c01b6064820152608490fd5b634e487b7160e01b82526021600452602482fd5b5034610266576103f5366129d0565b90825260046020526040822080548210156104bf576104149250612c83565b50805461024360056104b16001850154946104a360018060a01b03600283015416604051906104518261044a8160038801612aad565b0383612b7d565b61048060405194610470866104698160048501612aad565b0387612b7d565b6104696040518099819301612aad565b60405198899889526020890152604088015260c0606088015260c0870190612b9e565b908582036080870152612b9e565b9083820360a0850152612b9e565b8280fd5b5034610266576104d236612c35565b338352600560205260ff60408420541660048110156108a25760026104f79114612e88565b6105046008548310612ef0565b818352600260205261052060ff60056040862001541615612f33565b81835260026020526105416105486001604086200160405192838092612aad565b0382612b7d565b60208151910120906040916011602084516105638682612b7d565b8281520170556e646572204d61696e74656e616e636560781b8152200361084a5782845260026020526001828520016105a561059f8254612a73565b8261300b565b60166a13dc195c985d1a5bdb985b60aa1b019055828452600260205242600383862001558284526002602052836004838220016105e561059f8254612a73565b55828452600460205281842080549081156108065760001982019182116107f2579061061091612c83565b50906001820180546107ae57429055805161079b575b5050818352600160205280832081519061063f82612b30565b600182526020820133815283830186815260608401878152608085019088825260a086019289845260c08701948a865260e08801968b8852805490600160401b821015610787579061069691600182018155612c67565b9890986107735792600696949261072a926106e57f6d532036a4ad1a783eecd11839a21d9a653bcffa3a88340df2a9fe1765716d379c9b9a98965115158b9060ff801983541691151516179055565b518954610100600160a81b0360089290921b91909116610100600160a81b03199091161789555160018901555160028801805460ff191691151560ff16919091179055565b516003860155516004850155516005840180546001600160a01b0319166001600160a01b0392909216919091179055519101555133815242602082015280604081015b0390a280f35b634e487b7160e01b8c5260048c905260248cfd5b634e487b7160e01b8d52604160045260248dfd5b60056107a79201613035565b3880610626565b835162461bcd60e51b815260206004820152601d60248201527f4d61696e74656e616e636520616c726561647920636f6d706c657465640000006044820152606490fd5b634e487b7160e01b86526011600452602486fd5b835162461bcd60e51b815260206004820152601b60248201527f4e6f206d61696e74656e616e6365207265636f726420666f756e6400000000006044820152606490fd5b815162461bcd60e51b815260206004820152602b60248201527f4173736574206d75737420626520756e646572206d61696e74656e616e63652060448201526a746f20636f6d706c65746560a81b6064820152608490fd5b634e487b7160e01b84526021600452602484fd5b50346102665760203660031901126102665760043590600b548210156102665760206108e183612a17565b905460405160039290921b1c6001600160a01b03168152f35b503461026657610909366129d0565b919081526001602052604081209081548310156102665761010061092d8484612c67565b5080549060018101549060ff6002820154166003820154600483015491600660018060a01b03600586015416940154946040519660ff81161515885260018060a01b039060081c166020880152604087015215156060860152608085015260a084015260c083015260e0820152f35b5034610266576020366003190112610266576109b66129b5565b338252600560205260ff6040832054166004811015610b795760036109db9114612d4b565b6001600160a01b0316808252600a6020526040822054909190610a009060ff16612e4e565b818152600560205260408120600160ff19825416179055818152600a6020526040812060ff198154169055805b600b5480821015610b705783610a4283612a17565b905460039190911b1c6001600160a01b031614610a625750600101610a2d565b9092906000198101908111610b5c578293610a9a610a82610abe93612a17565b905460039190911b1c6001600160a01b031691612a17565b81546001600160a01b0393841660039290921b91821b9390911b1916919091179055565b610ac6612e2e565b7ffbb0a472171a6eb950c8a87421215268a1b2df816da0a48e920e72ade27cfcf76020604051838152a181546001600160a01b031690813b15610b5857829160448392604051948593849263142f3fc560e31b84526004840152662386f26fc1000060248401525af18015610b4d57610b3c5750f35b81610b4691612b7d565b6102665780f35b6040513d84823e3d90fd5b5050fd5b634e487b7160e01b83526011600452602483fd5b50508091610ac6565b634e487b7160e01b83526021600452602483fd5b5034610266576020366003190112610266576040906004358152600260205220805460405191610bcb83610bc48160018501612aad565b0384612b7d565b610c3960018060a01b0360028301541660038301549260ff600560405192610c0184610bfa8160048501612aad565b0385612b7d565b01541693610c21604051978897885260c0602089015260c0880190612b9e565b92604087015260608601528482036080860152612b9e565b90151560a08301520390f35b5034610266576020366003190112610266576020906040906001600160a01b03610c6d6129b5565b168152600d83522054604051908152f35b503461026657610c8d36612c35565b338352600560205260ff60408420541660048110156108a257600103610ece57338352600d602052600360408420541015610e7d57610ccf6008548310612ef0565b8183526002602052610ceb60ff60056040862001541615612f33565b8183526002602052610541610d0c6001604086200160405192838092612aad565b6020815191012090604091600b60208451610d278682612b7d565b828152016a13dc195c985d1a5bdb985b60aa1b81522003610e21577f8197465751fe71aa67b1e8f6325cd9377d42fe6a81db402a1166be1074653b319161076d6006928587526002602052600183882001610d828154612a73565b601f8111610e02575b50600c65213937b5b2b760d11b0190558587526002602052610db2816004858a2001613035565b858752600e60205282872060018060a01b0333166001600160601b0360a01b825416179055825193838594855284015265213937b5b2b760d11b6060840152608060208401526080830190612b9e565b81895260208920610e1b91601f0160051c810190612ff4565b38610d8b565b815162461bcd60e51b815260206004820152602f60248201527f4173736574206d757374206265206f7065726174696f6e616c20746f2072657060448201526e1bdc9d0818481b995dc819985d5b1d608a1b6064820152608490fd5b60405162461bcd60e51b8152602060048201526024808201527f596f75206172652062616e6e65642066726f6d207265706f7274696e67206661604482015263756c747360e01b6064820152608490fd5b60405162461bcd60e51b815260206004820152602d60248201527f4f6e6c7920726567697374657265642055736572732063616e20706572666f7260448201526c36903a3434b99030b1ba34b7b760991b6064820152608490fd5b5034610266578060031936011261026657338152600560205260ff60408220541660048110156103d257610fbf57338152600a60205260408120805460ff19166001179055600b54600160401b81101561032f576102e9816001610f929301600b55600b612a32565b7f39539b618f1922c04929430780d204c380802c4e22361e21a72bb3a62b667f4b6020604051338152a180f35b60405162461bcd60e51b8152602060048201526012602482015271105b1c9958591e481c9959da5cdd195c995960721b6044820152606490fd5b5034610266578060031936011261026657546040516001600160a01b039091168152602090f35b50346102665760203660031901126102665760209060ff906040906001600160a01b0361104b6129b5565b168152600a84522054166040519015158152f35b5034610266576020366003190112610266576110796129b5565b338252600560205260ff6040832054166004811015610b7957600361109e9114612d4b565b6001600160a01b0316808252600660205260408220546110c09060ff16612da2565b808252600560205260408220600260ff1982541617905580825260066020526040822060ff198154169055815b600754808210156111995782611102836129e6565b905460039190911b1c6001600160a01b03161461112257506001016110ed565b60001981019081116111855790610a9a61113e611156936129e6565b905460039190911b1c6001600160a01b0316916129e6565b61115e612de3565b7f3e2b9852773678e9bab26fffb152f2c6d1d685a372c6dfad53141ce3f10927a18280a280f35b634e487b7160e01b84526011600452602484fd5b505061115e565b5034610266576111af36612c35565b90338352600560205260ff60408420541660048110156108a25760026111d59114612e88565b80835260026020526111f160ff60056040862001541615612f33565b80835260036020526112098260096040862001613035565b82526004602052604082208054908115611286576000198201918211611185579061123391612c83565b5090600182015461124d57600461124a9201613035565b80f35b60405162461bcd60e51b815260206004820152601160248201527013585a5b9d195b985b98d948195b991959607a1b6044820152606490fd5b60405162461bcd60e51b815260206004820152601c60248201527f4e6f20616374697665206d61696e74656e616e6365207265636f7264000000006044820152606490fd5b50346102665780600319360112610266576020600854604051908152f35b50346102665780600319360112610266576009546040516001600160a01b039091168152602090f35b50346102665760203660031901126102665761054161135760016040610243946004356113426008548210612ef0565b81526002602052200160405192838092612aad565b604051918291602083526020830190612b9e565b503461026657602036600319011261026657600435338252600560205260ff6040832054166004811015610b795760036113a59114612d4b565b6113b26008548210612ef0565b808252600260205260ff60056040842001541661140a57808252600260205260408220600501805460ff191660011790557fa688c45cd59c2527ae60c477de2510cf8cec40aa54def51bae6c2725468871a28280a280f35b60405162461bcd60e51b8152602060048201526015602482015274105cdcd95d08185b1c9958591e4819195b195d1959605a1b6044820152606490fd5b5034610266576020366003190112610266576114616129b5565b338252600560205260ff6040832054166004811015610b795760036114869114612d4b565b81546001600160a01b0319166001600160a01b039190911617815580f35b5034610266576114b336612c35565b818352600c60205260408320805490600160401b82101561152557906114de91600182018155612a32565b61151157816113577fdd10225e4e3f2ed83bf940a46a7c82a3bff127022ceb3e13f01892018378df0c9361076d93613035565b634e487b7160e01b84526004849052602484fd5b634e487b7160e01b85526041600452602485fd5b503461026657610140366003190112610266576004356001600160401b0381116118085761156b903690600401612bdf565b6024356001600160401b0381116104bf5761158a903690600401612bdf565b606435916044356084356001600160401b038111611804576115b0903690600401612bdf565b9360a4356001600160401b038111611800576115d0903690600401612bdf565b9460c4356001600160401b0381116117fc576115f0903690600401612bdf565b9060e4356001600160401b0381116117f857611610903690600401612bdf565b610104356001600160401b0381116117f457611630903690600401612bdf565b90610124356001600160401b0381116117f057611651903690600401612bdf565b93338b52600560205260ff60408c20541660048110156117dc5760031461167790612d4b565b600854996116848b612d26565b6008558a8c5260026020528b604081208c81556005810160ff198154169055600281016001600160601b0360a01b81541690558160038201556001810180546116cc90612a73565b6116d6908261300b565b60166a13dc195c985d1a5bdb985b60aa1b01905560040180546116f890612a73565b611702908261300b565b558a8c52600360205260408c209461171a8a87613035565b6117278b60018801613035565b886002870155876003870155600486019061174191613035565b61174e9060058601613035565b61175b9060068501613035565b6117689060078401613035565b6117759060088301613035565b6009019061178291613035565b604051938493608085526080850161179991612b9e565b84810360208601526117aa91612b9e565b9160408401526060830152037fe0cd58617305237ed8ec3eced504e683e4100c101533304d423ab96f94edd10791a280f35b634e487b7160e01b8c52602160045260248cfd5b8a80fd5b8980fd5b8880fd5b8780fd5b8680fd5b8580fd5b5080fd5b5034610266576040366003190112610266576024356004356001600160401b0382116104bf57366023830112156104bf5781600401356001600160401b038111611a4b573660248285010111611a4b57338452600560205260ff6040852054166004811015611a375760036118819114612d4b565b61188e6008548310612ef0565b81845260026020526118aa60ff60056040872001541615612f33565b81845260026020526118ea6105416118ce6001604088200160405192838092612aad565b602081519101206118dd612f72565b6020815191012014612f96565b818452600e60205260408420546001600160a01b031680156119e657808552600d60205260408520805490600182018092116119d25791608093917fca87316d6cd5f7f3bea802699de01643403756c26311d916d02c04a8302445ff9695935582875260026020526001604088200161196661059f8254612a73565b60166a13dc195c985d1a5bdb985b60aa1b0190558287526002602052866004604082200161199761059f8254612a73565b55816024604051968795865260606020870152826060870152018585013782820184018790526040830152601f01601f19168101030190a180f35b634e487b7160e01b87526011600452602487fd5b60405162461bcd60e51b815260206004820152602360248201527f4e6f207265636f72646564207265706f7274657220666f7220746869732066616044820152621d5b1d60ea1b6064820152608490fd5b634e487b7160e01b85526021600452602485fd5b8380fd5b5034610266576020366003190112610266576102439060ff906040906001600160a01b03611a7b6129b5565b168152600560205220541660405191829182612a4a565b503461026657611aa136612c35565b338352600560205260ff60408420541660048110156108a25790611aca600261044a9314612e88565b611ad76008548410612ef0565b8284526002602052611af360ff60056040872001541615612f33565b8284526002602052611b176105416118ce6001604088200160405192838092612aad565b8284526003602052611b356009604086200160405193848092612aad565b8284526004602052604084209060405191611b4f83612b62565b4283526020830193868552604084013381526060850191825260209560405193611b798886612b7d565b8985526080870194855260a08701958652805490600160401b821015611cd05790611ba991600182018155612c83565b969096611cbc57518655516001860155516002850180546001600160a01b0319166001600160a01b0392909216919091179055517f12c6212a092000a772623f99abfca127c5c25c966686a610aac238c570c8c9219493611c2d939092600592611c259190611c1b9060038701613035565b5160048501613035565b519101613035565b8284526002815260016040852001611c458154612a73565b601f8111611c9e575b507f556e646572204d61696e74656e616e636500000000000000000000000000002290558284526002808252604080862090910180546001600160a01b031916339081179091559051908152a280f35b818652828620611cb691601f0160051c810190612ff4565b38611c4e565b634e487b7160e01b8a5260048a905260248afd5b634e487b7160e01b8b52604160045260248bfd5b503461026657611cf3366129d0565b908252600c602052604082209081548110156104bf57611d1291612a32565b919091611d2e5760405161024390611357816105418187612aad565b634e487b7160e01b81526004819052602490fd5b50346102665760203660031901126102665760043581526004602052604081208054611d6d81612c9f565b90611d7b6040519283612b7d565b80825260208201809385526020852085915b838310611e5357868587604051928392602084019060208552518091526040840160408260051b8601019392905b828210611dca57505050500390f35b91936001919395506020611e438192603f198a8203018652885190815181528382015184820152858060a01b03604083015116604082015260a0611e32611e20606085015160c0606086015260c0850190612b9e565b60808501518482036080860152612b9e565b9201519060a0818403910152612b9e565b9601920192018594939192611dbb565b60066020600192604051611e6681612b62565b855481528486015483820152848060a01b036002870154166040820152604051611e97816105418160038b01612aad565b6060820152604051611eb0816105418160048b01612aad565b6080820152604051611ec9816105418160058b01612aad565b60a0820152815201920192019190611d8d565b50346102665760203660031901126102665760209060ff906040906001600160a01b03611f076129b5565b168152600684522054166040519015158152f35b503461026657602036600319011261026657600435815260036020526040902060405180611f498184612aad565b03611f549082612b7d565b6040519182611f668160018401612aad565b03611f719084612b7d565b600281015460038201549060405180806004860190611f8f91612aad565b03611f9a9082612b7d565b60405180611fab8160058801612aad565b03611fb69082612b7d565b6040519182611fc88160068901612aad565b03611fd39084612b7d565b6040519384611fe58160078a01612aad565b03611ff09086612b7d565b60405195866120028160088b01612aad565b0361200d9088612b7d565b604051806009819a019061202091612aad565b0361202b9089612b7d565b604051998a996101408b526101408b0161204491612b9e565b8a810360208c015261205591612b9e565b9160408a01526060890152878103608089015261207191612b9e565b86810360a088015261208291612b9e565b85810360c087015261209391612b9e565b84810360e08601526120a491612b9e565b8381036101008501526120b691612b9e565b82810361012084015261024391612b9e565b5034610266576020366003190112610266576120e26129b5565b338252600560205260ff6040832054166004811015610b795760036121079114612d4b565b6001600160a01b0316808252600a60205260408220546121299060ff16612e4e565b808252600a60205260408220805460ff19169055815b600b54808210156121c6578261215483612a17565b905460039190911b1c6001600160a01b031614612174575060010161213f565b600019810190811161118557916121b4602092610a9a610a827fa86ab5eafc988f5b42ba604cdc3a37d9abe90ac4c02f44aad2ff13f3dea10b1896612a17565b6121bc612e2e565b604051908152a180f35b505060207fa86ab5eafc988f5b42ba604cdc3a37d9abe90ac4c02f44aad2ff13f3dea10b18916121bc565b5034610266576080366003190112610266576024356044356001600160a01b03811690818103611a4b57606435338552600560205260ff60408620541660048110156124615760036122439114612d4b565b6004358552600160205260408520805490811561241d5760001982019182116119d2579061227091612c67565b5091825460ff81168061240e575b156123c95786546001600160a01b0316908790823b156118085760405163944c5a6160e01b815260089190911c6001600160a01b03166004820152602481018890529182908183816044810103925af180156123be576123aa575b508590841515806123a1575b612311575b508460048460ff19815416815560028101600160ff19825416179055426003820155015580f35b81546001600160a01b0316803b156104bf5760405163142f3fc560e31b81526001600160a01b039290921660048301526024820184905282908290604490829084905af18015610b4d57612388575b505060049260058301906001600160601b0360a01b82541617905560068201553884816122ea565b8161239291612b7d565b61239d578438612360565b8480fd5b508215156122e5565b866123b791979297612b7d565b94386122d9565b6040513d89823e3d90fd5b60405162461bcd60e51b815260206004820152601960248201527f4e6f74207265616479206f7220616c72656164792070616964000000000000006044820152606490fd5b5060ff6002850154161561227e565b606460405162461bcd60e51b815260206004820152602060248201527f4e6f206d61696e74656e616e6365207265636f72647320666f722061737365746044820152fd5b634e487b7160e01b86526021600452602486fd5b503461026657602036600319011261026657600435906007548210156102665760206108e1836129e6565b5034610266576020366003190112610266576124ba6129b5565b338252600560205260ff6040832054166004811015610b795760036124df9114612d4b565b6001600160a01b0316808252600660205260408220546125019060ff16612da2565b808252600660205260408220805460ff19169055815b60075480821015612597578261252c836129e6565b905460039190911b1c6001600160a01b03161461254c5750600101612517565b60001981019081116111855790610a9a61113e612568936129e6565b612570612de3565b7f78ad698bb9f005816005024a452272f61c8752170b72cad46a47830dba9e5ece8280a280f35b5050612570565b5034610266576126046125fe6101009260406125b9366129d0565b92908160e084516125c981612b30565b82815282602082015282868201528260608201528260808201528260a08201528260c082015201528152600160205220612c67565b50612cb6565b6126116040518092612956565bf35b50346102665760203660031901126102665760406020916004358152600183522054604051908152f35b5034610266576020366003190112610266576126576129b5565b6008549082906001600160a01b0316815b838110612778575061269261267c83612c9f565b9261268a6040519485612b7d565b808452612c9f565b602083019390601f19013685378491855b8281106126ee57868587604051928392602084019060208552518091526040840192915b8181106126d5575050500390f35b82518452859450602093840193909201916001016126c7565b808752600160205260408720805490885b828110612712575b5050506001016126a3565b8461271d8284612c67565b505460081c6001600160a01b031614612738576001016126ff565b5050509284518110156127645761275b8185602060019460051b89010152612d26565b93903880612707565b634e487b7160e01b87526032600452602487fd5b8085526001602052604085208054865b81811061279b575b505050600101612668565b846127a68285612c67565b505460081c6001600160a01b0316146127c157600101612788565b505050916127d0600191612d26565b92903880612790565b5034610266576020366003190112610266576004358152600160205260408120805461280481612c9f565b906128126040519283612b7d565b80825260208201809385526020852085915b83831061287b57868587604051928392602084019060208552518091526040840192915b818110612856575050500390f35b9193509160206101008261286d6001948851612956565b019401910191849392612848565b6007602060019261288b85612cb6565b815201920192019190612824565b8234610266578060031936011261026657600754908183526020830191600782527fa66cc928b5edb82af9bd49922954155ab7b0942694bea4ce44661d9a8736c688915b8181106128f4576102438561023781870382612b7d565b82546001600160a01b03168452602090930192600192830192016128dd565b602060408183019282815284518094520192019060005b8181106129375750505090565b82516001600160a01b031684526020938401939092019160010161292a565b60e0809180511515845260018060a01b036020820151166020850152604081015160408501526060810151151560608501526080810151608085015260a081015160a085015260018060a01b0360c08201511660c08501520151910152565b600435906001600160a01b03821682036129cb57565b600080fd5b60409060031901126129cb576004359060243590565b600754811015612a0157600760005260206000200190600090565b634e487b7160e01b600052603260045260246000fd5b600b54811015612a0157600b60005260206000200190600090565b8054821015612a015760005260206000200190600090565b919060208301926004821015612a5d5752565b634e487b7160e01b600052602160045260246000fd5b90600182811c92168015612aa3575b6020831014612a8d57565b634e487b7160e01b600052602260045260246000fd5b91607f1691612a82565b60009291815491612abd83612a73565b8083529260018116908115612b135750600114612ad957505050565b60009081526020812093945091925b838310612af9575060209250010190565b600181602092949394548385870101520191019190612ae8565b915050602093945060ff929192191683830152151560051b010190565b61010081019081106001600160401b03821117612b4c57604052565b634e487b7160e01b600052604160045260246000fd5b60c081019081106001600160401b03821117612b4c57604052565b90601f801991011681019081106001600160401b03821117612b4c57604052565b919082519283825260005b848110612bca575050826000602080949584010152601f8019910116010190565b80602080928401015182828601015201612ba9565b81601f820112156129cb578035906001600160401b038211612b4c5760405192612c13601f8401601f191660200185612b7d565b828452602083830101116129cb57816000926020809301838601378301015290565b9060406003198301126129cb5760043591602435906001600160401b0382116129cb57612c6491600401612bdf565b90565b8054821015612a01576000526007602060002091020190600090565b8054821015612a01576000526006602060002091020190600090565b6001600160401b038111612b4c5760051b60200190565b90604051612cc381612b30565b825460ff808216151583526001600160a01b0360089290921c82166020840152600185015460408401526002850154161515606083015260038401546080830152600484015460a083015260058401541660c082015260069092015460e0830152565b6000198114612d355760010190565b634e487b7160e01b600052601160045260246000fd5b15612d5257565b60405162461bcd60e51b815260206004820152602260248201527f4f6e6c792041646d696e2063616e20706572666f726d2074686973206163746960448201526137b760f11b6064820152608490fd5b15612da957565b60405162461bcd60e51b8152602060048201526012602482015271139bc81c195b991a5b99c81c995c5d595cdd60721b6044820152606490fd5b6007548015612e185760001901612e13612dfe826007612a32565b81549060018060a01b039060031b1b19169055565b600755565b634e487b7160e01b600052603160045260246000fd5b600b548015612e185760001901612e49612dfe82600b612a32565b600b55565b15612e5557565b60405162461bcd60e51b815260206004820152600b60248201526a4e6f742070656e64696e6760a81b6044820152606490fd5b15612e8f57565b60405162461bcd60e51b815260206004820152603360248201527f4f6e6c79207265676973746572656420546563686e696369616e732063616e20604482015272706572666f726d206d61696e74656e616e636560681b6064820152608490fd5b15612ef757565b60405162461bcd60e51b8152602060048201526014602482015273105cdcd95d08191bd95cc81b9bdd08195e1a5cdd60621b6044820152606490fd5b15612f3a57565b60405162461bcd60e51b815260206004820152601060248201526f105cdcd95d081a5cc819195b195d195960821b6044820152606490fd5b60405190612f81604083612b7d565b6006825265213937b5b2b760d11b6020830152565b15612f9d57565b60405162461bcd60e51b815260206004820152602960248201527f4173736574206d7573742062652062726f6b656e20746f207374617274206d61604482015268696e74656e616e636560b81b6064820152608490fd5b818110612fff575050565b60008155600101612ff4565b90601f8111613018575050565b61303391600052601f6020600020910160051c810190612ff4565b565b91909182516001600160401b038111612b4c576130528254612a73565b601f81116130f8575b506020601f8211600114613096578192939460009261308b575b50508160011b916000199060031b1c1916179055565b015190503880613075565b601f1982169083600052806000209160005b8181106130e0575095836001959697106130c7575b505050811b019055565b015160001960f88460031b161c191690553880806130bd565b9192602060018192868b0151815501940192016130a8565b61312590836000526020600020601f840160051c8101916020851061312b575b601f0160051c0190612ff4565b3861305b565b909150819061311856fea2646970667358221220ebc82cf763056516e0108fee528fbef47f27f09b966919f3880840e94dc9e22964736f6c634300081c0033","opcodes":"PUSH1 0x80 PUSH1 0x40 MSTORE CALLVALUE PUSH1 0xB5 JUMPI PUSH1 0x9 DUP1 SLOAD PUSH1 0x1 PUSH1 0x1 PUSH1 0xA0 SHL SUB NOT AND CALLER SWAP1 DUP2 OR SWAP1 SWAP2 SSTORE PUSH1 0x0 SWAP1 DUP2 MSTORE PUSH1 0x5 PUSH1 0x20 MSTORE PUSH1 0x40 DUP1 DUP3 KECCAK256 DUP1 SLOAD PUSH1 0xFF NOT SWAP1 DUP2 AND PUSH1 0x3 OR SWAP1 SWAP2 SSTORE PUSH32 0x81BFD3ACDC1C8E8CFC23F2F592EAFACF599BDE7B219EC93C9C42BBDFABD43C48 DUP1 SLOAD DUP3 AND PUSH1 0x1 OR SWAP1 SSTORE PUSH20 0xDB8A806AD71485BF331700E9870624BDCF10EF82 SWAP1 SWAP3 MSTORE PUSH32 0x1A89786D5F01996B37C978BA3B77F3F3AF5FE4B2F01302F3BB29B11800C01362 DUP1 SLOAD SWAP1 SWAP3 AND PUSH1 0x2 OR SWAP1 SWAP2 SSTORE MLOAD PUSH2 0x316B SWAP1 DUP2 PUSH2 0xBB DUP3 CODECOPY RETURN JUMPDEST PUSH1 0x0 DUP1 REVERT INVALID PUSH1 0x80 DUP1 PUSH1 0x40 MSTORE PUSH1 0x4 CALLDATASIZE LT ISZERO PUSH2 0x13 JUMPI PUSH1 0x0 DUP1 REVERT JUMPDEST PUSH1 0x0 SWAP1 DUP2 CALLDATALOAD PUSH1 0xE0 SHR SWAP1 DUP2 PUSH4 0x80B2DC1 EQ PUSH2 0x2899 JUMPI POP DUP1 PUSH4 0x9B7864E EQ PUSH2 0x27D9 JUMPI DUP1 PUSH4 0xA45DBE3 EQ PUSH2 0x263D JUMPI DUP1 PUSH4 0x1F082314 EQ PUSH2 0x2613 JUMPI DUP1 PUSH4 0x2062EA3D EQ PUSH2 0x259E JUMPI DUP1 PUSH4 0x2E22A6D6 EQ PUSH2 0x24A0 JUMPI DUP1 PUSH4 0x2F1D5C32 EQ PUSH2 0x2475 JUMPI DUP1 PUSH4 0x31A4D378 EQ PUSH2 0x1EDC JUMPI DUP1 PUSH4 0x35326EBF EQ PUSH2 0x21F1 JUMPI DUP1 PUSH4 0x44276733 EQ PUSH2 0x1A4F JUMPI DUP1 PUSH4 0x48E071D4 EQ PUSH2 0x20C8 JUMPI DUP1 PUSH4 0x504E35D3 EQ PUSH2 0x1F1B JUMPI DUP1 PUSH4 0x5286852F EQ PUSH2 0x1EDC JUMPI DUP1 PUSH4 0x65B79C85 EQ PUSH2 0x1D42 JUMPI DUP1 PUSH4 0x6C4E9764 EQ PUSH2 0x1CE4 JUMPI DUP1 PUSH4 0x6CF154EE EQ PUSH2 0x1A92 JUMPI DUP1 PUSH4 0x74D5E100 EQ PUSH2 0x1A4F JUMPI DUP1 PUSH4 0x765207F8 EQ PUSH2 0x180C JUMPI DUP1 PUSH4 0x76BADC06 EQ PUSH2 0x1539 JUMPI DUP1 PUSH4 0x774D6F8D EQ PUSH2 0x14A4 JUMPI DUP1 PUSH4 0x7E702DC8 EQ PUSH2 0x1447 JUMPI DUP1 PUSH4 0x7EB79B53 EQ PUSH2 0x136B JUMPI DUP1 PUSH4 0x823A65F5 EQ PUSH2 0x1312 JUMPI DUP1 PUSH4 0x8DA5CB5B EQ PUSH2 0x12E9 JUMPI DUP1 PUSH4 0x8ED91318 EQ PUSH2 0x12CB JUMPI DUP1 PUSH4 0x912C55AC EQ PUSH2 0x11A0 JUMPI DUP1 PUSH4 0x94484747 EQ PUSH2 0x105F JUMPI DUP1 PUSH4 0x95459B58 EQ PUSH2 0x1020 JUMPI DUP1 PUSH4 0xAEE1FE49 EQ PUSH2 0xFF9 JUMPI DUP1 PUSH4 0xB74771D4 EQ PUSH2 0xF29 JUMPI DUP1 PUSH4 0xC2C33519 EQ PUSH2 0xC7E JUMPI DUP1 PUSH4 0xCF2E4A14 EQ PUSH2 0xC45 JUMPI DUP1 PUSH4 0xCF35BDD0 EQ PUSH2 0xB8D JUMPI DUP1 PUSH4 0xD624FDB6 EQ PUSH2 0x99C JUMPI DUP1 PUSH4 0xE70330F6 EQ PUSH2 0x8FA JUMPI DUP1 PUSH4 0xE738EA06 EQ PUSH2 0x8B6 JUMPI DUP1 PUSH4 0xE8C9BB8D EQ PUSH2 0x4C3 JUMPI DUP1 PUSH4 0xFAE77675 EQ PUSH2 0x3E6 JUMPI DUP1 PUSH4 0xFD279420 EQ PUSH2 0x269 JUMPI PUSH4 0xFE09B5EC EQ PUSH2 0x1D9 JUMPI PUSH1 0x0 DUP1 REVERT JUMPDEST CALLVALUE PUSH2 0x266 JUMPI DUP1 PUSH1 0x3 NOT CALLDATASIZE ADD SLT PUSH2 0x266 JUMPI PUSH1 0x40 MLOAD DUP1 SWAP2 PUSH1 0x20 PUSH1 0xB SLOAD SWAP3 DUP4 DUP2 MSTORE ADD SWAP2 PUSH1 0xB DUP3 MSTORE PUSH32 0x175B7A638427703F0DBE7BB9BBF987A2551717B34E79F33B5B1008D1FA01DB9 SWAP2 JUMPDEST DUP2 DUP2 LT PUSH2 0x247 JUMPI PUSH2 0x243 DUP6 PUSH2 0x237 DUP2 DUP8 SUB DUP3 PUSH2 0x2B7D JUMP JUMPDEST PUSH1 0x40 MLOAD SWAP2 DUP3 SWAP2 DUP3 PUSH2 0x2913 JUMP JUMPDEST SUB SWAP1 RETURN JUMPDEST DUP3 SLOAD PUSH1 0x1 PUSH1 0x1 PUSH1 0xA0 SHL SUB AND DUP5 MSTORE PUSH1 0x20 SWAP1 SWAP4 ADD SWAP3 PUSH1 0x1 SWAP3 DUP4 ADD SWAP3 ADD PUSH2 0x220 JUMP JUMPDEST DUP1 REVERT JUMPDEST POP CALLVALUE PUSH2 0x266 JUMPI DUP1 PUSH1 0x3 NOT CALLDATASIZE ADD SLT PUSH2 0x266 JUMPI CALLER DUP2 MSTORE PUSH1 0x5 PUSH1 0x20 MSTORE PUSH1 0xFF PUSH1 0x40 DUP3 KECCAK256 SLOAD AND PUSH1 0x4 DUP2 LT ISZERO PUSH2 0x3D2 JUMPI PUSH1 0x1 SUB PUSH2 0x37C JUMPI CALLER DUP2 MSTORE PUSH1 0x6 PUSH1 0x20 MSTORE PUSH1 0xFF PUSH1 0x40 DUP3 KECCAK256 SLOAD AND PUSH2 0x343 JUMPI CALLER DUP2 MSTORE PUSH1 0x6 PUSH1 0x20 MSTORE PUSH1 0x40 DUP2 KECCAK256 DUP1 SLOAD PUSH1 0xFF NOT AND PUSH1 0x1 OR SWAP1 SSTORE PUSH1 0x7 SLOAD PUSH1 0x1 PUSH1 0x40 SHL DUP2 LT ISZERO PUSH2 0x32F JUMPI PUSH2 0x2E9 DUP2 PUSH1 0x1 PUSH2 0x307 SWAP4 ADD PUSH1 0x7 SSTORE PUSH1 0x7 PUSH2 0x2A32 JUMP JUMPDEST DUP2 SLOAD PUSH1 0x1 PUSH1 0x1 PUSH1 0xA0 SHL SUB PUSH1 0x3 SWAP3 SWAP1 SWAP3 SHL SWAP2 DUP3 SHL NOT AND CALLER SWAP1 SWAP2 SHL OR SWAP1 SSTORE JUMP JUMPDEST CALLER PUSH32 0x7D22E892D3F75CAF71252EBB2597854EED989B2AA917E7422ADAD03A74643B06 DUP3 DUP1 LOG2 DUP1 RETURN JUMPDEST PUSH4 0x4E487B71 PUSH1 0xE0 SHL DUP3 MSTORE PUSH1 0x41 PUSH1 0x4 MSTORE PUSH1 0x24 DUP3 REVERT JUMPDEST PUSH1 0x40 MLOAD PUSH3 0x461BCD PUSH1 0xE5 SHL DUP2 MSTORE PUSH1 0x20 PUSH1 0x4 DUP3 ADD MSTORE PUSH1 0x11 PUSH1 0x24 DUP3 ADD MSTORE PUSH17 0x105B1C9958591E481C995C5D595CDD1959 PUSH1 0x7A SHL PUSH1 0x44 DUP3 ADD MSTORE PUSH1 0x64 SWAP1 REVERT JUMPDEST PUSH1 0x40 MLOAD PUSH3 0x461BCD PUSH1 0xE5 SHL DUP2 MSTORE PUSH1 0x20 PUSH1 0x4 DUP3 ADD MSTORE PUSH1 0x28 PUSH1 0x24 DUP3 ADD MSTORE PUSH32 0x4F6E6C792055736572732063616E207265717565737420746F20626520546563 PUSH1 0x44 DUP3 ADD MSTORE PUSH8 0x686E696369616E73 PUSH1 0xC0 SHL PUSH1 0x64 DUP3 ADD MSTORE PUSH1 0x84 SWAP1 REVERT JUMPDEST PUSH4 0x4E487B71 PUSH1 0xE0 SHL DUP3 MSTORE PUSH1 0x21 PUSH1 0x4 MSTORE PUSH1 0x24 DUP3 REVERT JUMPDEST POP CALLVALUE PUSH2 0x266 JUMPI PUSH2 0x3F5 CALLDATASIZE PUSH2 0x29D0 JUMP JUMPDEST SWAP1 DUP3 MSTORE PUSH1 0x4 PUSH1 0x20 MSTORE PUSH1 0x40 DUP3 KECCAK256 DUP1 SLOAD DUP3 LT ISZERO PUSH2 0x4BF JUMPI PUSH2 0x414 SWAP3 POP PUSH2 0x2C83 JUMP JUMPDEST POP DUP1 SLOAD PUSH2 0x243 PUSH1 0x5 PUSH2 0x4B1 PUSH1 0x1 DUP6 ADD SLOAD SWAP5 PUSH2 0x4A3 PUSH1 0x1 DUP1 PUSH1 0xA0 SHL SUB PUSH1 0x2 DUP4 ADD SLOAD AND PUSH1 0x40 MLOAD SWAP1 PUSH2 0x451 DUP3 PUSH2 0x44A DUP2 PUSH1 0x3 DUP9 ADD PUSH2 0x2AAD JUMP JUMPDEST SUB DUP4 PUSH2 0x2B7D JUMP JUMPDEST PUSH2 0x480 PUSH1 0x40 MLOAD SWAP5 PUSH2 0x470 DUP7 PUSH2 0x469 DUP2 PUSH1 0x4 DUP6 ADD PUSH2 0x2AAD JUMP JUMPDEST SUB DUP8 PUSH2 0x2B7D JUMP JUMPDEST PUSH2 0x469 PUSH1 0x40 MLOAD DUP1 SWAP10 DUP2 SWAP4 ADD PUSH2 0x2AAD JUMP JUMPDEST PUSH1 0x40 MLOAD SWAP9 DUP10 SWAP9 DUP10 MSTORE PUSH1 0x20 DUP10 ADD MSTORE PUSH1 0x40 DUP9 ADD MSTORE PUSH1 0xC0 PUSH1 0x60 DUP9 ADD MSTORE PUSH1 0xC0 DUP8 ADD SWAP1 PUSH2 0x2B9E JUMP JUMPDEST SWAP1 DUP6 DUP3 SUB PUSH1 0x80 DUP8 ADD MSTORE PUSH2 0x2B9E JUMP JUMPDEST SWAP1 DUP4 DUP3 SUB PUSH1 0xA0 DUP6 ADD MSTORE PUSH2 0x2B9E JUMP JUMPDEST DUP3 DUP1 REVERT JUMPDEST POP CALLVALUE PUSH2 0x266 JUMPI PUSH2 0x4D2 CALLDATASIZE PUSH2 0x2C35 JUMP JUMPDEST CALLER DUP4 MSTORE PUSH1 0x5 PUSH1 0x20 MSTORE PUSH1 0xFF PUSH1 0x40 DUP5 KECCAK256 SLOAD AND PUSH1 0x4 DUP2 LT ISZERO PUSH2 0x8A2 JUMPI PUSH1 0x2 PUSH2 0x4F7 SWAP2 EQ PUSH2 0x2E88 JUMP JUMPDEST PUSH2 0x504 PUSH1 0x8 SLOAD DUP4 LT PUSH2 0x2EF0 JUMP JUMPDEST DUP2 DUP4 MSTORE PUSH1 0x2 PUSH1 0x20 MSTORE PUSH2 0x520 PUSH1 0xFF PUSH1 0x5 PUSH1 0x40 DUP7 KECCAK256 ADD SLOAD AND ISZERO PUSH2 0x2F33 JUMP JUMPDEST DUP2 DUP4 MSTORE PUSH1 0x2 PUSH1 0x20 MSTORE PUSH2 0x541 PUSH2 0x548 PUSH1 0x1 PUSH1 0x40 DUP7 KECCAK256 ADD PUSH1 0x40 MLOAD SWAP3 DUP4 DUP1 SWAP3 PUSH2 0x2AAD JUMP JUMPDEST SUB DUP3 PUSH2 0x2B7D JUMP JUMPDEST PUSH1 0x20 DUP2 MLOAD SWAP2 ADD KECCAK256 SWAP1 PUSH1 0x40 SWAP2 PUSH1 0x11 PUSH1 0x20 DUP5 MLOAD PUSH2 0x563 DUP7 DUP3 PUSH2 0x2B7D JUMP JUMPDEST DUP3 DUP2 MSTORE ADD PUSH17 0x556E646572204D61696E74656E616E6365 PUSH1 0x78 SHL DUP2 MSTORE KECCAK256 SUB PUSH2 0x84A JUMPI DUP3 DUP5 MSTORE PUSH1 0x2 PUSH1 0x20 MSTORE PUSH1 0x1 DUP3 DUP6 KECCAK256 ADD PUSH2 0x5A5 PUSH2 0x59F DUP3 SLOAD PUSH2 0x2A73 JUMP JUMPDEST DUP3 PUSH2 0x300B JUMP JUMPDEST PUSH1 0x16 PUSH11 0x13DC195C985D1A5BDB985B PUSH1 0xAA SHL ADD SWAP1 SSTORE DUP3 DUP5 MSTORE PUSH1 0x2 PUSH1 0x20 MSTORE TIMESTAMP PUSH1 0x3 DUP4 DUP7 KECCAK256 ADD SSTORE DUP3 DUP5 MSTORE PUSH1 0x2 PUSH1 0x20 MSTORE DUP4 PUSH1 0x4 DUP4 DUP3 KECCAK256 ADD PUSH2 0x5E5 PUSH2 0x59F DUP3 SLOAD PUSH2 0x2A73 JUMP JUMPDEST SSTORE DUP3 DUP5 MSTORE PUSH1 0x4 PUSH1 0x20 MSTORE DUP2 DUP5 KECCAK256 DUP1 SLOAD SWAP1 DUP2 ISZERO PUSH2 0x806 JUMPI PUSH1 0x0 NOT DUP3 ADD SWAP2 DUP3 GT PUSH2 0x7F2 JUMPI SWAP1 PUSH2 0x610 SWAP2 PUSH2 0x2C83 JUMP JUMPDEST POP SWAP1 PUSH1 0x1 DUP3 ADD DUP1 SLOAD PUSH2 0x7AE JUMPI TIMESTAMP SWAP1 SSTORE DUP1 MLOAD PUSH2 0x79B JUMPI JUMPDEST POP POP DUP2 DUP4 MSTORE PUSH1 0x1 PUSH1 0x20 MSTORE DUP1 DUP4 KECCAK256 DUP2 MLOAD SWAP1 PUSH2 0x63F DUP3 PUSH2 0x2B30 JUMP JUMPDEST PUSH1 0x1 DUP3 MSTORE PUSH1 0x20 DUP3 ADD CALLER DUP2 MSTORE DUP4 DUP4 ADD DUP7 DUP2 MSTORE PUSH1 0x60 DUP5 ADD DUP8 DUP2 MSTORE PUSH1 0x80 DUP6 ADD SWAP1 DUP9 DUP3 MSTORE PUSH1 0xA0 DUP7 ADD SWAP3 DUP10 DUP5 MSTORE PUSH1 0xC0 DUP8 ADD SWAP5 DUP11 DUP7 MSTORE PUSH1 0xE0 DUP9 ADD SWAP7 DUP12 DUP9 MSTORE DUP1 SLOAD SWAP1 PUSH1 0x1 PUSH1 0x40 SHL DUP3 LT ISZERO PUSH2 0x787 JUMPI SWAP1 PUSH2 0x696 SWAP2 PUSH1 0x1 DUP3 ADD DUP2 SSTORE PUSH2 0x2C67 JUMP JUMPDEST SWAP9 SWAP1 SWAP9 PUSH2 0x773 JUMPI SWAP3 PUSH1 0x6 SWAP7 SWAP5 SWAP3 PUSH2 0x72A SWAP3 PUSH2 0x6E5 PUSH32 0x6D532036A4AD1A783EECD11839A21D9A653BCFFA3A88340DF2A9FE1765716D37 SWAP13 SWAP12 SWAP11 SWAP9 SWAP7 MLOAD ISZERO ISZERO DUP12 SWAP1 PUSH1 0xFF DUP1 NOT DUP4 SLOAD AND SWAP2 ISZERO ISZERO AND OR SWAP1 SSTORE JUMP JUMPDEST MLOAD DUP10 SLOAD PUSH2 0x100 PUSH1 0x1 PUSH1 0xA8 SHL SUB PUSH1 0x8 SWAP3 SWAP1 SWAP3 SHL SWAP2 SWAP1 SWAP2 AND PUSH2 0x100 PUSH1 0x1 PUSH1 0xA8 SHL SUB NOT SWAP1 SWAP2 AND OR DUP10 SSTORE MLOAD PUSH1 0x1 DUP10 ADD SSTORE MLOAD PUSH1 0x2 DUP9 ADD DUP1 SLOAD PUSH1 0xFF NOT AND SWAP2 ISZERO ISZERO PUSH1 0xFF AND SWAP2 SWAP1 SWAP2 OR SWAP1 SSTORE JUMP JUMPDEST MLOAD PUSH1 0x3 DUP7 ADD SSTORE MLOAD PUSH1 0x4 DUP6 ADD SSTORE MLOAD PUSH1 0x5 DUP5 ADD DUP1 SLOAD PUSH1 0x1 PUSH1 0x1 PUSH1 0xA0 SHL SUB NOT AND PUSH1 0x1 PUSH1 0x1 PUSH1 0xA0 SHL SUB SWAP3 SWAP1 SWAP3 AND SWAP2 SWAP1 SWAP2 OR SWAP1 SSTORE MLOAD SWAP2 ADD SSTORE MLOAD CALLER DUP2 MSTORE TIMESTAMP PUSH1 0x20 DUP3 ADD MSTORE DUP1 PUSH1 0x40 DUP2 ADD JUMPDEST SUB SWAP1 LOG2 DUP1 RETURN JUMPDEST PUSH4 0x4E487B71 PUSH1 0xE0 SHL DUP13 MSTORE PUSH1 0x4 DUP13 SWAP1 MSTORE PUSH1 0x24 DUP13 REVERT JUMPDEST PUSH4 0x4E487B71 PUSH1 0xE0 SHL DUP14 MSTORE PUSH1 0x41 PUSH1 0x4 MSTORE PUSH1 0x24 DUP14 REVERT JUMPDEST PUSH1 0x5 PUSH2 0x7A7 SWAP3 ADD PUSH2 0x3035 JUMP JUMPDEST CODESIZE DUP1 PUSH2 0x626 JUMP JUMPDEST DUP4 MLOAD PUSH3 0x461BCD PUSH1 0xE5 SHL DUP2 MSTORE PUSH1 0x20 PUSH1 0x4 DUP3 ADD MSTORE PUSH1 0x1D PUSH1 0x24 DUP3 ADD MSTORE PUSH32 0x4D61696E74656E616E636520616C726561647920636F6D706C65746564000000 PUSH1 0x44 DUP3 ADD MSTORE PUSH1 0x64 SWAP1 REVERT JUMPDEST PUSH4 0x4E487B71 PUSH1 0xE0 SHL DUP7 MSTORE PUSH1 0x11 PUSH1 0x4 MSTORE PUSH1 0x24 DUP7 REVERT JUMPDEST DUP4 MLOAD PUSH3 0x461BCD PUSH1 0xE5 SHL DUP2 MSTORE PUSH1 0x20 PUSH1 0x4 DUP3 ADD MSTORE PUSH1 0x1B PUSH1 0x24 DUP3 ADD MSTORE PUSH32 0x4E6F206D61696E74656E616E6365207265636F726420666F756E640000000000 PUSH1 0x44 DUP3 ADD MSTORE PUSH1 0x64 SWAP1 REVERT JUMPDEST DUP2 MLOAD PUSH3 0x461BCD PUSH1 0xE5 SHL DUP2 MSTORE PUSH1 0x20 PUSH1 0x4 DUP3 ADD MSTORE PUSH1 0x2B PUSH1 0x24 DUP3 ADD MSTORE PUSH32 0x4173736574206D75737420626520756E646572206D61696E74656E616E636520 PUSH1 0x44 DUP3 ADD MSTORE PUSH11 0x746F20636F6D706C657465 PUSH1 0xA8 SHL PUSH1 0x64 DUP3 ADD MSTORE PUSH1 0x84 SWAP1 REVERT JUMPDEST PUSH4 0x4E487B71 PUSH1 0xE0 SHL DUP5 MSTORE PUSH1 0x21 PUSH1 0x4 MSTORE PUSH1 0x24 DUP5 REVERT JUMPDEST POP CALLVALUE PUSH2 0x266 JUMPI PUSH1 0x20 CALLDATASIZE PUSH1 0x3 NOT ADD SLT PUSH2 0x266 JUMPI PUSH1 0x4 CALLDATALOAD SWAP1 PUSH1 0xB SLOAD DUP3 LT ISZERO PUSH2 0x266 JUMPI PUSH1 0x20 PUSH2 0x8E1 DUP4 PUSH2 0x2A17 JUMP JUMPDEST SWAP1 SLOAD PUSH1 0x40 MLOAD PUSH1 0x3 SWAP3 SWAP1 SWAP3 SHL SHR PUSH1 0x1 PUSH1 0x1 PUSH1 0xA0 SHL SUB AND DUP2 MSTORE RETURN JUMPDEST POP CALLVALUE PUSH2 0x266 JUMPI PUSH2 0x909 CALLDATASIZE PUSH2 0x29D0 JUMP JUMPDEST SWAP2 SWAP1 DUP2 MSTORE PUSH1 0x1 PUSH1 0x20 MSTORE PUSH1 0x40 DUP2 KECCAK256 SWAP1 DUP2 SLOAD DUP4 LT ISZERO PUSH2 0x266 JUMPI PUSH2 0x100 PUSH2 0x92D DUP5 DUP5 PUSH2 0x2C67 JUMP JUMPDEST POP DUP1 SLOAD SWAP1 PUSH1 0x1 DUP2 ADD SLOAD SWAP1 PUSH1 0xFF PUSH1 0x2 DUP3 ADD SLOAD AND PUSH1 0x3 DUP3 ADD SLOAD PUSH1 0x4 DUP4 ADD SLOAD SWAP2 PUSH1 0x6 PUSH1 0x1 DUP1 PUSH1 0xA0 SHL SUB PUSH1 0x5 DUP7 ADD SLOAD AND SWAP5 ADD SLOAD SWAP5 PUSH1 0x40 MLOAD SWAP7 PUSH1 0xFF DUP2 AND ISZERO ISZERO DUP9 MSTORE PUSH1 0x1 DUP1 PUSH1 0xA0 SHL SUB SWAP1 PUSH1 0x8 SHR AND PUSH1 0x20 DUP9 ADD MSTORE PUSH1 0x40 DUP8 ADD MSTORE ISZERO ISZERO PUSH1 0x60 DUP7 ADD MSTORE PUSH1 0x80 DUP6 ADD MSTORE PUSH1 0xA0 DUP5 ADD MSTORE PUSH1 0xC0 DUP4 ADD MSTORE PUSH1 0xE0 DUP3 ADD MSTORE RETURN JUMPDEST POP CALLVALUE PUSH2 0x266 JUMPI PUSH1 0x20 CALLDATASIZE PUSH1 0x3 NOT ADD SLT PUSH2 0x266 JUMPI PUSH2 0x9B6 PUSH2 0x29B5 JUMP JUMPDEST CALLER DUP3 MSTORE PUSH1 0x5 PUSH1 0x20 MSTORE PUSH1 0xFF PUSH1 0x40 DUP4 KECCAK256 SLOAD AND PUSH1 0x4 DUP2 LT ISZERO PUSH2 0xB79 JUMPI PUSH1 0x3 PUSH2 0x9DB SWAP2 EQ PUSH2 0x2D4B JUMP JUMPDEST PUSH1 0x1 PUSH1 0x1 PUSH1 0xA0 SHL SUB AND DUP1 DUP3 MSTORE PUSH1 0xA PUSH1 0x20 MSTORE PUSH1 0x40 DUP3 KECCAK256 SLOAD SWAP1 SWAP2 SWAP1 PUSH2 0xA00 SWAP1 PUSH1 0xFF AND PUSH2 0x2E4E JUMP JUMPDEST DUP2 DUP2 MSTORE PUSH1 0x5 PUSH1 0x20 MSTORE PUSH1 0x40 DUP2 KECCAK256 PUSH1 0x1 PUSH1 0xFF NOT DUP3 SLOAD AND OR SWAP1 SSTORE DUP2 DUP2 MSTORE PUSH1 0xA PUSH1 0x20 MSTORE PUSH1 0x40 DUP2 KECCAK256 PUSH1 0xFF NOT DUP2 SLOAD AND SWAP1 SSTORE DUP1 JUMPDEST PUSH1 0xB SLOAD DUP1 DUP3 LT ISZERO PUSH2 0xB70 JUMPI DUP4 PUSH2 0xA42 DUP4 PUSH2 0x2A17 JUMP JUMPDEST SWAP1 SLOAD PUSH1 0x3 SWAP2 SWAP1 SWAP2 SHL SHR PUSH1 0x1 PUSH1 0x1 PUSH1 0xA0 SHL SUB AND EQ PUSH2 0xA62 JUMPI POP PUSH1 0x1 ADD PUSH2 0xA2D JUMP JUMPDEST SWAP1 SWAP3 SWAP1 PUSH1 0x0 NOT DUP2 ADD SWAP1 DUP2 GT PUSH2 0xB5C JUMPI DUP3 SWAP4 PUSH2 0xA9A PUSH2 0xA82 PUSH2 0xABE SWAP4 PUSH2 0x2A17 JUMP JUMPDEST SWAP1 SLOAD PUSH1 0x3 SWAP2 SWAP1 SWAP2 SHL SHR PUSH1 0x1 PUSH1 0x1 PUSH1 0xA0 SHL SUB AND SWAP2 PUSH2 0x2A17 JUMP JUMPDEST DUP2 SLOAD PUSH1 0x1 PUSH1 0x1 PUSH1 0xA0 SHL SUB SWAP4 DUP5 AND PUSH1 0x3 SWAP3 SWAP1 SWAP3 SHL SWAP2 DUP3 SHL SWAP4 SWAP1 SWAP2 SHL NOT AND SWAP2 SWAP1 SWAP2 OR SWAP1 SSTORE JUMP JUMPDEST PUSH2 0xAC6 PUSH2 0x2E2E JUMP JUMPDEST PUSH32 0xFBB0A472171A6EB950C8A87421215268A1B2DF816DA0A48E920E72ADE27CFCF7 PUSH1 0x20 PUSH1 0x40 MLOAD DUP4 DUP2 MSTORE LOG1 DUP2 SLOAD PUSH1 0x1 PUSH1 0x1 PUSH1 0xA0 SHL SUB AND SWAP1 DUP2 EXTCODESIZE ISZERO PUSH2 0xB58 JUMPI DUP3 SWAP2 PUSH1 0x44 DUP4 SWAP3 PUSH1 0x40 MLOAD SWAP5 DUP6 SWAP4 DUP5 SWAP3 PUSH4 0x142F3FC5 PUSH1 0xE3 SHL DUP5 MSTORE PUSH1 0x4 DUP5 ADD MSTORE PUSH7 0x2386F26FC10000 PUSH1 0x24 DUP5 ADD MSTORE GAS CALL DUP1 ISZERO PUSH2 0xB4D JUMPI PUSH2 0xB3C JUMPI POP RETURN JUMPDEST DUP2 PUSH2 0xB46 SWAP2 PUSH2 0x2B7D JUMP JUMPDEST PUSH2 0x266 JUMPI DUP1 RETURN JUMPDEST PUSH1 0x40 MLOAD RETURNDATASIZE DUP5 DUP3 RETURNDATACOPY RETURNDATASIZE SWAP1 REVERT JUMPDEST POP POP REVERT JUMPDEST PUSH4 0x4E487B71 PUSH1 0xE0 SHL DUP4 MSTORE PUSH1 0x11 PUSH1 0x4 MSTORE PUSH1 0x24 DUP4 REVERT JUMPDEST POP POP DUP1 SWAP2 PUSH2 0xAC6 JUMP JUMPDEST PUSH4 0x4E487B71 PUSH1 0xE0 SHL DUP4 MSTORE PUSH1 0x21 PUSH1 0x4 MSTORE PUSH1 0x24 DUP4 REVERT JUMPDEST POP CALLVALUE PUSH2 0x266 JUMPI PUSH1 0x20 CALLDATASIZE PUSH1 0x3 NOT ADD SLT PUSH2 0x266 JUMPI PUSH1 0x40 SWAP1 PUSH1 0x4 CALLDATALOAD DUP2 MSTORE PUSH1 0x2 PUSH1 0x20 MSTORE KECCAK256 DUP1 SLOAD PUSH1 0x40 MLOAD SWAP2 PUSH2 0xBCB DUP4 PUSH2 0xBC4 DUP2 PUSH1 0x1 DUP6 ADD PUSH2 0x2AAD JUMP JUMPDEST SUB DUP5 PUSH2 0x2B7D JUMP JUMPDEST PUSH2 0xC39 PUSH1 0x1 DUP1 PUSH1 0xA0 SHL SUB PUSH1 0x2 DUP4 ADD SLOAD AND PUSH1 0x3 DUP4 ADD SLOAD SWAP3 PUSH1 0xFF PUSH1 0x5 PUSH1 0x40 MLOAD SWAP3 PUSH2 0xC01 DUP5 PUSH2 0xBFA DUP2 PUSH1 0x4 DUP6 ADD PUSH2 0x2AAD JUMP JUMPDEST SUB DUP6 PUSH2 0x2B7D JUMP JUMPDEST ADD SLOAD AND SWAP4 PUSH2 0xC21 PUSH1 0x40 MLOAD SWAP8 DUP9 SWAP8 DUP9 MSTORE PUSH1 0xC0 PUSH1 0x20 DUP10 ADD MSTORE PUSH1 0xC0 DUP9 ADD SWAP1 PUSH2 0x2B9E JUMP JUMPDEST SWAP3 PUSH1 0x40 DUP8 ADD MSTORE PUSH1 0x60 DUP7 ADD MSTORE DUP5 DUP3 SUB PUSH1 0x80 DUP7 ADD MSTORE PUSH2 0x2B9E JUMP JUMPDEST SWAP1 ISZERO ISZERO PUSH1 0xA0 DUP4 ADD MSTORE SUB SWAP1 RETURN JUMPDEST POP CALLVALUE PUSH2 0x266 JUMPI PUSH1 0x20 CALLDATASIZE PUSH1 0x3 NOT ADD SLT PUSH2 0x266 JUMPI PUSH1 0x20 SWAP1 PUSH1 0x40 SWAP1 PUSH1 0x1 PUSH1 0x1 PUSH1 0xA0 SHL SUB PUSH2 0xC6D PUSH2 0x29B5 JUMP JUMPDEST AND DUP2 MSTORE PUSH1 0xD DUP4 MSTORE KECCAK256 SLOAD PUSH1 0x40 MLOAD SWAP1 DUP2 MSTORE RETURN JUMPDEST POP CALLVALUE PUSH2 0x266 JUMPI PUSH2 0xC8D CALLDATASIZE PUSH2 0x2C35 JUMP JUMPDEST CALLER DUP4 MSTORE PUSH1 0x5 PUSH1 0x20 MSTORE PUSH1 0xFF PUSH1 0x40 DUP5 KECCAK256 SLOAD AND PUSH1 0x4 DUP2 LT ISZERO PUSH2 0x8A2 JUMPI PUSH1 0x1 SUB PUSH2 0xECE JUMPI CALLER DUP4 MSTORE PUSH1 0xD PUSH1 0x20 MSTORE PUSH1 0x3 PUSH1 0x40 DUP5 KECCAK256 SLOAD LT ISZERO PUSH2 0xE7D JUMPI PUSH2 0xCCF PUSH1 0x8 SLOAD DUP4 LT PUSH2 0x2EF0 JUMP JUMPDEST DUP2 DUP4 MSTORE PUSH1 0x2 PUSH1 0x20 MSTORE PUSH2 0xCEB PUSH1 0xFF PUSH1 0x5 PUSH1 0x40 DUP7 KECCAK256 ADD SLOAD AND ISZERO PUSH2 0x2F33 JUMP JUMPDEST DUP2 DUP4 MSTORE PUSH1 0x2 PUSH1 0x20 MSTORE PUSH2 0x541 PUSH2 0xD0C PUSH1 0x1 PUSH1 0x40 DUP7 KECCAK256 ADD PUSH1 0x40 MLOAD SWAP3 DUP4 DUP1 SWAP3 PUSH2 0x2AAD JUMP JUMPDEST PUSH1 0x20 DUP2 MLOAD SWAP2 ADD KECCAK256 SWAP1 PUSH1 0x40 SWAP2 PUSH1 0xB PUSH1 0x20 DUP5 MLOAD PUSH2 0xD27 DUP7 DUP3 PUSH2 0x2B7D JUMP JUMPDEST DUP3 DUP2 MSTORE ADD PUSH11 0x13DC195C985D1A5BDB985B PUSH1 0xAA SHL DUP2 MSTORE KECCAK256 SUB PUSH2 0xE21 JUMPI PUSH32 0x8197465751FE71AA67B1E8F6325CD9377D42FE6A81DB402A1166BE1074653B31 SWAP2 PUSH2 0x76D PUSH1 0x6 SWAP3 DUP6 DUP8 MSTORE PUSH1 0x2 PUSH1 0x20 MSTORE PUSH1 0x1 DUP4 DUP9 KECCAK256 ADD PUSH2 0xD82 DUP2 SLOAD PUSH2 0x2A73 JUMP JUMPDEST PUSH1 0x1F DUP2 GT PUSH2 0xE02 JUMPI JUMPDEST POP PUSH1 0xC PUSH6 0x213937B5B2B7 PUSH1 0xD1 SHL ADD SWAP1 SSTORE DUP6 DUP8 MSTORE PUSH1 0x2 PUSH1 0x20 MSTORE PUSH2 0xDB2 DUP2 PUSH1 0x4 DUP6 DUP11 KECCAK256 ADD PUSH2 0x3035 JUMP JUMPDEST DUP6 DUP8 MSTORE PUSH1 0xE PUSH1 0x20 MSTORE DUP3 DUP8 KECCAK256 PUSH1 0x1 DUP1 PUSH1 0xA0 SHL SUB CALLER AND PUSH1 0x1 PUSH1 0x1 PUSH1 0x60 SHL SUB PUSH1 0xA0 SHL DUP3 SLOAD AND OR SWAP1 SSTORE DUP3 MLOAD SWAP4 DUP4 DUP6 SWAP5 DUP6 MSTORE DUP5 ADD MSTORE PUSH6 0x213937B5B2B7 PUSH1 0xD1 SHL PUSH1 0x60 DUP5 ADD MSTORE PUSH1 0x80 PUSH1 0x20 DUP5 ADD MSTORE PUSH1 0x80 DUP4 ADD SWAP1 PUSH2 0x2B9E JUMP JUMPDEST DUP2 DUP10 MSTORE PUSH1 0x20 DUP10 KECCAK256 PUSH2 0xE1B SWAP2 PUSH1 0x1F ADD PUSH1 0x5 SHR DUP2 ADD SWAP1 PUSH2 0x2FF4 JUMP JUMPDEST CODESIZE PUSH2 0xD8B JUMP JUMPDEST DUP2 MLOAD PUSH3 0x461BCD PUSH1 0xE5 SHL DUP2 MSTORE PUSH1 0x20 PUSH1 0x4 DUP3 ADD MSTORE PUSH1 0x2F PUSH1 0x24 DUP3 ADD MSTORE PUSH32 0x4173736574206D757374206265206F7065726174696F6E616C20746F20726570 PUSH1 0x44 DUP3 ADD MSTORE PUSH15 0x1BDC9D0818481B995DC819985D5B1D PUSH1 0x8A SHL PUSH1 0x64 DUP3 ADD MSTORE PUSH1 0x84 SWAP1 REVERT JUMPDEST PUSH1 0x40 MLOAD PUSH3 0x461BCD PUSH1 0xE5 SHL DUP2 MSTORE PUSH1 0x20 PUSH1 0x4 DUP3 ADD MSTORE PUSH1 0x24 DUP1 DUP3 ADD MSTORE PUSH32 0x596F75206172652062616E6E65642066726F6D207265706F7274696E67206661 PUSH1 0x44 DUP3 ADD MSTORE PUSH4 0x756C7473 PUSH1 0xE0 SHL PUSH1 0x64 DUP3 ADD MSTORE PUSH1 0x84 SWAP1 REVERT JUMPDEST PUSH1 0x40 MLOAD PUSH3 0x461BCD PUSH1 0xE5 SHL DUP2 MSTORE PUSH1 0x20 PUSH1 0x4 DUP3 ADD MSTORE PUSH1 0x2D PUSH1 0x24 DUP3 ADD MSTORE PUSH32 0x4F6E6C7920726567697374657265642055736572732063616E20706572666F72 PUSH1 0x44 DUP3 ADD MSTORE PUSH13 0x36903A3434B99030B1BA34B7B7 PUSH1 0x99 SHL PUSH1 0x64 DUP3 ADD MSTORE PUSH1 0x84 SWAP1 REVERT JUMPDEST POP CALLVALUE PUSH2 0x266 JUMPI DUP1 PUSH1 0x3 NOT CALLDATASIZE ADD SLT PUSH2 0x266 JUMPI CALLER DUP2 MSTORE PUSH1 0x5 PUSH1 0x20 MSTORE PUSH1 0xFF PUSH1 0x40 DUP3 KECCAK256 SLOAD AND PUSH1 0x4 DUP2 LT ISZERO PUSH2 0x3D2 JUMPI PUSH2 0xFBF JUMPI CALLER DUP2 MSTORE PUSH1 0xA PUSH1 0x20 MSTORE PUSH1 0x40 DUP2 KECCAK256 DUP1 SLOAD PUSH1 0xFF NOT AND PUSH1 0x1 OR SWAP1 SSTORE PUSH1 0xB SLOAD PUSH1 0x1 PUSH1 0x40 SHL DUP2 LT ISZERO PUSH2 0x32F JUMPI PUSH2 0x2E9 DUP2 PUSH1 0x1 PUSH2 0xF92 SWAP4 ADD PUSH1 0xB SSTORE PUSH1 0xB PUSH2 0x2A32 JUMP JUMPDEST PUSH32 0x39539B618F1922C04929430780D204C380802C4E22361E21A72BB3A62B667F4B PUSH1 0x20 PUSH1 0x40 MLOAD CALLER DUP2 MSTORE LOG1 DUP1 RETURN JUMPDEST PUSH1 0x40 MLOAD PUSH3 0x461BCD PUSH1 0xE5 SHL DUP2 MSTORE PUSH1 0x20 PUSH1 0x4 DUP3 ADD MSTORE PUSH1 0x12 PUSH1 0x24 DUP3 ADD MSTORE PUSH18 0x105B1C9958591E481C9959DA5CDD195C9959 PUSH1 0x72 SHL PUSH1 0x44 DUP3 ADD MSTORE PUSH1 0x64 SWAP1 REVERT JUMPDEST POP CALLVALUE PUSH2 0x266 JUMPI DUP1 PUSH1 0x3 NOT CALLDATASIZE ADD SLT PUSH2 0x266 JUMPI SLOAD PUSH1 0x40 MLOAD PUSH1 0x1 PUSH1 0x1 PUSH1 0xA0 SHL SUB SWAP1 SWAP2 AND DUP2 MSTORE PUSH1 0x20 SWAP1 RETURN JUMPDEST POP CALLVALUE PUSH2 0x266 JUMPI PUSH1 0x20 CALLDATASIZE PUSH1 0x3 NOT ADD SLT PUSH2 0x266 JUMPI PUSH1 0x20 SWAP1 PUSH1 0xFF SWAP1 PUSH1 0x40 SWAP1 PUSH1 0x1 PUSH1 0x1 PUSH1 0xA0 SHL SUB PUSH2 0x104B PUSH2 0x29B5 JUMP JUMPDEST AND DUP2 MSTORE PUSH1 0xA DUP5 MSTORE KECCAK256 SLOAD AND PUSH1 0x40 MLOAD SWAP1 ISZERO ISZERO DUP2 MSTORE RETURN JUMPDEST POP CALLVALUE PUSH2 0x266 JUMPI PUSH1 0x20 CALLDATASIZE PUSH1 0x3 NOT ADD SLT PUSH2 0x266 JUMPI PUSH2 0x1079 PUSH2 0x29B5 JUMP JUMPDEST CALLER DUP3 MSTORE PUSH1 0x5 PUSH1 0x20 MSTORE PUSH1 0xFF PUSH1 0x40 DUP4 KECCAK256 SLOAD AND PUSH1 0x4 DUP2 LT ISZERO PUSH2 0xB79 JUMPI PUSH1 0x3 PUSH2 0x109E SWAP2 EQ PUSH2 0x2D4B JUMP JUMPDEST PUSH1 0x1 PUSH1 0x1 PUSH1 0xA0 SHL SUB AND DUP1 DUP3 MSTORE PUSH1 0x6 PUSH1 0x20 MSTORE PUSH1 0x40 DUP3 KECCAK256 SLOAD PUSH2 0x10C0 SWAP1 PUSH1 0xFF AND PUSH2 0x2DA2 JUMP JUMPDEST DUP1 DUP3 MSTORE PUSH1 0x5 PUSH1 0x20 MSTORE PUSH1 0x40 DUP3 KECCAK256 PUSH1 0x2 PUSH1 0xFF NOT DUP3 SLOAD AND OR SWAP1 SSTORE DUP1 DUP3 MSTORE PUSH1 0x6 PUSH1 0x20 MSTORE PUSH1 0x40 DUP3 KECCAK256 PUSH1 0xFF NOT DUP2 SLOAD AND SWAP1 SSTORE DUP2 JUMPDEST PUSH1 0x7 SLOAD DUP1 DUP3 LT ISZERO PUSH2 0x1199 JUMPI DUP3 PUSH2 0x1102 DUP4 PUSH2 0x29E6 JUMP JUMPDEST SWAP1 SLOAD PUSH1 0x3 SWAP2 SWAP1 SWAP2 SHL SHR PUSH1 0x1 PUSH1 0x1 PUSH1 0xA0 SHL SUB AND EQ PUSH2 0x1122 JUMPI POP PUSH1 0x1 ADD PUSH2 0x10ED JUMP JUMPDEST PUSH1 0x0 NOT DUP2 ADD SWAP1 DUP2 GT PUSH2 0x1185 JUMPI SWAP1 PUSH2 0xA9A PUSH2 0x113E PUSH2 0x1156 SWAP4 PUSH2 0x29E6 JUMP JUMPDEST SWAP1 SLOAD PUSH1 0x3 SWAP2 SWAP1 SWAP2 SHL SHR PUSH1 0x1 PUSH1 0x1 PUSH1 0xA0 SHL SUB AND SWAP2 PUSH2 0x29E6 JUMP JUMPDEST PUSH2 0x115E PUSH2 0x2DE3 JUMP JUMPDEST PUSH32 0x3E2B9852773678E9BAB26FFFB152F2C6D1D685A372C6DFAD53141CE3F10927A1 DUP3 DUP1 LOG2 DUP1 RETURN JUMPDEST PUSH4 0x4E487B71 PUSH1 0xE0 SHL DUP5 MSTORE PUSH1 0x11 PUSH1 0x4 MSTORE PUSH1 0x24 DUP5 REVERT JUMPDEST POP POP PUSH2 0x115E JUMP JUMPDEST POP CALLVALUE PUSH2 0x266 JUMPI PUSH2 0x11AF CALLDATASIZE PUSH2 0x2C35 JUMP JUMPDEST SWAP1 CALLER DUP4 MSTORE PUSH1 0x5 PUSH1 0x20 MSTORE PUSH1 0xFF PUSH1 0x40 DUP5 KECCAK256 SLOAD AND PUSH1 0x4 DUP2 LT ISZERO PUSH2 0x8A2 JUMPI PUSH1 0x2 PUSH2 0x11D5 SWAP2 EQ PUSH2 0x2E88 JUMP JUMPDEST DUP1 DUP4 MSTORE PUSH1 0x2 PUSH1 0x20 MSTORE PUSH2 0x11F1 PUSH1 0xFF PUSH1 0x5 PUSH1 0x40 DUP7 KECCAK256 ADD SLOAD AND ISZERO PUSH2 0x2F33 JUMP JUMPDEST DUP1 DUP4 MSTORE PUSH1 0x3 PUSH1 0x20 MSTORE PUSH2 0x1209 DUP3 PUSH1 0x9 PUSH1 0x40 DUP7 KECCAK256 ADD PUSH2 0x3035 JUMP JUMPDEST DUP3 MSTORE PUSH1 0x4 PUSH1 0x20 MSTORE PUSH1 0x40 DUP3 KECCAK256 DUP1 SLOAD SWAP1 DUP2 ISZERO PUSH2 0x1286 JUMPI PUSH1 0x0 NOT DUP3 ADD SWAP2 DUP3 GT PUSH2 0x1185 JUMPI SWAP1 PUSH2 0x1233 SWAP2 PUSH2 0x2C83 JUMP JUMPDEST POP SWAP1 PUSH1 0x1 DUP3 ADD SLOAD PUSH2 0x124D JUMPI PUSH1 0x4 PUSH2 0x124A SWAP3 ADD PUSH2 0x3035 JUMP JUMPDEST DUP1 RETURN JUMPDEST PUSH1 0x40 MLOAD PUSH3 0x461BCD PUSH1 0xE5 SHL DUP2 MSTORE PUSH1 0x20 PUSH1 0x4 DUP3 ADD MSTORE PUSH1 0x11 PUSH1 0x24 DUP3 ADD MSTORE PUSH17 0x13585A5B9D195B985B98D948195B991959 PUSH1 0x7A SHL PUSH1 0x44 DUP3 ADD MSTORE PUSH1 0x64 SWAP1 REVERT JUMPDEST PUSH1 0x40 MLOAD PUSH3 0x461BCD PUSH1 0xE5 SHL DUP2 MSTORE PUSH1 0x20 PUSH1 0x4 DUP3 ADD MSTORE PUSH1 0x1C PUSH1 0x24 DUP3 ADD MSTORE PUSH32 0x4E6F20616374697665206D61696E74656E616E6365207265636F726400000000 PUSH1 0x44 DUP3 ADD MSTORE PUSH1 0x64 SWAP1 REVERT JUMPDEST POP CALLVALUE PUSH2 0x266 JUMPI DUP1 PUSH1 0x3 NOT CALLDATASIZE ADD SLT PUSH2 0x266 JUMPI PUSH1 0x20 PUSH1 0x8 SLOAD PUSH1 0x40 MLOAD SWAP1 DUP2 MSTORE RETURN JUMPDEST POP CALLVALUE PUSH2 0x266 JUMPI DUP1 PUSH1 0x3 NOT CALLDATASIZE ADD SLT PUSH2 0x266 JUMPI PUSH1 0x9 SLOAD PUSH1 0x40 MLOAD PUSH1 0x1 PUSH1 0x1 PUSH1 0xA0 SHL SUB SWAP1 SWAP2 AND DUP2 MSTORE PUSH1 0x20 SWAP1 RETURN JUMPDEST POP CALLVALUE PUSH2 0x266 JUMPI PUSH1 0x20 CALLDATASIZE PUSH1 0x3 NOT ADD SLT PUSH2 0x266 JUMPI PUSH2 0x541 PUSH2 0x1357 PUSH1 0x1 PUSH1 0x40 PUSH2 0x243 SWAP5 PUSH1 0x4 CALLDATALOAD PUSH2 0x1342 PUSH1 0x8 SLOAD DUP3 LT PUSH2 0x2EF0 JUMP JUMPDEST DUP2 MSTORE PUSH1 0x2 PUSH1 0x20 MSTORE KECCAK256 ADD PUSH1 0x40 MLOAD SWAP3 DUP4 DUP1 SWAP3 PUSH2 0x2AAD JUMP JUMPDEST PUSH1 0x40 MLOAD SWAP2 DUP3 SWAP2 PUSH1 0x20 DUP4 MSTORE PUSH1 0x20 DUP4 ADD SWAP1 PUSH2 0x2B9E JUMP JUMPDEST POP CALLVALUE PUSH2 0x266 JUMPI PUSH1 0x20 CALLDATASIZE PUSH1 0x3 NOT ADD SLT PUSH2 0x266 JUMPI PUSH1 0x4 CALLDATALOAD CALLER DUP3 MSTORE PUSH1 0x5 PUSH1 0x20 MSTORE PUSH1 0xFF PUSH1 0x40 DUP4 KECCAK256 SLOAD AND PUSH1 0x4 DUP2 LT ISZERO PUSH2 0xB79 JUMPI PUSH1 0x3 PUSH2 0x13A5 SWAP2 EQ PUSH2 0x2D4B JUMP JUMPDEST PUSH2 0x13B2 PUSH1 0x8 SLOAD DUP3 LT PUSH2 0x2EF0 JUMP JUMPDEST DUP1 DUP3 MSTORE PUSH1 0x2 PUSH1 0x20 MSTORE PUSH1 0xFF PUSH1 0x5 PUSH1 0x40 DUP5 KECCAK256 ADD SLOAD AND PUSH2 0x140A JUMPI DUP1 DUP3 MSTORE PUSH1 0x2 PUSH1 0x20 MSTORE PUSH1 0x40 DUP3 KECCAK256 PUSH1 0x5 ADD DUP1 SLOAD PUSH1 0xFF NOT AND PUSH1 0x1 OR SWAP1 SSTORE PUSH32 0xA688C45CD59C2527AE60C477DE2510CF8CEC40AA54DEF51BAE6C2725468871A2 DUP3 DUP1 LOG2 DUP1 RETURN JUMPDEST PUSH1 0x40 MLOAD PUSH3 0x461BCD PUSH1 0xE5 SHL DUP2 MSTORE PUSH1 0x20 PUSH1 0x4 DUP3 ADD MSTORE PUSH1 0x15 PUSH1 0x24 DUP3 ADD MSTORE PUSH21 0x105CDCD95D08185B1C9958591E4819195B195D1959 PUSH1 0x5A SHL PUSH1 0x44 DUP3 ADD MSTORE PUSH1 0x64 SWAP1 REVERT JUMPDEST POP CALLVALUE PUSH2 0x266 JUMPI PUSH1 0x20 CALLDATASIZE PUSH1 0x3 NOT ADD SLT PUSH2 0x266 JUMPI PUSH2 0x1461 PUSH2 0x29B5 JUMP JUMPDEST CALLER DUP3 MSTORE PUSH1 0x5 PUSH1 0x20 MSTORE PUSH1 0xFF PUSH1 0x40 DUP4 KECCAK256 SLOAD AND PUSH1 0x4 DUP2 LT ISZERO PUSH2 0xB79 JUMPI PUSH1 0x3 PUSH2 0x1486 SWAP2 EQ PUSH2 0x2D4B JUMP JUMPDEST DUP2 SLOAD PUSH1 0x1 PUSH1 0x1 PUSH1 0xA0 SHL SUB NOT AND PUSH1 0x1 PUSH1 0x1 PUSH1 0xA0 SHL SUB SWAP2 SWAP1 SWAP2 AND OR DUP2 SSTORE DUP1 RETURN JUMPDEST POP CALLVALUE PUSH2 0x266 JUMPI PUSH2 0x14B3 CALLDATASIZE PUSH2 0x2C35 JUMP JUMPDEST DUP2 DUP4 MSTORE PUSH1 0xC PUSH1 0x20 MSTORE PUSH1 0x40 DUP4 KECCAK256 DUP1 SLOAD SWAP1 PUSH1 0x1 PUSH1 0x40 SHL DUP3 LT ISZERO PUSH2 0x1525 JUMPI SWAP1 PUSH2 0x14DE SWAP2 PUSH1 0x1 DUP3 ADD DUP2 SSTORE PUSH2 0x2A32 JUMP JUMPDEST PUSH2 0x1511 JUMPI DUP2 PUSH2 0x1357 PUSH32 0xDD10225E4E3F2ED83BF940A46A7C82A3BFF127022CEB3E13F01892018378DF0C SWAP4 PUSH2 0x76D SWAP4 PUSH2 0x3035 JUMP JUMPDEST PUSH4 0x4E487B71 PUSH1 0xE0 SHL DUP5 MSTORE PUSH1 0x4 DUP5 SWAP1 MSTORE PUSH1 0x24 DUP5 REVERT JUMPDEST PUSH4 0x4E487B71 PUSH1 0xE0 SHL DUP6 MSTORE PUSH1 0x41 PUSH1 0x4 MSTORE PUSH1 0x24 DUP6 REVERT JUMPDEST POP CALLVALUE PUSH2 0x266 JUMPI PUSH2 0x140 CALLDATASIZE PUSH1 0x3 NOT ADD SLT PUSH2 0x266 JUMPI PUSH1 0x4 CALLDATALOAD PUSH1 0x1 PUSH1 0x1 PUSH1 0x40 SHL SUB DUP2 GT PUSH2 0x1808 JUMPI PUSH2 0x156B SWAP1 CALLDATASIZE SWAP1 PUSH1 0x4 ADD PUSH2 0x2BDF JUMP JUMPDEST PUSH1 0x24 CALLDATALOAD PUSH1 0x1 PUSH1 0x1 PUSH1 0x40 SHL SUB DUP2 GT PUSH2 0x4BF JUMPI PUSH2 0x158A SWAP1 CALLDATASIZE SWAP1 PUSH1 0x4 ADD PUSH2 0x2BDF JUMP JUMPDEST PUSH1 0x64 CALLDATALOAD SWAP2 PUSH1 0x44 CALLDATALOAD PUSH1 0x84 CALLDATALOAD PUSH1 0x1 PUSH1 0x1 PUSH1 0x40 SHL SUB DUP2 GT PUSH2 0x1804 JUMPI PUSH2 0x15B0 SWAP1 CALLDATASIZE SWAP1 PUSH1 0x4 ADD PUSH2 0x2BDF JUMP JUMPDEST SWAP4 PUSH1 0xA4 CALLDATALOAD PUSH1 0x1 PUSH1 0x1 PUSH1 0x40 SHL SUB DUP2 GT PUSH2 0x1800 JUMPI PUSH2 0x15D0 SWAP1 CALLDATASIZE SWAP1 PUSH1 0x4 ADD PUSH2 0x2BDF JUMP JUMPDEST SWAP5 PUSH1 0xC4 CALLDATALOAD PUSH1 0x1 PUSH1 0x1 PUSH1 0x40 SHL SUB DUP2 GT PUSH2 0x17FC JUMPI PUSH2 0x15F0 SWAP1 CALLDATASIZE SWAP1 PUSH1 0x4 ADD PUSH2 0x2BDF JUMP JUMPDEST SWAP1 PUSH1 0xE4 CALLDATALOAD PUSH1 0x1 PUSH1 0x1 PUSH1 0x40 SHL SUB DUP2 GT PUSH2 0x17F8 JUMPI PUSH2 0x1610 SWAP1 CALLDATASIZE SWAP1 PUSH1 0x4 ADD PUSH2 0x2BDF JUMP JUMPDEST PUSH2 0x104 CALLDATALOAD PUSH1 0x1 PUSH1 0x1 PUSH1 0x40 SHL SUB DUP2 GT PUSH2 0x17F4 JUMPI PUSH2 0x1630 SWAP1 CALLDATASIZE SWAP1 PUSH1 0x4 ADD PUSH2 0x2BDF JUMP JUMPDEST SWAP1 PUSH2 0x124 CALLDATALOAD PUSH1 0x1 PUSH1 0x1 PUSH1 0x40 SHL SUB DUP2 GT PUSH2 0x17F0 JUMPI PUSH2 0x1651 SWAP1 CALLDATASIZE SWAP1 PUSH1 0x4 ADD PUSH2 0x2BDF JUMP JUMPDEST SWAP4 CALLER DUP12 MSTORE PUSH1 0x5 PUSH1 0x20 MSTORE PUSH1 0xFF PUSH1 0x40 DUP13 KECCAK256 SLOAD AND PUSH1 0x4 DUP2 LT ISZERO PUSH2 0x17DC JUMPI PUSH1 0x3 EQ PUSH2 0x1677 SWAP1 PUSH2 0x2D4B JUMP JUMPDEST PUSH1 0x8 SLOAD SWAP10 PUSH2 0x1684 DUP12 PUSH2 0x2D26 JUMP JUMPDEST PUSH1 0x8 SSTORE DUP11 DUP13 MSTORE PUSH1 0x2 PUSH1 0x20 MSTORE DUP12 PUSH1 0x40 DUP2 KECCAK256 DUP13 DUP2 SSTORE PUSH1 0x5 DUP2 ADD PUSH1 0xFF NOT DUP2 SLOAD AND SWAP1 SSTORE PUSH1 0x2 DUP2 ADD PUSH1 0x1 PUSH1 0x1 PUSH1 0x60 SHL SUB PUSH1 0xA0 SHL DUP2 SLOAD AND SWAP1 SSTORE DUP2 PUSH1 0x3 DUP3 ADD SSTORE PUSH1 0x1 DUP2 ADD DUP1 SLOAD PUSH2 0x16CC SWAP1 PUSH2 0x2A73 JUMP JUMPDEST PUSH2 0x16D6 SWAP1 DUP3 PUSH2 0x300B JUMP JUMPDEST PUSH1 0x16 PUSH11 0x13DC195C985D1A5BDB985B PUSH1 0xAA SHL ADD SWAP1 SSTORE PUSH1 0x4 ADD DUP1 SLOAD PUSH2 0x16F8 SWAP1 PUSH2 0x2A73 JUMP JUMPDEST PUSH2 0x1702 SWAP1 DUP3 PUSH2 0x300B JUMP JUMPDEST SSTORE DUP11 DUP13 MSTORE PUSH1 0x3 PUSH1 0x20 MSTORE PUSH1 0x40 DUP13 KECCAK256 SWAP5 PUSH2 0x171A DUP11 DUP8 PUSH2 0x3035 JUMP JUMPDEST PUSH2 0x1727 DUP12 PUSH1 0x1 DUP9 ADD PUSH2 0x3035 JUMP JUMPDEST DUP9 PUSH1 0x2 DUP8 ADD SSTORE DUP8 PUSH1 0x3 DUP8 ADD SSTORE PUSH1 0x4 DUP7 ADD SWAP1 PUSH2 0x1741 SWAP2 PUSH2 0x3035 JUMP JUMPDEST PUSH2 0x174E SWAP1 PUSH1 0x5 DUP7 ADD PUSH2 0x3035 JUMP JUMPDEST PUSH2 0x175B SWAP1 PUSH1 0x6 DUP6 ADD PUSH2 0x3035 JUMP JUMPDEST PUSH2 0x1768 SWAP1 PUSH1 0x7 DUP5 ADD PUSH2 0x3035 JUMP JUMPDEST PUSH2 0x1775 SWAP1 PUSH1 0x8 DUP4 ADD PUSH2 0x3035 JUMP JUMPDEST PUSH1 0x9 ADD SWAP1 PUSH2 0x1782 SWAP2 PUSH2 0x3035 JUMP JUMPDEST PUSH1 0x40 MLOAD SWAP4 DUP5 SWAP4 PUSH1 0x80 DUP6 MSTORE PUSH1 0x80 DUP6 ADD PUSH2 0x1799 SWAP2 PUSH2 0x2B9E JUMP JUMPDEST DUP5 DUP2 SUB PUSH1 0x20 DUP7 ADD MSTORE PUSH2 0x17AA SWAP2 PUSH2 0x2B9E JUMP JUMPDEST SWAP2 PUSH1 0x40 DUP5 ADD MSTORE PUSH1 0x60 DUP4 ADD MSTORE SUB PUSH32 0xE0CD58617305237ED8EC3ECED504E683E4100C101533304D423AB96F94EDD107 SWAP2 LOG2 DUP1 RETURN JUMPDEST PUSH4 0x4E487B71 PUSH1 0xE0 SHL DUP13 MSTORE PUSH1 0x21 PUSH1 0x4 MSTORE PUSH1 0x24 DUP13 REVERT JUMPDEST DUP11 DUP1 REVERT JUMPDEST DUP10 DUP1 REVERT JUMPDEST DUP9 DUP1 REVERT JUMPDEST DUP8 DUP1 REVERT JUMPDEST DUP7 DUP1 REVERT JUMPDEST DUP6 DUP1 REVERT JUMPDEST POP DUP1 REVERT JUMPDEST POP CALLVALUE PUSH2 0x266 JUMPI PUSH1 0x40 CALLDATASIZE PUSH1 0x3 NOT ADD SLT PUSH2 0x266 JUMPI PUSH1 0x24 CALLDATALOAD PUSH1 0x4 CALLDATALOAD PUSH1 0x1 PUSH1 0x1 PUSH1 0x40 SHL SUB DUP3 GT PUSH2 0x4BF JUMPI CALLDATASIZE PUSH1 0x23 DUP4 ADD SLT ISZERO PUSH2 0x4BF JUMPI DUP2 PUSH1 0x4 ADD CALLDATALOAD PUSH1 0x1 PUSH1 0x1 PUSH1 0x40 SHL SUB DUP2 GT PUSH2 0x1A4B JUMPI CALLDATASIZE PUSH1 0x24 DUP3 DUP6 ADD ADD GT PUSH2 0x1A4B JUMPI CALLER DUP5 MSTORE PUSH1 0x5 PUSH1 0x20 MSTORE PUSH1 0xFF PUSH1 0x40 DUP6 KECCAK256 SLOAD AND PUSH1 0x4 DUP2 LT ISZERO PUSH2 0x1A37 JUMPI PUSH1 0x3 PUSH2 0x1881 SWAP2 EQ PUSH2 0x2D4B JUMP JUMPDEST PUSH2 0x188E PUSH1 0x8 SLOAD DUP4 LT PUSH2 0x2EF0 JUMP JUMPDEST DUP2 DUP5 MSTORE PUSH1 0x2 PUSH1 0x20 MSTORE PUSH2 0x18AA PUSH1 0xFF PUSH1 0x5 PUSH1 0x40 DUP8 KECCAK256 ADD SLOAD AND ISZERO PUSH2 0x2F33 JUMP JUMPDEST DUP2 DUP5 MSTORE PUSH1 0x2 PUSH1 0x20 MSTORE PUSH2 0x18EA PUSH2 0x541 PUSH2 0x18CE PUSH1 0x1 PUSH1 0x40 DUP9 KECCAK256 ADD PUSH1 0x40 MLOAD SWAP3 DUP4 DUP1 SWAP3 PUSH2 0x2AAD JUMP JUMPDEST PUSH1 0x20 DUP2 MLOAD SWAP2 ADD KECCAK256 PUSH2 0x18DD PUSH2 0x2F72 JUMP JUMPDEST PUSH1 0x20 DUP2 MLOAD SWAP2 ADD KECCAK256 EQ PUSH2 0x2F96 JUMP JUMPDEST DUP2 DUP5 MSTORE PUSH1 0xE PUSH1 0x20 MSTORE PUSH1 0x40 DUP5 KECCAK256 SLOAD PUSH1 0x1 PUSH1 0x1 PUSH1 0xA0 SHL SUB AND DUP1 ISZERO PUSH2 0x19E6 JUMPI DUP1 DUP6 MSTORE PUSH1 0xD PUSH1 0x20 MSTORE PUSH1 0x40 DUP6 KECCAK256 DUP1 SLOAD SWAP1 PUSH1 0x1 DUP3 ADD DUP1 SWAP3 GT PUSH2 0x19D2 JUMPI SWAP2 PUSH1 0x80 SWAP4 SWAP2 PUSH32 0xCA87316D6CD5F7F3BEA802699DE01643403756C26311D916D02C04A8302445FF SWAP7 SWAP6 SWAP4 SSTORE DUP3 DUP8 MSTORE PUSH1 0x2 PUSH1 0x20 MSTORE PUSH1 0x1 PUSH1 0x40 DUP9 KECCAK256 ADD PUSH2 0x1966 PUSH2 0x59F DUP3 SLOAD PUSH2 0x2A73 JUMP JUMPDEST PUSH1 0x16 PUSH11 0x13DC195C985D1A5BDB985B PUSH1 0xAA SHL ADD SWAP1 SSTORE DUP3 DUP8 MSTORE PUSH1 0x2 PUSH1 0x20 MSTORE DUP7 PUSH1 0x4 PUSH1 0x40 DUP3 KECCAK256 ADD PUSH2 0x1997 PUSH2 0x59F DUP3 SLOAD PUSH2 0x2A73 JUMP JUMPDEST SSTORE DUP2 PUSH1 0x24 PUSH1 0x40 MLOAD SWAP7 DUP8 SWAP6 DUP7 MSTORE PUSH1 0x60 PUSH1 0x20 DUP8 ADD MSTORE DUP3 PUSH1 0x60 DUP8 ADD MSTORE ADD DUP6 DUP6 ADD CALLDATACOPY DUP3 DUP3 ADD DUP5 ADD DUP8 SWAP1 MSTORE PUSH1 0x40 DUP4 ADD MSTORE PUSH1 0x1F ADD PUSH1 0x1F NOT AND DUP2 ADD SUB ADD SWAP1 LOG1 DUP1 RETURN JUMPDEST PUSH4 0x4E487B71 PUSH1 0xE0 SHL DUP8 MSTORE PUSH1 0x11 PUSH1 0x4 MSTORE PUSH1 0x24 DUP8 REVERT JUMPDEST PUSH1 0x40 MLOAD PUSH3 0x461BCD PUSH1 0xE5 SHL DUP2 MSTORE PUSH1 0x20 PUSH1 0x4 DUP3 ADD MSTORE PUSH1 0x23 PUSH1 0x24 DUP3 ADD MSTORE PUSH32 0x4E6F207265636F72646564207265706F7274657220666F722074686973206661 PUSH1 0x44 DUP3 ADD MSTORE PUSH3 0x1D5B1D PUSH1 0xEA SHL PUSH1 0x64 DUP3 ADD MSTORE PUSH1 0x84 SWAP1 REVERT JUMPDEST PUSH4 0x4E487B71 PUSH1 0xE0 SHL DUP6 MSTORE PUSH1 0x21 PUSH1 0x4 MSTORE PUSH1 0x24 DUP6 REVERT JUMPDEST DUP4 DUP1 REVERT JUMPDEST POP CALLVALUE PUSH2 0x266 JUMPI PUSH1 0x20 CALLDATASIZE PUSH1 0x3 NOT ADD SLT PUSH2 0x266 JUMPI PUSH2 0x243 SWAP1 PUSH1 0xFF SWAP1 PUSH1 0x40 SWAP1 PUSH1 0x1 PUSH1 0x1 PUSH1 0xA0 SHL SUB PUSH2 0x1A7B PUSH2 0x29B5 JUMP JUMPDEST AND DUP2 MSTORE PUSH1 0x5 PUSH1 0x20 MSTORE KECCAK256 SLOAD AND PUSH1 0x40 MLOAD SWAP2 DUP3 SWAP2 DUP3 PUSH2 0x2A4A JUMP JUMPDEST POP CALLVALUE PUSH2 0x266 JUMPI PUSH2 0x1AA1 CALLDATASIZE PUSH2 0x2C35 JUMP JUMPDEST CALLER DUP4 MSTORE PUSH1 0x5 PUSH1 0x20 MSTORE PUSH1 0xFF PUSH1 0x40 DUP5 KECCAK256 SLOAD AND PUSH1 0x4 DUP2 LT ISZERO PUSH2 0x8A2 JUMPI SWAP1 PUSH2 0x1ACA PUSH1 0x2 PUSH2 0x44A SWAP4 EQ PUSH2 0x2E88 JUMP JUMPDEST PUSH2 0x1AD7 PUSH1 0x8 SLOAD DUP5 LT PUSH2 0x2EF0 JUMP JUMPDEST DUP3 DUP5 MSTORE PUSH1 0x2 PUSH1 0x20 MSTORE PUSH2 0x1AF3 PUSH1 0xFF PUSH1 0x5 PUSH1 0x40 DUP8 KECCAK256 ADD SLOAD AND ISZERO PUSH2 0x2F33 JUMP JUMPDEST DUP3 DUP5 MSTORE PUSH1 0x2 PUSH1 0x20 MSTORE PUSH2 0x1B17 PUSH2 0x541 PUSH2 0x18CE PUSH1 0x1 PUSH1 0x40 DUP9 KECCAK256 ADD PUSH1 0x40 MLOAD SWAP3 DUP4 DUP1 SWAP3 PUSH2 0x2AAD JUMP JUMPDEST DUP3 DUP5 MSTORE PUSH1 0x3 PUSH1 0x20 MSTORE PUSH2 0x1B35 PUSH1 0x9 PUSH1 0x40 DUP7 KECCAK256 ADD PUSH1 0x40 MLOAD SWAP4 DUP5 DUP1 SWAP3 PUSH2 0x2AAD JUMP JUMPDEST DUP3 DUP5 MSTORE PUSH1 0x4 PUSH1 0x20 MSTORE PUSH1 0x40 DUP5 KECCAK256 SWAP1 PUSH1 0x40 MLOAD SWAP2 PUSH2 0x1B4F DUP4 PUSH2 0x2B62 JUMP JUMPDEST TIMESTAMP DUP4 MSTORE PUSH1 0x20 DUP4 ADD SWAP4 DUP7 DUP6 MSTORE PUSH1 0x40 DUP5 ADD CALLER DUP2 MSTORE PUSH1 0x60 DUP6 ADD SWAP2 DUP3 MSTORE PUSH1 0x20 SWAP6 PUSH1 0x40 MLOAD SWAP4 PUSH2 0x1B79 DUP9 DUP7 PUSH2 0x2B7D JUMP JUMPDEST DUP10 DUP6 MSTORE PUSH1 0x80 DUP8 ADD SWAP5 DUP6 MSTORE PUSH1 0xA0 DUP8 ADD SWAP6 DUP7 MSTORE DUP1 SLOAD SWAP1 PUSH1 0x1 PUSH1 0x40 SHL DUP3 LT ISZERO PUSH2 0x1CD0 JUMPI SWAP1 PUSH2 0x1BA9 SWAP2 PUSH1 0x1 DUP3 ADD DUP2 SSTORE PUSH2 0x2C83 JUMP JUMPDEST SWAP7 SWAP1 SWAP7 PUSH2 0x1CBC JUMPI MLOAD DUP7 SSTORE MLOAD PUSH1 0x1 DUP7 ADD SSTORE MLOAD PUSH1 0x2 DUP6 ADD DUP1 SLOAD PUSH1 0x1 PUSH1 0x1 PUSH1 0xA0 SHL SUB NOT AND PUSH1 0x1 PUSH1 0x1 PUSH1 0xA0 SHL SUB SWAP3 SWAP1 SWAP3 AND SWAP2 SWAP1 SWAP2 OR SWAP1 SSTORE MLOAD PUSH32 0x12C6212A092000A772623F99ABFCA127C5C25C966686A610AAC238C570C8C921 SWAP5 SWAP4 PUSH2 0x1C2D SWAP4 SWAP1 SWAP3 PUSH1 0x5 SWAP3 PUSH2 0x1C25 SWAP2 SWAP1 PUSH2 0x1C1B SWAP1 PUSH1 0x3 DUP8 ADD PUSH2 0x3035 JUMP JUMPDEST MLOAD PUSH1 0x4 DUP6 ADD PUSH2 0x3035 JUMP JUMPDEST MLOAD SWAP2 ADD PUSH2 0x3035 JUMP JUMPDEST DUP3 DUP5 MSTORE PUSH1 0x2 DUP2 MSTORE PUSH1 0x1 PUSH1 0x40 DUP6 KECCAK256 ADD PUSH2 0x1C45 DUP2 SLOAD PUSH2 0x2A73 JUMP JUMPDEST PUSH1 0x1F DUP2 GT PUSH2 0x1C9E JUMPI JUMPDEST POP PUSH32 0x556E646572204D61696E74656E616E6365000000000000000000000000000022 SWAP1 SSTORE DUP3 DUP5 MSTORE PUSH1 0x2 DUP1 DUP3 MSTORE PUSH1 0x40 DUP1 DUP7 KECCAK256 SWAP1 SWAP2 ADD DUP1 SLOAD PUSH1 0x1 PUSH1 0x1 PUSH1 0xA0 SHL SUB NOT AND CALLER SWAP1 DUP2 OR SWAP1 SWAP2 SSTORE SWAP1 MLOAD SWAP1 DUP2 MSTORE LOG2 DUP1 RETURN JUMPDEST DUP2 DUP7 MSTORE DUP3 DUP7 KECCAK256 PUSH2 0x1CB6 SWAP2 PUSH1 0x1F ADD PUSH1 0x5 SHR DUP2 ADD SWAP1 PUSH2 0x2FF4 JUMP JUMPDEST CODESIZE PUSH2 0x1C4E JUMP JUMPDEST PUSH4 0x4E487B71 PUSH1 0xE0 SHL DUP11 MSTORE PUSH1 0x4 DUP11 SWAP1 MSTORE PUSH1 0x24 DUP11 REVERT JUMPDEST PUSH4 0x4E487B71 PUSH1 0xE0 SHL DUP12 MSTORE PUSH1 0x41 PUSH1 0x4 MSTORE PUSH1 0x24 DUP12 REVERT JUMPDEST POP CALLVALUE PUSH2 0x266 JUMPI PUSH2 0x1CF3 CALLDATASIZE PUSH2 0x29D0 JUMP JUMPDEST SWAP1 DUP3 MSTORE PUSH1 0xC PUSH1 0x20 MSTORE PUSH1 0x40 DUP3 KECCAK256 SWAP1 DUP2 SLOAD DUP2 LT ISZERO PUSH2 0x4BF JUMPI PUSH2 0x1D12 SWAP2 PUSH2 0x2A32 JUMP JUMPDEST SWAP2 SWAP1 SWAP2 PUSH2 0x1D2E JUMPI PUSH1 0x40 MLOAD PUSH2 0x243 SWAP1 PUSH2 0x1357 DUP2 PUSH2 0x541 DUP2 DUP8 PUSH2 0x2AAD JUMP JUMPDEST PUSH4 0x4E487B71 PUSH1 0xE0 SHL DUP2 MSTORE PUSH1 0x4 DUP2 SWAP1 MSTORE PUSH1 0x24 SWAP1 REVERT JUMPDEST POP CALLVALUE PUSH2 0x266 JUMPI PUSH1 0x20 CALLDATASIZE PUSH1 0x3 NOT ADD SLT PUSH2 0x266 JUMPI PUSH1 0x4 CALLDATALOAD DUP2 MSTORE PUSH1 0x4 PUSH1 0x20 MSTORE PUSH1 0x40 DUP2 KECCAK256 DUP1 SLOAD PUSH2 0x1D6D DUP2 PUSH2 0x2C9F JUMP JUMPDEST SWAP1 PUSH2 0x1D7B PUSH1 0x40 MLOAD SWAP3 DUP4 PUSH2 0x2B7D JUMP JUMPDEST DUP1 DUP3 MSTORE PUSH1 0x20 DUP3 ADD DUP1 SWAP4 DUP6 MSTORE PUSH1 0x20 DUP6 KECCAK256 DUP6 SWAP2 JUMPDEST DUP4 DUP4 LT PUSH2 0x1E53 JUMPI DUP7 DUP6 DUP8 PUSH1 0x40 MLOAD SWAP3 DUP4 SWAP3 PUSH1 0x20 DUP5 ADD SWAP1 PUSH1 0x20 DUP6 MSTORE MLOAD DUP1 SWAP2 MSTORE PUSH1 0x40 DUP5 ADD PUSH1 0x40 DUP3 PUSH1 0x5 SHL DUP7 ADD ADD SWAP4 SWAP3 SWAP1 JUMPDEST DUP3 DUP3 LT PUSH2 0x1DCA JUMPI POP POP POP POP SUB SWAP1 RETURN JUMPDEST SWAP2 SWAP4 PUSH1 0x1 SWAP2 SWAP4 SWAP6 POP PUSH1 0x20 PUSH2 0x1E43 DUP2 SWAP3 PUSH1 0x3F NOT DUP11 DUP3 SUB ADD DUP7 MSTORE DUP9 MLOAD SWAP1 DUP2 MLOAD DUP2 MSTORE DUP4 DUP3 ADD MLOAD DUP5 DUP3 ADD MSTORE DUP6 DUP1 PUSH1 0xA0 SHL SUB PUSH1 0x40 DUP4 ADD MLOAD AND PUSH1 0x40 DUP3 ADD MSTORE PUSH1 0xA0 PUSH2 0x1E32 PUSH2 0x1E20 PUSH1 0x60 DUP6 ADD MLOAD PUSH1 0xC0 PUSH1 0x60 DUP7 ADD MSTORE PUSH1 0xC0 DUP6 ADD SWAP1 PUSH2 0x2B9E JUMP JUMPDEST PUSH1 0x80 DUP6 ADD MLOAD DUP5 DUP3 SUB PUSH1 0x80 DUP7 ADD MSTORE PUSH2 0x2B9E JUMP JUMPDEST SWAP3 ADD MLOAD SWAP1 PUSH1 0xA0 DUP2 DUP5 SUB SWAP2 ADD MSTORE PUSH2 0x2B9E JUMP JUMPDEST SWAP7 ADD SWAP3 ADD SWAP3 ADD DUP6 SWAP5 SWAP4 SWAP2 SWAP3 PUSH2 0x1DBB JUMP JUMPDEST PUSH1 0x6 PUSH1 0x20 PUSH1 0x1 SWAP3 PUSH1 0x40 MLOAD PUSH2 0x1E66 DUP2 PUSH2 0x2B62 JUMP JUMPDEST DUP6 SLOAD DUP2 MSTORE DUP5 DUP7 ADD SLOAD DUP4 DUP3 ADD MSTORE DUP5 DUP1 PUSH1 0xA0 SHL SUB PUSH1 0x2 DUP8 ADD SLOAD AND PUSH1 0x40 DUP3 ADD MSTORE PUSH1 0x40 MLOAD PUSH2 0x1E97 DUP2 PUSH2 0x541 DUP2 PUSH1 0x3 DUP12 ADD PUSH2 0x2AAD JUMP JUMPDEST PUSH1 0x60 DUP3 ADD MSTORE PUSH1 0x40 MLOAD PUSH2 0x1EB0 DUP2 PUSH2 0x541 DUP2 PUSH1 0x4 DUP12 ADD PUSH2 0x2AAD JUMP JUMPDEST PUSH1 0x80 DUP3 ADD MSTORE PUSH1 0x40 MLOAD PUSH2 0x1EC9 DUP2 PUSH2 0x541 DUP2 PUSH1 0x5 DUP12 ADD PUSH2 0x2AAD JUMP JUMPDEST PUSH1 0xA0 DUP3 ADD MSTORE DUP2 MSTORE ADD SWAP3 ADD SWAP3 ADD SWAP2 SWAP1 PUSH2 0x1D8D JUMP JUMPDEST POP CALLVALUE PUSH2 0x266 JUMPI PUSH1 0x20 CALLDATASIZE PUSH1 0x3 NOT ADD SLT PUSH2 0x266 JUMPI PUSH1 0x20 SWAP1 PUSH1 0xFF SWAP1 PUSH1 0x40 SWAP1 PUSH1 0x1 PUSH1 0x1 PUSH1 0xA0 SHL SUB PUSH2 0x1F07 PUSH2 0x29B5 JUMP JUMPDEST AND DUP2 MSTORE PUSH1 0x6 DUP5 MSTORE KECCAK256 SLOAD AND PUSH1 0x40 MLOAD SWAP1 ISZERO ISZERO DUP2 MSTORE RETURN JUMPDEST POP CALLVALUE PUSH2 0x266 JUMPI PUSH1 0x20 CALLDATASIZE PUSH1 0x3 NOT ADD SLT PUSH2 0x266 JUMPI PUSH1 0x4 CALLDATALOAD DUP2 MSTORE PUSH1 0x3 PUSH1 0x20 MSTORE PUSH1 0x40 SWAP1 KECCAK256 PUSH1 0x40 MLOAD DUP1 PUSH2 0x1F49 DUP2 DUP5 PUSH2 0x2AAD JUMP JUMPDEST SUB PUSH2 0x1F54 SWAP1 DUP3 PUSH2 0x2B7D JUMP JUMPDEST PUSH1 0x40 MLOAD SWAP2 DUP3 PUSH2 0x1F66 DUP2 PUSH1 0x1 DUP5 ADD PUSH2 0x2AAD JUMP JUMPDEST SUB PUSH2 0x1F71 SWAP1 DUP5 PUSH2 0x2B7D JUMP JUMPDEST PUSH1 0x2 DUP2 ADD SLOAD PUSH1 0x3 DUP3 ADD SLOAD SWAP1 PUSH1 0x40 MLOAD DUP1 DUP1 PUSH1 0x4 DUP7 ADD SWAP1 PUSH2 0x1F8F SWAP2 PUSH2 0x2AAD JUMP JUMPDEST SUB PUSH2 0x1F9A SWAP1 DUP3 PUSH2 0x2B7D JUMP JUMPDEST PUSH1 0x40 MLOAD DUP1 PUSH2 0x1FAB DUP2 PUSH1 0x5 DUP9 ADD PUSH2 0x2AAD JUMP JUMPDEST SUB PUSH2 0x1FB6 SWAP1 DUP3 PUSH2 0x2B7D JUMP JUMPDEST PUSH1 0x40 MLOAD SWAP2 DUP3 PUSH2 0x1FC8 DUP2 PUSH1 0x6 DUP10 ADD PUSH2 0x2AAD JUMP JUMPDEST SUB PUSH2 0x1FD3 SWAP1 DUP5 PUSH2 0x2B7D JUMP JUMPDEST PUSH1 0x40 MLOAD SWAP4 DUP5 PUSH2 0x1FE5 DUP2 PUSH1 0x7 DUP11 ADD PUSH2 0x2AAD JUMP JUMPDEST SUB PUSH2 0x1FF0 SWAP1 DUP7 PUSH2 0x2B7D JUMP JUMPDEST PUSH1 0x40 MLOAD SWAP6 DUP7 PUSH2 0x2002 DUP2 PUSH1 0x8 DUP12 ADD PUSH2 0x2AAD JUMP JUMPDEST SUB PUSH2 0x200D SWAP1 DUP9 PUSH2 0x2B7D JUMP JUMPDEST PUSH1 0x40 MLOAD DUP1 PUSH1 0x9 DUP2 SWAP11 ADD SWAP1 PUSH2 0x2020 SWAP2 PUSH2 0x2AAD JUMP JUMPDEST SUB PUSH2 0x202B SWAP1 DUP10 PUSH2 0x2B7D JUMP JUMPDEST PUSH1 0x40 MLOAD SWAP10 DUP11 SWAP10 PUSH2 0x140 DUP12 MSTORE PUSH2 0x140 DUP12 ADD PUSH2 0x2044 SWAP2 PUSH2 0x2B9E JUMP JUMPDEST DUP11 DUP2 SUB PUSH1 0x20 DUP13 ADD MSTORE PUSH2 0x2055 SWAP2 PUSH2 0x2B9E JUMP JUMPDEST SWAP2 PUSH1 0x40 DUP11 ADD MSTORE PUSH1 0x60 DUP10 ADD MSTORE DUP8 DUP2 SUB PUSH1 0x80 DUP10 ADD MSTORE PUSH2 0x2071 SWAP2 PUSH2 0x2B9E JUMP JUMPDEST DUP7 DUP2 SUB PUSH1 0xA0 DUP9 ADD MSTORE PUSH2 0x2082 SWAP2 PUSH2 0x2B9E JUMP JUMPDEST DUP6 DUP2 SUB PUSH1 0xC0 DUP8 ADD MSTORE PUSH2 0x2093 SWAP2 PUSH2 0x2B9E JUMP JUMPDEST DUP5 DUP2 SUB PUSH1 0xE0 DUP7 ADD MSTORE PUSH2 0x20A4 SWAP2 PUSH2 0x2B9E JUMP JUMPDEST DUP4 DUP2 SUB PUSH2 0x100 DUP6 ADD MSTORE PUSH2 0x20B6 SWAP2 PUSH2 0x2B9E JUMP JUMPDEST DUP3 DUP2 SUB PUSH2 0x120 DUP5 ADD MSTORE PUSH2 0x243 SWAP2 PUSH2 0x2B9E JUMP JUMPDEST POP CALLVALUE PUSH2 0x266 JUMPI PUSH1 0x20 CALLDATASIZE PUSH1 0x3 NOT ADD SLT PUSH2 0x266 JUMPI PUSH2 0x20E2 PUSH2 0x29B5 JUMP JUMPDEST CALLER DUP3 MSTORE PUSH1 0x5 PUSH1 0x20 MSTORE PUSH1 0xFF PUSH1 0x40 DUP4 KECCAK256 SLOAD AND PUSH1 0x4 DUP2 LT ISZERO PUSH2 0xB79 JUMPI PUSH1 0x3 PUSH2 0x2107 SWAP2 EQ PUSH2 0x2D4B JUMP JUMPDEST PUSH1 0x1 PUSH1 0x1 PUSH1 0xA0 SHL SUB AND DUP1 DUP3 MSTORE PUSH1 0xA PUSH1 0x20 MSTORE PUSH1 0x40 DUP3 KECCAK256 SLOAD PUSH2 0x2129 SWAP1 PUSH1 0xFF AND PUSH2 0x2E4E JUMP JUMPDEST DUP1 DUP3 MSTORE PUSH1 0xA PUSH1 0x20 MSTORE PUSH1 0x40 DUP3 KECCAK256 DUP1 SLOAD PUSH1 0xFF NOT AND SWAP1 SSTORE DUP2 JUMPDEST PUSH1 0xB SLOAD DUP1 DUP3 LT ISZERO PUSH2 0x21C6 JUMPI DUP3 PUSH2 0x2154 DUP4 PUSH2 0x2A17 JUMP JUMPDEST SWAP1 SLOAD PUSH1 0x3 SWAP2 SWAP1 SWAP2 SHL SHR PUSH1 0x1 PUSH1 0x1 PUSH1 0xA0 SHL SUB AND EQ PUSH2 0x2174 JUMPI POP PUSH1 0x1 ADD PUSH2 0x213F JUMP JUMPDEST PUSH1 0x0 NOT DUP2 ADD SWAP1 DUP2 GT PUSH2 0x1185 JUMPI SWAP2 PUSH2 0x21B4 PUSH1 0x20 SWAP3 PUSH2 0xA9A PUSH2 0xA82 PUSH32 0xA86AB5EAFC988F5B42BA604CDC3A37D9ABE90AC4C02F44AAD2FF13F3DEA10B18 SWAP7 PUSH2 0x2A17 JUMP JUMPDEST PUSH2 0x21BC PUSH2 0x2E2E JUMP JUMPDEST PUSH1 0x40 MLOAD SWAP1 DUP2 MSTORE LOG1 DUP1 RETURN JUMPDEST POP POP PUSH1 0x20 PUSH32 0xA86AB5EAFC988F5B42BA604CDC3A37D9ABE90AC4C02F44AAD2FF13F3DEA10B18 SWAP2 PUSH2 0x21BC JUMP JUMPDEST POP CALLVALUE PUSH2 0x266 JUMPI PUSH1 0x80 CALLDATASIZE PUSH1 0x3 NOT ADD SLT PUSH2 0x266 JUMPI PUSH1 0x24 CALLDATALOAD PUSH1 0x44 CALLDATALOAD PUSH1 0x1 PUSH1 0x1 PUSH1 0xA0 SHL SUB DUP2 AND SWAP1 DUP2 DUP2 SUB PUSH2 0x1A4B JUMPI PUSH1 0x64 CALLDATALOAD CALLER DUP6 MSTORE PUSH1 0x5 PUSH1 0x20 MSTORE PUSH1 0xFF PUSH1 0x40 DUP7 KECCAK256 SLOAD AND PUSH1 0x4 DUP2 LT ISZERO PUSH2 0x2461 JUMPI PUSH1 0x3 PUSH2 0x2243 SWAP2 EQ PUSH2 0x2D4B JUMP JUMPDEST PUSH1 0x4 CALLDATALOAD DUP6 MSTORE PUSH1 0x1 PUSH1 0x20 MSTORE PUSH1 0x40 DUP6 KECCAK256 DUP1 SLOAD SWAP1 DUP2 ISZERO PUSH2 0x241D JUMPI PUSH1 0x0 NOT DUP3 ADD SWAP2 DUP3 GT PUSH2 0x19D2 JUMPI SWAP1 PUSH2 0x2270 SWAP2 PUSH2 0x2C67 JUMP JUMPDEST POP SWAP2 DUP3 SLOAD PUSH1 0xFF DUP2 AND DUP1 PUSH2 0x240E JUMPI JUMPDEST ISZERO PUSH2 0x23C9 JUMPI DUP7 SLOAD PUSH1 0x1 PUSH1 0x1 PUSH1 0xA0 SHL SUB AND SWAP1 DUP8 SWAP1 DUP3 EXTCODESIZE ISZERO PUSH2 0x1808 JUMPI PUSH1 0x40 MLOAD PUSH4 0x944C5A61 PUSH1 0xE0 SHL DUP2 MSTORE PUSH1 0x8 SWAP2 SWAP1 SWAP2 SHR PUSH1 0x1 PUSH1 0x1 PUSH1 0xA0 SHL SUB AND PUSH1 0x4 DUP3 ADD MSTORE PUSH1 0x24 DUP2 ADD DUP9 SWAP1 MSTORE SWAP2 DUP3 SWAP1 DUP2 DUP4 DUP2 PUSH1 0x44 DUP2 ADD SUB SWAP3 GAS CALL DUP1 ISZERO PUSH2 0x23BE JUMPI PUSH2 0x23AA JUMPI JUMPDEST POP DUP6 SWAP1 DUP5 ISZERO ISZERO DUP1 PUSH2 0x23A1 JUMPI JUMPDEST PUSH2 0x2311 JUMPI JUMPDEST POP DUP5 PUSH1 0x4 DUP5 PUSH1 0xFF NOT DUP2 SLOAD AND DUP2 SSTORE PUSH1 0x2 DUP2 ADD PUSH1 0x1 PUSH1 0xFF NOT DUP3 SLOAD AND OR SWAP1 SSTORE TIMESTAMP PUSH1 0x3 DUP3 ADD SSTORE ADD SSTORE DUP1 RETURN JUMPDEST DUP2 SLOAD PUSH1 0x1 PUSH1 0x1 PUSH1 0xA0 SHL SUB AND DUP1 EXTCODESIZE ISZERO PUSH2 0x4BF JUMPI PUSH1 0x40 MLOAD PUSH4 0x142F3FC5 PUSH1 0xE3 SHL DUP2 MSTORE PUSH1 0x1 PUSH1 0x1 PUSH1 0xA0 SHL SUB SWAP3 SWAP1 SWAP3 AND PUSH1 0x4 DUP4 ADD MSTORE PUSH1 0x24 DUP3 ADD DUP5 SWAP1 MSTORE DUP3 SWAP1 DUP3 SWAP1 PUSH1 0x44 SWAP1 DUP3 SWAP1 DUP5 SWAP1 GAS CALL DUP1 ISZERO PUSH2 0xB4D JUMPI PUSH2 0x2388 JUMPI JUMPDEST POP POP PUSH1 0x4 SWAP3 PUSH1 0x5 DUP4 ADD SWAP1 PUSH1 0x1 PUSH1 0x1 PUSH1 0x60 SHL SUB PUSH1 0xA0 SHL DUP3 SLOAD AND OR SWAP1 SSTORE PUSH1 0x6 DUP3 ADD SSTORE CODESIZE DUP5 DUP2 PUSH2 0x22EA JUMP JUMPDEST DUP2 PUSH2 0x2392 SWAP2 PUSH2 0x2B7D JUMP JUMPDEST PUSH2 0x239D JUMPI DUP5 CODESIZE PUSH2 0x2360 JUMP JUMPDEST DUP5 DUP1 REVERT JUMPDEST POP DUP3 ISZERO ISZERO PUSH2 0x22E5 JUMP JUMPDEST DUP7 PUSH2 0x23B7 SWAP2 SWAP8 SWAP3 SWAP8 PUSH2 0x2B7D JUMP JUMPDEST SWAP5 CODESIZE PUSH2 0x22D9 JUMP JUMPDEST PUSH1 0x40 MLOAD RETURNDATASIZE DUP10 DUP3 RETURNDATACOPY RETURNDATASIZE SWAP1 REVERT JUMPDEST PUSH1 0x40 MLOAD PUSH3 0x461BCD PUSH1 0xE5 SHL DUP2 MSTORE PUSH1 0x20 PUSH1 0x4 DUP3 ADD MSTORE PUSH1 0x19 PUSH1 0x24 DUP3 ADD MSTORE PUSH32 0x4E6F74207265616479206F7220616C7265616479207061696400000000000000 PUSH1 0x44 DUP3 ADD MSTORE PUSH1 0x64 SWAP1 REVERT JUMPDEST POP PUSH1 0xFF PUSH1 0x2 DUP6 ADD SLOAD AND ISZERO PUSH2 0x227E JUMP JUMPDEST PUSH1 0x64 PUSH1 0x40 MLOAD PUSH3 0x461BCD PUSH1 0xE5 SHL DUP2 MSTORE PUSH1 0x20 PUSH1 0x4 DUP3 ADD MSTORE PUSH1 0x20 PUSH1 0x24 DUP3 ADD MSTORE PUSH32 0x4E6F206D61696E74656E616E6365207265636F72647320666F72206173736574 PUSH1 0x44 DUP3 ADD MSTORE REVERT JUMPDEST PUSH4 0x4E487B71 PUSH1 0xE0 SHL DUP7 MSTORE PUSH1 0x21 PUSH1 0x4 MSTORE PUSH1 0x24 DUP7 REVERT JUMPDEST POP CALLVALUE PUSH2 0x266 JUMPI PUSH1 0x20 CALLDATASIZE PUSH1 0x3 NOT ADD SLT PUSH2 0x266 JUMPI PUSH1 0x4 CALLDATALOAD SWAP1 PUSH1 0x7 SLOAD DUP3 LT ISZERO PUSH2 0x266 JUMPI PUSH1 0x20 PUSH2 0x8E1 DUP4 PUSH2 0x29E6 JUMP JUMPDEST POP CALLVALUE PUSH2 0x266 JUMPI PUSH1 0x20 CALLDATASIZE PUSH1 0x3 NOT ADD SLT PUSH2 0x266 JUMPI PUSH2 0x24BA PUSH2 0x29B5 JUMP JUMPDEST CALLER DUP3 MSTORE PUSH1 0x5 PUSH1 0x20 MSTORE PUSH1 0xFF PUSH1 0x40 DUP4 KECCAK256 SLOAD AND PUSH1 0x4 DUP2 LT ISZERO PUSH2 0xB79 JUMPI PUSH1 0x3 PUSH2 0x24DF SWAP2 EQ PUSH2 0x2D4B JUMP JUMPDEST PUSH1 0x1 PUSH1 0x1 PUSH1 0xA0 SHL SUB AND DUP1 DUP3 MSTORE PUSH1 0x6 PUSH1 0x20 MSTORE PUSH1 0x40 DUP3 KECCAK256 SLOAD PUSH2 0x2501 SWAP1 PUSH1 0xFF AND PUSH2 0x2DA2 JUMP JUMPDEST DUP1 DUP3 MSTORE PUSH1 0x6 PUSH1 0x20 MSTORE PUSH1 0x40 DUP3 KECCAK256 DUP1 SLOAD PUSH1 0xFF NOT AND SWAP1 SSTORE DUP2 JUMPDEST PUSH1 0x7 SLOAD DUP1 DUP3 LT ISZERO PUSH2 0x2597 JUMPI DUP3 PUSH2 0x252C DUP4 PUSH2 0x29E6 JUMP JUMPDEST SWAP1 SLOAD PUSH1 0x3 SWAP2 SWAP1 SWAP2 SHL SHR PUSH1 0x1 PUSH1 0x1 PUSH1 0xA0 SHL SUB AND EQ PUSH2 0x254C JUMPI POP PUSH1 0x1 ADD PUSH2 0x2517 JUMP JUMPDEST PUSH1 0x0 NOT DUP2 ADD SWAP1 DUP2 GT PUSH2 0x1185 JUMPI SWAP1 PUSH2 0xA9A PUSH2 0x113E PUSH2 0x2568 SWAP4 PUSH2 0x29E6 JUMP JUMPDEST PUSH2 0x2570 PUSH2 0x2DE3 JUMP JUMPDEST PUSH32 0x78AD698BB9F005816005024A452272F61C8752170B72CAD46A47830DBA9E5ECE DUP3 DUP1 LOG2 DUP1 RETURN JUMPDEST POP POP PUSH2 0x2570 JUMP JUMPDEST POP CALLVALUE PUSH2 0x266 JUMPI PUSH2 0x2604 PUSH2 0x25FE PUSH2 0x100 SWAP3 PUSH1 0x40 PUSH2 0x25B9 CALLDATASIZE PUSH2 0x29D0 JUMP JUMPDEST SWAP3 SWAP1 DUP2 PUSH1 0xE0 DUP5 MLOAD PUSH2 0x25C9 DUP2 PUSH2 0x2B30 JUMP JUMPDEST DUP3 DUP2 MSTORE DUP3 PUSH1 0x20 DUP3 ADD MSTORE DUP3 DUP7 DUP3 ADD MSTORE DUP3 PUSH1 0x60 DUP3 ADD MSTORE DUP3 PUSH1 0x80 DUP3 ADD MSTORE DUP3 PUSH1 0xA0 DUP3 ADD MSTORE DUP3 PUSH1 0xC0 DUP3 ADD MSTORE ADD MSTORE DUP2 MSTORE PUSH1 0x1 PUSH1 0x20 MSTORE KECCAK256 PUSH2 0x2C67 JUMP JUMPDEST POP PUSH2 0x2CB6 JUMP JUMPDEST PUSH2 0x2611 PUSH1 0x40 MLOAD DUP1 SWAP3 PUSH2 0x2956 JUMP JUMPDEST RETURN JUMPDEST POP CALLVALUE PUSH2 0x266 JUMPI PUSH1 0x20 CALLDATASIZE PUSH1 0x3 NOT ADD SLT PUSH2 0x266 JUMPI PUSH1 0x40 PUSH1 0x20 SWAP2 PUSH1 0x4 CALLDATALOAD DUP2 MSTORE PUSH1 0x1 DUP4 MSTORE KECCAK256 SLOAD PUSH1 0x40 MLOAD SWAP1 DUP2 MSTORE RETURN JUMPDEST POP CALLVALUE PUSH2 0x266 JUMPI PUSH1 0x20 CALLDATASIZE PUSH1 0x3 NOT ADD SLT PUSH2 0x266 JUMPI PUSH2 0x2657 PUSH2 0x29B5 JUMP JUMPDEST PUSH1 0x8 SLOAD SWAP1 DUP3 SWAP1 PUSH1 0x1 PUSH1 0x1 PUSH1 0xA0 SHL SUB AND DUP2 JUMPDEST DUP4 DUP2 LT PUSH2 0x2778 JUMPI POP PUSH2 0x2692 PUSH2 0x267C DUP4 PUSH2 0x2C9F JUMP JUMPDEST SWAP3 PUSH2 0x268A PUSH1 0x40 MLOAD SWAP5 DUP6 PUSH2 0x2B7D JUMP JUMPDEST DUP1 DUP5 MSTORE PUSH2 0x2C9F JUMP JUMPDEST PUSH1 0x20 DUP4 ADD SWAP4 SWAP1 PUSH1 0x1F NOT ADD CALLDATASIZE DUP6 CALLDATACOPY DUP5 SWAP2 DUP6 JUMPDEST DUP3 DUP2 LT PUSH2 0x26EE JUMPI DUP7 DUP6 DUP8 PUSH1 0x40 MLOAD SWAP3 DUP4 SWAP3 PUSH1 0x20 DUP5 ADD SWAP1 PUSH1 0x20 DUP6 MSTORE MLOAD DUP1 SWAP2 MSTORE PUSH1 0x40 DUP5 ADD SWAP3 SWAP2 JUMPDEST DUP2 DUP2 LT PUSH2 0x26D5 JUMPI POP POP POP SUB SWAP1 RETURN JUMPDEST DUP3 MLOAD DUP5 MSTORE DUP6 SWAP5 POP PUSH1 0x20 SWAP4 DUP5 ADD SWAP4 SWAP1 SWAP3 ADD SWAP2 PUSH1 0x1 ADD PUSH2 0x26C7 JUMP JUMPDEST DUP1 DUP8 MSTORE PUSH1 0x1 PUSH1 0x20 MSTORE PUSH1 0x40 DUP8 KECCAK256 DUP1 SLOAD SWAP1 DUP9 JUMPDEST DUP3 DUP2 LT PUSH2 0x2712 JUMPI JUMPDEST POP POP POP PUSH1 0x1 ADD PUSH2 0x26A3 JUMP JUMPDEST DUP5 PUSH2 0x271D DUP3 DUP5 PUSH2 0x2C67 JUMP JUMPDEST POP SLOAD PUSH1 0x8 SHR PUSH1 0x1 PUSH1 0x1 PUSH1 0xA0 SHL SUB AND EQ PUSH2 0x2738 JUMPI PUSH1 0x1 ADD PUSH2 0x26FF JUMP JUMPDEST POP POP POP SWAP3 DUP5 MLOAD DUP2 LT ISZERO PUSH2 0x2764 JUMPI PUSH2 0x275B DUP2 DUP6 PUSH1 0x20 PUSH1 0x1 SWAP5 PUSH1 0x5 SHL DUP10 ADD ADD MSTORE PUSH2 0x2D26 JUMP JUMPDEST SWAP4 SWAP1 CODESIZE DUP1 PUSH2 0x2707 JUMP JUMPDEST PUSH4 0x4E487B71 PUSH1 0xE0 SHL DUP8 MSTORE PUSH1 0x32 PUSH1 0x4 MSTORE PUSH1 0x24 DUP8 REVERT JUMPDEST DUP1 DUP6 MSTORE PUSH1 0x1 PUSH1 0x20 MSTORE PUSH1 0x40 DUP6 KECCAK256 DUP1 SLOAD DUP7 JUMPDEST DUP2 DUP2 LT PUSH2 0x279B JUMPI JUMPDEST POP POP POP PUSH1 0x1 ADD PUSH2 0x2668 JUMP JUMPDEST DUP5 PUSH2 0x27A6 DUP3 DUP6 PUSH2 0x2C67 JUMP JUMPDEST POP SLOAD PUSH1 0x8 SHR PUSH1 0x1 PUSH1 0x1 PUSH1 0xA0 SHL SUB AND EQ PUSH2 0x27C1 JUMPI PUSH1 0x1 ADD PUSH2 0x2788 JUMP JUMPDEST POP POP POP SWAP2 PUSH2 0x27D0 PUSH1 0x1 SWAP2 PUSH2 0x2D26 JUMP JUMPDEST SWAP3 SWAP1 CODESIZE DUP1 PUSH2 0x2790 JUMP JUMPDEST POP CALLVALUE PUSH2 0x266 JUMPI PUSH1 0x20 CALLDATASIZE PUSH1 0x3 NOT ADD SLT PUSH2 0x266 JUMPI PUSH1 0x4 CALLDATALOAD DUP2 MSTORE PUSH1 0x1 PUSH1 0x20 MSTORE PUSH1 0x40 DUP2 KECCAK256 DUP1 SLOAD PUSH2 0x2804 DUP2 PUSH2 0x2C9F JUMP JUMPDEST SWAP1 PUSH2 0x2812 PUSH1 0x40 MLOAD SWAP3 DUP4 PUSH2 0x2B7D JUMP JUMPDEST DUP1 DUP3 MSTORE PUSH1 0x20 DUP3 ADD DUP1 SWAP4 DUP6 MSTORE PUSH1 0x20 DUP6 KECCAK256 DUP6 SWAP2 JUMPDEST DUP4 DUP4 LT PUSH2 0x287B JUMPI DUP7 DUP6 DUP8 PUSH1 0x40 MLOAD SWAP3 DUP4 SWAP3 PUSH1 0x20 DUP5 ADD SWAP1 PUSH1 0x20 DUP6 MSTORE MLOAD DUP1 SWAP2 MSTORE PUSH1 0x40 DUP5 ADD SWAP3 SWAP2 JUMPDEST DUP2 DUP2 LT PUSH2 0x2856 JUMPI POP POP POP SUB SWAP1 RETURN JUMPDEST SWAP2 SWAP4 POP SWAP2 PUSH1 0x20 PUSH2 0x100 DUP3 PUSH2 0x286D PUSH1 0x1 SWAP5 DUP9 MLOAD PUSH2 0x2956 JUMP JUMPDEST ADD SWAP5 ADD SWAP2 ADD SWAP2 DUP5 SWAP4 SWAP3 PUSH2 0x2848 JUMP JUMPDEST PUSH1 0x7 PUSH1 0x20 PUSH1 0x1 SWAP3 PUSH2 0x288B DUP6 PUSH2 0x2CB6 JUMP JUMPDEST DUP2 MSTORE ADD SWAP3 ADD SWAP3 ADD SWAP2 SWAP1 PUSH2 0x2824 JUMP JUMPDEST DUP3 CALLVALUE PUSH2 0x266 JUMPI DUP1 PUSH1 0x3 NOT CALLDATASIZE ADD SLT PUSH2 0x266 JUMPI PUSH1 0x7 SLOAD SWAP1 DUP2 DUP4 MSTORE PUSH1 0x20 DUP4 ADD SWAP2 PUSH1 0x7 DUP3 MSTORE PUSH32 0xA66CC928B5EDB82AF9BD49922954155AB7B0942694BEA4CE44661D9A8736C688 SWAP2 JUMPDEST DUP2 DUP2 LT PUSH2 0x28F4 JUMPI PUSH2 0x243 DUP6 PUSH2 0x237 DUP2 DUP8 SUB DUP3 PUSH2 0x2B7D JUMP JUMPDEST DUP3 SLOAD PUSH1 0x1 PUSH1 0x1 PUSH1 0xA0 SHL SUB AND DUP5 MSTORE PUSH1 0x20 SWAP1 SWAP4 ADD SWAP3 PUSH1 0x1 SWAP3 DUP4 ADD SWAP3 ADD PUSH2 0x28DD JUMP JUMPDEST PUSH1 0x20 PUSH1 0x40 DUP2 DUP4 ADD SWAP3 DUP3 DUP2 MSTORE DUP5 MLOAD DUP1 SWAP5 MSTORE ADD SWAP3 ADD SWAP1 PUSH1 0x0 JUMPDEST DUP2 DUP2 LT PUSH2 0x2937 JUMPI POP POP POP SWAP1 JUMP JUMPDEST DUP3 MLOAD PUSH1 0x1 PUSH1 0x1 PUSH1 0xA0 SHL SUB AND DUP5 MSTORE PUSH1 0x20 SWAP4 DUP5 ADD SWAP4 SWAP1 SWAP3 ADD SWAP2 PUSH1 0x1 ADD PUSH2 0x292A JUMP JUMPDEST PUSH1 0xE0 DUP1 SWAP2 DUP1 MLOAD ISZERO ISZERO DUP5 MSTORE PUSH1 0x1 DUP1 PUSH1 0xA0 SHL SUB PUSH1 0x20 DUP3 ADD MLOAD AND PUSH1 0x20 DUP6 ADD MSTORE PUSH1 0x40 DUP2 ADD MLOAD PUSH1 0x40 DUP6 ADD MSTORE PUSH1 0x60 DUP2 ADD MLOAD ISZERO ISZERO PUSH1 0x60 DUP6 ADD MSTORE PUSH1 0x80 DUP2 ADD MLOAD PUSH1 0x80 DUP6 ADD MSTORE PUSH1 0xA0 DUP2 ADD MLOAD PUSH1 0xA0 DUP6 ADD MSTORE PUSH1 0x1 DUP1 PUSH1 0xA0 SHL SUB PUSH1 0xC0 DUP3 ADD MLOAD AND PUSH1 0xC0 DUP6 ADD MSTORE ADD MLOAD SWAP2 ADD MSTORE JUMP JUMPDEST PUSH1 0x4 CALLDATALOAD SWAP1 PUSH1 0x1 PUSH1 0x1 PUSH1 0xA0 SHL SUB DUP3 AND DUP3 SUB PUSH2 0x29CB JUMPI JUMP JUMPDEST PUSH1 0x0 DUP1 REVERT JUMPDEST PUSH1 0x40 SWAP1 PUSH1 0x3 NOT ADD SLT PUSH2 0x29CB JUMPI PUSH1 0x4 CALLDATALOAD SWAP1 PUSH1 0x24 CALLDATALOAD SWAP1 JUMP JUMPDEST PUSH1 0x7 SLOAD DUP2 LT ISZERO PUSH2 0x2A01 JUMPI PUSH1 0x7 PUSH1 0x0 MSTORE PUSH1 0x20 PUSH1 0x0 KECCAK256 ADD SWAP1 PUSH1 0x0 SWAP1 JUMP JUMPDEST PUSH4 0x4E487B71 PUSH1 0xE0 SHL PUSH1 0x0 MSTORE PUSH1 0x32 PUSH1 0x4 MSTORE PUSH1 0x24 PUSH1 0x0 REVERT JUMPDEST PUSH1 0xB SLOAD DUP2 LT ISZERO PUSH2 0x2A01 JUMPI PUSH1 0xB PUSH1 0x0 MSTORE PUSH1 0x20 PUSH1 0x0 KECCAK256 ADD SWAP1 PUSH1 0x0 SWAP1 JUMP JUMPDEST DUP1 SLOAD DUP3 LT ISZERO PUSH2 0x2A01 JUMPI PUSH1 0x0 MSTORE PUSH1 0x20 PUSH1 0x0 KECCAK256 ADD SWAP1 PUSH1 0x0 SWAP1 JUMP JUMPDEST SWAP2 SWAP1 PUSH1 0x20 DUP4 ADD SWAP3 PUSH1 0x4 DUP3 LT ISZERO PUSH2 0x2A5D JUMPI MSTORE JUMP JUMPDEST PUSH4 0x4E487B71 PUSH1 0xE0 SHL PUSH1 0x0 MSTORE PUSH1 0x21 PUSH1 0x4 MSTORE PUSH1 0x24 PUSH1 0x0 REVERT JUMPDEST SWAP1 PUSH1 0x1 DUP3 DUP2 SHR SWAP3 AND DUP1 ISZERO PUSH2 0x2AA3 JUMPI JUMPDEST PUSH1 0x20 DUP4 LT EQ PUSH2 0x2A8D JUMPI JUMP JUMPDEST PUSH4 0x4E487B71 PUSH1 0xE0 SHL PUSH1 0x0 MSTORE PUSH1 0x22 PUSH1 0x4 MSTORE PUSH1 0x24 PUSH1 0x0 REVERT JUMPDEST SWAP2 PUSH1 0x7F AND SWAP2 PUSH2 0x2A82 JUMP JUMPDEST PUSH1 0x0 SWAP3 SWAP2 DUP2 SLOAD SWAP2 PUSH2 0x2ABD DUP4 PUSH2 0x2A73 JUMP JUMPDEST DUP1 DUP4 MSTORE SWAP3 PUSH1 0x1 DUP2 AND SWAP1 DUP2 ISZERO PUSH2 0x2B13 JUMPI POP PUSH1 0x1 EQ PUSH2 0x2AD9 JUMPI POP POP POP JUMP JUMPDEST PUSH1 0x0 SWAP1 DUP2 MSTORE PUSH1 0x20 DUP2 KECCAK256 SWAP4 SWAP5 POP SWAP2 SWAP3 JUMPDEST DUP4 DUP4 LT PUSH2 0x2AF9 JUMPI POP PUSH1 0x20 SWAP3 POP ADD ADD SWAP1 JUMP JUMPDEST PUSH1 0x1 DUP2 PUSH1 0x20 SWAP3 SWAP5 SWAP4 SWAP5 SLOAD DUP4 DUP6 DUP8 ADD ADD MSTORE ADD SWAP2 ADD SWAP2 SWAP1 PUSH2 0x2AE8 JUMP JUMPDEST SWAP2 POP POP PUSH1 0x20 SWAP4 SWAP5 POP PUSH1 0xFF SWAP3 SWAP2 SWAP3 NOT AND DUP4 DUP4 ADD MSTORE ISZERO ISZERO PUSH1 0x5 SHL ADD ADD SWAP1 JUMP JUMPDEST PUSH2 0x100 DUP2 ADD SWAP1 DUP2 LT PUSH1 0x1 PUSH1 0x1 PUSH1 0x40 SHL SUB DUP3 GT OR PUSH2 0x2B4C JUMPI PUSH1 0x40 MSTORE JUMP JUMPDEST PUSH4 0x4E487B71 PUSH1 0xE0 SHL PUSH1 0x0 MSTORE PUSH1 0x41 PUSH1 0x4 MSTORE PUSH1 0x24 PUSH1 0x0 REVERT JUMPDEST PUSH1 0xC0 DUP2 ADD SWAP1 DUP2 LT PUSH1 0x1 PUSH1 0x1 PUSH1 0x40 SHL SUB DUP3 GT OR PUSH2 0x2B4C JUMPI PUSH1 0x40 MSTORE JUMP JUMPDEST SWAP1 PUSH1 0x1F DUP1 NOT SWAP2 ADD AND DUP2 ADD SWAP1 DUP2 LT PUSH1 0x1 PUSH1 0x1 PUSH1 0x40 SHL SUB DUP3 GT OR PUSH2 0x2B4C JUMPI PUSH1 0x40 MSTORE JUMP JUMPDEST SWAP2 SWAP1 DUP3 MLOAD SWAP3 DUP4 DUP3 MSTORE PUSH1 0x0 JUMPDEST DUP5 DUP2 LT PUSH2 0x2BCA JUMPI POP POP DUP3 PUSH1 0x0 PUSH1 0x20 DUP1 SWAP5 SWAP6 DUP5 ADD ADD MSTORE PUSH1 0x1F DUP1 NOT SWAP2 ADD AND ADD ADD SWAP1 JUMP JUMPDEST DUP1 PUSH1 0x20 DUP1 SWAP3 DUP5 ADD ADD MLOAD DUP3 DUP3 DUP7 ADD ADD MSTORE ADD PUSH2 0x2BA9 JUMP JUMPDEST DUP2 PUSH1 0x1F DUP3 ADD SLT ISZERO PUSH2 0x29CB JUMPI DUP1 CALLDATALOAD SWAP1 PUSH1 0x1 PUSH1 0x1 PUSH1 0x40 SHL SUB DUP3 GT PUSH2 0x2B4C JUMPI PUSH1 0x40 MLOAD SWAP3 PUSH2 0x2C13 PUSH1 0x1F DUP5 ADD PUSH1 0x1F NOT AND PUSH1 0x20 ADD DUP6 PUSH2 0x2B7D JUMP JUMPDEST DUP3 DUP5 MSTORE PUSH1 0x20 DUP4 DUP4 ADD ADD GT PUSH2 0x29CB JUMPI DUP2 PUSH1 0x0 SWAP3 PUSH1 0x20 DUP1 SWAP4 ADD DUP4 DUP7 ADD CALLDATACOPY DUP4 ADD ADD MSTORE SWAP1 JUMP JUMPDEST SWAP1 PUSH1 0x40 PUSH1 0x3 NOT DUP4 ADD SLT PUSH2 0x29CB JUMPI PUSH1 0x4 CALLDATALOAD SWAP2 PUSH1 0x24 CALLDATALOAD SWAP1 PUSH1 0x1 PUSH1 0x1 PUSH1 0x40 SHL SUB DUP3 GT PUSH2 0x29CB JUMPI PUSH2 0x2C64 SWAP2 PUSH1 0x4 ADD PUSH2 0x2BDF JUMP JUMPDEST SWAP1 JUMP JUMPDEST DUP1 SLOAD DUP3 LT ISZERO PUSH2 0x2A01 JUMPI PUSH1 0x0 MSTORE PUSH1 0x7 PUSH1 0x20 PUSH1 0x0 KECCAK256 SWAP2 MUL ADD SWAP1 PUSH1 0x0 SWAP1 JUMP JUMPDEST DUP1 SLOAD DUP3 LT ISZERO PUSH2 0x2A01 JUMPI PUSH1 0x0 MSTORE PUSH1 0x6 PUSH1 0x20 PUSH1 0x0 KECCAK256 SWAP2 MUL ADD SWAP1 PUSH1 0x0 SWAP1 JUMP JUMPDEST PUSH1 0x1 PUSH1 0x1 PUSH1 0x40 SHL SUB DUP2 GT PUSH2 0x2B4C JUMPI PUSH1 0x5 SHL PUSH1 0x20 ADD SWAP1 JUMP JUMPDEST SWAP1 PUSH1 0x40 MLOAD PUSH2 0x2CC3 DUP2 PUSH2 0x2B30 JUMP JUMPDEST DUP3 SLOAD PUSH1 0xFF DUP1 DUP3 AND ISZERO ISZERO DUP4 MSTORE PUSH1 0x1 PUSH1 0x1 PUSH1 0xA0 SHL SUB PUSH1 0x8 SWAP3 SWAP1 SWAP3 SHR DUP3 AND PUSH1 0x20 DUP5 ADD MSTORE PUSH1 0x1 DUP6 ADD SLOAD PUSH1 0x40 DUP5 ADD MSTORE PUSH1 0x2 DUP6 ADD SLOAD AND ISZERO ISZERO PUSH1 0x60 DUP4 ADD MSTORE PUSH1 0x3 DUP5 ADD SLOAD PUSH1 0x80 DUP4 ADD MSTORE PUSH1 0x4 DUP5 ADD SLOAD PUSH1 0xA0 DUP4 ADD MSTORE PUSH1 0x5 DUP5 ADD SLOAD AND PUSH1 0xC0 DUP3 ADD MSTORE PUSH1 0x6 SWAP1 SWAP3 ADD SLOAD PUSH1 0xE0 DUP4 ADD MSTORE JUMP JUMPDEST PUSH1 0x0 NOT DUP2 EQ PUSH2 0x2D35 JUMPI PUSH1 0x1 ADD SWAP1 JUMP JUMPDEST PUSH4 0x4E487B71 PUSH1 0xE0 SHL PUSH1 0x0 MSTORE PUSH1 0x11 PUSH1 0x4 MSTORE PUSH1 0x24 PUSH1 0x0 REVERT JUMPDEST ISZERO PUSH2 0x2D52 JUMPI JUMP JUMPDEST PUSH1 0x40 MLOAD PUSH3 0x461BCD PUSH1 0xE5 SHL DUP2 MSTORE PUSH1 0x20 PUSH1 0x4 DUP3 ADD MSTORE PUSH1 0x22 PUSH1 0x24 DUP3 ADD MSTORE PUSH32 0x4F6E6C792041646D696E2063616E20706572666F726D20746869732061637469 PUSH1 0x44 DUP3 ADD MSTORE PUSH2 0x37B7 PUSH1 0xF1 SHL PUSH1 0x64 DUP3 ADD MSTORE PUSH1 0x84 SWAP1 REVERT JUMPDEST ISZERO PUSH2 0x2DA9 JUMPI JUMP JUMPDEST PUSH1 0x40 MLOAD PUSH3 0x461BCD PUSH1 0xE5 SHL DUP2 MSTORE PUSH1 0x20 PUSH1 0x4 DUP3 ADD MSTORE PUSH1 0x12 PUSH1 0x24 DUP3 ADD MSTORE PUSH18 0x139BC81C195B991A5B99C81C995C5D595CDD PUSH1 0x72 SHL PUSH1 0x44 DUP3 ADD MSTORE PUSH1 0x64 SWAP1 REVERT JUMPDEST PUSH1 0x7 SLOAD DUP1 ISZERO PUSH2 0x2E18 JUMPI PUSH1 0x0 NOT ADD PUSH2 0x2E13 PUSH2 0x2DFE DUP3 PUSH1 0x7 PUSH2 0x2A32 JUMP JUMPDEST DUP2 SLOAD SWAP1 PUSH1 0x1 DUP1 PUSH1 0xA0 SHL SUB SWAP1 PUSH1 0x3 SHL SHL NOT AND SWAP1 SSTORE JUMP JUMPDEST PUSH1 0x7 SSTORE JUMP JUMPDEST PUSH4 0x4E487B71 PUSH1 0xE0 SHL PUSH1 0x0 MSTORE PUSH1 0x31 PUSH1 0x4 MSTORE PUSH1 0x24 PUSH1 0x0 REVERT JUMPDEST PUSH1 0xB SLOAD DUP1 ISZERO PUSH2 0x2E18 JUMPI PUSH1 0x0 NOT ADD PUSH2 0x2E49 PUSH2 0x2DFE DUP3 PUSH1 0xB PUSH2 0x2A32 JUMP JUMPDEST PUSH1 0xB SSTORE JUMP JUMPDEST ISZERO PUSH2 0x2E55 JUMPI JUMP JUMPDEST PUSH1 0x40 MLOAD PUSH3 0x461BCD PUSH1 0xE5 SHL DUP2 MSTORE PUSH1 0x20 PUSH1 0x4 DUP3 ADD MSTORE PUSH1 0xB PUSH1 0x24 DUP3 ADD MSTORE PUSH11 0x4E6F742070656E64696E67 PUSH1 0xA8 SHL PUSH1 0x44 DUP3 ADD MSTORE PUSH1 0x64 SWAP1 REVERT JUMPDEST ISZERO PUSH2 0x2E8F JUMPI JUMP JUMPDEST PUSH1 0x40 MLOAD PUSH3 0x461BCD PUSH1 0xE5 SHL DUP2 MSTORE PUSH1 0x20 PUSH1 0x4 DUP3 ADD MSTORE PUSH1 0x33 PUSH1 0x24 DUP3 ADD MSTORE PUSH32 0x4F6E6C79207265676973746572656420546563686E696369616E732063616E20 PUSH1 0x44 DUP3 ADD MSTORE PUSH19 0x706572666F726D206D61696E74656E616E6365 PUSH1 0x68 SHL PUSH1 0x64 DUP3 ADD MSTORE PUSH1 0x84 SWAP1 REVERT JUMPDEST ISZERO PUSH2 0x2EF7 JUMPI JUMP JUMPDEST PUSH1 0x40 MLOAD PUSH3 0x461BCD PUSH1 0xE5 SHL DUP2 MSTORE PUSH1 0x20 PUSH1 0x4 DUP3 ADD MSTORE PUSH1 0x14 PUSH1 0x24 DUP3 ADD MSTORE PUSH20 0x105CDCD95D08191BD95CC81B9BDD08195E1A5CDD PUSH1 0x62 SHL PUSH1 0x44 DUP3 ADD MSTORE PUSH1 0x64 SWAP1 REVERT JUMPDEST ISZERO PUSH2 0x2F3A JUMPI JUMP JUMPDEST PUSH1 0x40 MLOAD PUSH3 0x461BCD PUSH1 0xE5 SHL DUP2 MSTORE PUSH1 0x20 PUSH1 0x4 DUP3 ADD MSTORE PUSH1 0x10 PUSH1 0x24 DUP3 ADD MSTORE PUSH16 0x105CDCD95D081A5CC819195B195D1959 PUSH1 0x82 SHL PUSH1 0x44 DUP3 ADD MSTORE PUSH1 0x64 SWAP1 REVERT JUMPDEST PUSH1 0x40 MLOAD SWAP1 PUSH2 0x2F81 PUSH1 0x40 DUP4 PUSH2 0x2B7D JUMP JUMPDEST PUSH1 0x6 DUP3 MSTORE PUSH6 0x213937B5B2B7 PUSH1 0xD1 SHL PUSH1 0x20 DUP4 ADD MSTORE JUMP JUMPDEST ISZERO PUSH2 0x2F9D JUMPI JUMP JUMPDEST PUSH1 0x40 MLOAD PUSH3 0x461BCD PUSH1 0xE5 SHL DUP2 MSTORE PUSH1 0x20 PUSH1 0x4 DUP3 ADD MSTORE PUSH1 0x29 PUSH1 0x24 DUP3 ADD MSTORE PUSH32 0x4173736574206D7573742062652062726F6B656E20746F207374617274206D61 PUSH1 0x44 DUP3 ADD MSTORE PUSH9 0x696E74656E616E6365 PUSH1 0xB8 SHL PUSH1 0x64 DUP3 ADD MSTORE PUSH1 0x84 SWAP1 REVERT JUMPDEST DUP2 DUP2 LT PUSH2 0x2FFF JUMPI POP POP JUMP JUMPDEST PUSH1 0x0 DUP2 SSTORE PUSH1 0x1 ADD PUSH2 0x2FF4 JUMP JUMPDEST SWAP1 PUSH1 0x1F DUP2 GT PUSH2 0x3018 JUMPI POP POP JUMP JUMPDEST PUSH2 0x3033 SWAP2 PUSH1 0x0 MSTORE PUSH1 0x1F PUSH1 0x20 PUSH1 0x0 KECCAK256 SWAP2 ADD PUSH1 0x5 SHR DUP2 ADD SWAP1 PUSH2 0x2FF4 JUMP JUMPDEST JUMP JUMPDEST SWAP2 SWAP1 SWAP2 DUP3 MLOAD PUSH1 0x1 PUSH1 0x1 PUSH1 0x40 SHL SUB DUP2 GT PUSH2 0x2B4C JUMPI PUSH2 0x3052 DUP3 SLOAD PUSH2 0x2A73 JUMP JUMPDEST PUSH1 0x1F DUP2 GT PUSH2 0x30F8 JUMPI JUMPDEST POP PUSH1 0x20 PUSH1 0x1F DUP3 GT PUSH1 0x1 EQ PUSH2 0x3096 JUMPI DUP2 SWAP3 SWAP4 SWAP5 PUSH1 0x0 SWAP3 PUSH2 0x308B JUMPI JUMPDEST POP POP DUP2 PUSH1 0x1 SHL SWAP2 PUSH1 0x0 NOT SWAP1 PUSH1 0x3 SHL SHR NOT AND OR SWAP1 SSTORE JUMP JUMPDEST ADD MLOAD SWAP1 POP CODESIZE DUP1 PUSH2 0x3075 JUMP JUMPDEST PUSH1 0x1F NOT DUP3 AND SWAP1 DUP4 PUSH1 0x0 MSTORE DUP1 PUSH1 0x0 KECCAK256 SWAP2 PUSH1 0x0 JUMPDEST DUP2 DUP2 LT PUSH2 0x30E0 JUMPI POP SWAP6 DUP4 PUSH1 0x1 SWAP6 SWAP7 SWAP8 LT PUSH2 0x30C7 JUMPI JUMPDEST POP POP POP DUP2 SHL ADD SWAP1 SSTORE JUMP JUMPDEST ADD MLOAD PUSH1 0x0 NOT PUSH1 0xF8 DUP5 PUSH1 0x3 SHL AND SHR NOT AND SWAP1 SSTORE CODESIZE DUP1 DUP1 PUSH2 0x30BD JUMP JUMPDEST SWAP2 SWAP3 PUSH1 0x20 PUSH1 0x1 DUP2 SWAP3 DUP7 DUP12 ADD MLOAD DUP2 SSTORE ADD SWAP5 ADD SWAP3 ADD PUSH2 0x30A8 JUMP JUMPDEST PUSH2 0x3125 SWAP1 DUP4 PUSH1 0x0 MSTORE PUSH1 0x20 PUSH1 0x0 KECCAK256 PUSH1 0x1F DUP5 ADD PUSH1 0x5 SHR DUP2 ADD SWAP2 PUSH1 0x20 DUP6 LT PUSH2 0x312B JUMPI JUMPDEST PUSH1 0x1F ADD PUSH1 0x5 SHR ADD SWAP1 PUSH2 0x2FF4 JUMP JUMPDEST CODESIZE PUSH2 0x305B JUMP JUMPDEST SWAP1 SWAP2 POP DUP2 SWAP1 PUSH2 0x3118 JUMP INVALID LOG2 PUSH5 0x6970667358 0x22 SLT KECCAK256 0xEB 0xC8 0x2C 0xF7 PUSH4 0x56516E0 LT DUP16 0xEE MSTORE DUP16 0xBE DELEGATECALL PUSH32 0x27F09B966919F3880840E94DC9E22964736F6C634300081C0033000000000000 "},"methodIdentifiers":{"approveTechnician(address)":"94484747","approveUser(address)":"d624fdb6","assetMetadata(uint256)":"504e35d3","assets(uint256)":"cf35bdd0","cancelFault(uint256,string)":"765207f8","completeMaintenance(uint256,string)":"e8c9bb8d","completedMaintenances(uint256,uint256)":"e70330f6","confirmPayment(uint256,uint256,address,uint256)":"35326ebf","counterMiss(address)":"cf2e4a14","deleteAsset(uint256)":"7eb79b53","denyTechnician(address)":"2e22a6d6","denyUser(address)":"48e071d4","getAllCompletedMaintenance(uint256)":"09b7864e","getAssetStatus(uint256)":"823a65f5","getCompletedMaintenance(uint256,uint256)":"2062ea3d","getCompletedMaintenanceCount(uint256)":"1f082314","getMaintenanceHistory(uint256)":"65b79c85","getPendingTechnicians()":"080b2dc1","getPendingUsers()":"fe09b5ec","getRole(address)":"44276733","getTechnicianCompletedAssets(address)":"0a45dbe3","hasRequestedTechnician(address)":"5286852f","maintenanceHistory(uint256,uint256)":"fae77675","nextAssetId()":"8ed91318","owner()":"8da5cb5b","paymentManager()":"aee1fe49","pendingTechnicians(uint256)":"2f1d5c32","pendingUsers(address)":"95459b58","pendingUsersList(uint256)":"e738ea06","predictiveHashes(uint256,uint256)":"6c4e9764","registerAsset(string,string,uint256,uint256,string,string,string,string,string,string)":"76badc06","replacePhysicalItem(uint256,string)":"912c55ac","reportFault(uint256,string)":"c2c33519","requestTechnicianRole()":"fd279420","requestUserRegistration()":"b74771d4","setPaymentManager(address)":"7e702dc8","startMaintenance(uint256,string)":"6cf154ee","storePredictiveHash(uint256,string)":"774d6f8d","technicianRequests(address)":"31a4d378","userRoles(address)":"74d5e100"}}}}}