{"contracts/AssetManager.sol":{"AssetManager":{"abi":[{"inputs":[],"stateMutability":"nonpayable","type":"constructor"},{"anonymous":false,"inputs":[{"indexed":true,"internalType":"uint256","name":"id","type":"uint256"}],"name":"AssetDeleted","type":"event"},{"anonymous":false,"inputs":[{"indexed":true,"internalType":"uint256","name":"id","type":"uint256"},{"indexed":false,"internalType":"string","name":"category","type":"string"},{"indexed":false,"internalType":"string","name":"building","type":"string"},{"indexed":false,"internalType":"uint256","name":"floor","type":"uint256"},{"indexed":false,"internalType":"uint256","name":"room","type":"uint256"}],"name":"AssetRegistered","type":"event"},{"anonymous":false,"inputs":[{"indexed":false,"internalType":"uint256","name":"assetId","type":"uint256"},{"indexed":false,"internalType":"string","name":"reason","type":"string"}],"name":"FaultCancelled","type":"event"},{"anonymous":false,"inputs":[{"indexed":true,"internalType":"uint256","name":"id","type":"uint256"},{"indexed":false,"internalType":"string","name":"status","type":"string"},{"indexed":false,"internalType":"string","name":"faultType","type":"string"}],"name":"FaultReported","type":"event"},{"anonymous":false,"inputs":[{"indexed":true,"internalType":"uint256","name":"id","type":"uint256"},{"indexed":false,"internalType":"address","name":"technician","type":"address"},{"indexed":false,"internalType":"uint256","name":"timestamp","type":"uint256"}],"name":"MaintenanceCompleted","type":"event"},{"anonymous":false,"inputs":[{"indexed":true,"internalType":"uint256","name":"id","type":"uint256"},{"indexed":false,"internalType":"address","name":"technician","type":"address"}],"name":"MaintenanceStarted","type":"event"},{"anonymous":false,"inputs":[{"indexed":true,"internalType":"address","name":"technician","type":"address"}],"name":"TechnicianApproved","type":"event"},{"anonymous":false,"inputs":[{"indexed":true,"internalType":"address","name":"user","type":"address"}],"name":"TechnicianDenied","type":"event"},{"anonymous":false,"inputs":[{"indexed":true,"internalType":"address","name":"user","type":"address"}],"name":"TechnicianRequested","type":"event"},{"anonymous":false,"inputs":[{"indexed":false,"internalType":"address","name":"user","type":"address"}],"name":"UserApproved","type":"event"},{"anonymous":false,"inputs":[{"indexed":false,"internalType":"address","name":"user","type":"address"}],"name":"UserDenied","type":"event"},{"anonymous":false,"inputs":[{"indexed":false,"internalType":"address","name":"user","type":"address"}],"name":"UserRegistrationRequested","type":"event"},{"inputs":[{"internalType":"address","name":"user","type":"address"}],"name":"approveTechnician","outputs":[],"stateMutability":"nonpayable","type":"function"},{"inputs":[{"internalType":"address","name":"user","type":"address"}],"name":"approveUser","outputs":[],"stateMutability":"nonpayable","type":"function"},{"inputs":[{"internalType":"uint256","name":"","type":"uint256"}],"name":"assetMetadata","outputs":[{"internalType":"string","name":"category","type":"string"},{"internalType":"string","name":"building","type":"string"},{"internalType":"uint256","name":"floor","type":"uint256"},{"internalType":"uint256","name":"room","type":"uint256"},{"internalType":"string","name":"brand","type":"string"},{"internalType":"string","name":"model","type":"string"},{"internalType":"string","name":"ipfsHash","type":"string"},{"internalType":"string","name":"globalId","type":"string"},{"internalType":"string","name":"positionId","type":"string"},{"internalType":"string","name":"physicalId","type":"string"}],"stateMutability":"view","type":"function"},{"inputs":[{"internalType":"uint256","name":"","type":"uint256"}],"name":"assets","outputs":[{"internalType":"uint256","name":"id","type":"uint256"},{"internalType":"string","name":"status","type":"string"},{"internalType":"address","name":"technician","type":"address"},{"internalType":"uint256","name":"lastMaintenanceTimestamp","type":"uint256"},{"internalType":"string","name":"faultType","type":"string"},{"internalType":"bool","name":"isDeleted","type":"bool"}],"stateMutability":"view","type":"function"},{"inputs":[{"internalType":"uint256","name":"_id","type":"uint256"},{"internalType":"string","name":"reason","type":"string"}],"name":"cancelFault","outputs":[],"stateMutability":"nonpayable","type":"function"},{"inputs":[{"internalType":"uint256","name":"_id","type":"uint256"},{"internalType":"string","name":"endComment","type":"string"}],"name":"completeMaintenance","outputs":[],"stateMutability":"nonpayable","type":"function"},{"inputs":[{"internalType":"uint256","name":"","type":"uint256"},{"internalType":"uint256","name":"","type":"uint256"}],"name":"completedMaintenances","outputs":[{"internalType":"bool","name":"readyForPayment","type":"bool"},{"internalType":"address","name":"technician","type":"address"},{"internalType":"uint256","name":"suggestedAmount","type":"uint256"},{"internalType":"bool","name":"isPaid","type":"bool"},{"internalType":"uint256","name":"paymentTimestamp","type":"uint256"},{"internalType":"uint256","name":"paidAmountWei","type":"uint256"},{"internalType":"address","name":"userReimbursed","type":"address"},{"internalType":"uint256","name":"userReimbursedAmountWei","type":"uint256"}],"stateMutability":"view","type":"function"},{"inputs":[{"internalType":"uint256","name":"_id","type":"uint256"},{"internalType":"uint256","name":"technicianWei","type":"uint256"},{"internalType":"address","name":"faultReporter","type":"address"},{"internalType":"uint256","name":"faultCostWei","type":"uint256"}],"name":"confirmPayment","outputs":[],"stateMutability":"nonpayable","type":"function"},{"inputs":[{"internalType":"uint256","name":"_id","type":"uint256"}],"name":"deleteAsset","outputs":[],"stateMutability":"nonpayable","type":"function"},{"inputs":[{"internalType":"address","name":"user","type":"address"}],"name":"denyTechnician","outputs":[],"stateMutability":"nonpayable","type":"function"},{"inputs":[{"internalType":"address","name":"user","type":"address"}],"name":"denyUser","outputs":[],"stateMutability":"nonpayable","type":"function"},{"inputs":[{"internalType":"uint256","name":"_id","type":"uint256"}],"name":"getAllCompletedMaintenance","outputs":[{"components":[{"internalType":"bool","name":"readyForPayment","type":"bool"},{"internalType":"address","name":"technician","type":"address"},{"internalType":"uint256","name":"suggestedAmount","type":"uint256"},{"internalType":"bool","name":"isPaid","type":"bool"},{"internalType":"uint256","name":"paymentTimestamp","type":"uint256"},{"internalType":"uint256","name":"paidAmountWei","type":"uint256"},{"internalType":"address","name":"userReimbursed","type":"address"},{"internalType":"uint256","name":"userReimbursedAmountWei","type":"uint256"}],"internalType":"struct AssetManager.CompletedMaintenance[]","name":"","type":"tuple[]"}],"stateMutability":"view","type":"function"},{"inputs":[{"internalType":"uint256","name":"_id","type":"uint256"},{"internalType":"uint256","name":"index","type":"uint256"}],"name":"getCompletedMaintenance","outputs":[{"components":[{"internalType":"bool","name":"readyForPayment","type":"bool"},{"internalType":"address","name":"technician","type":"address"},{"internalType":"uint256","name":"suggestedAmount","type":"uint256"},{"internalType":"bool","name":"isPaid","type":"bool"},{"internalType":"uint256","name":"paymentTimestamp","type":"uint256"},{"internalType":"uint256","name":"paidAmountWei","type":"uint256"},{"internalType":"address","name":"userReimbursed","type":"address"},{"internalType":"uint256","name":"userReimbursedAmountWei","type":"uint256"}],"internalType":"struct AssetManager.CompletedMaintenance","name":"","type":"tuple"}],"stateMutability":"view","type":"function"},{"inputs":[{"internalType":"uint256","name":"_id","type":"uint256"}],"name":"getCompletedMaintenanceCount","outputs":[{"internalType":"uint256","name":"","type":"uint256"}],"stateMutability":"view","type":"function"},{"inputs":[{"internalType":"uint256","name":"_id","type":"uint256"}],"name":"getMaintenanceHistory","outputs":[{"components":[{"internalType":"uint256","name":"startTime","type":"uint256"},{"internalType":"uint256","name":"endTime","type":"uint256"},{"internalType":"address","name":"technician","type":"address"},{"internalType":"string","name":"oldPhysicalId","type":"string"},{"internalType":"string","name":"newPhysicalId","type":"string"},{"internalType":"string","name":"technicianComment","type":"string"}],"internalType":"struct AssetManager.MaintenanceRecord[]","name":"","type":"tuple[]"}],"stateMutability":"view","type":"function"},{"inputs":[],"name":"getPendingTechnicians","outputs":[{"internalType":"address[]","name":"","type":"address[]"}],"stateMutability":"view","type":"function"},{"inputs":[],"name":"getPendingUsers","outputs":[{"internalType":"address[]","name":"","type":"address[]"}],"stateMutability":"view","type":"function"},{"inputs":[{"internalType":"address","name":"user","type":"address"}],"name":"getRole","outputs":[{"internalType":"enum AssetManager.Role","name":"","type":"uint8"}],"stateMutability":"view","type":"function"},{"inputs":[{"internalType":"address","name":"tech","type":"address"}],"name":"getTechnicianCompletedAssets","outputs":[{"internalType":"uint256[]","name":"","type":"uint256[]"}],"stateMutability":"view","type":"function"},{"inputs":[{"internalType":"address","name":"user","type":"address"}],"name":"hasRequestedTechnician","outputs":[{"internalType":"bool","name":"","type":"bool"}],"stateMutability":"view","type":"function"},{"inputs":[{"internalType":"uint256","name":"","type":"uint256"},{"internalType":"uint256","name":"","type":"uint256"}],"name":"maintenanceHistory","outputs":[{"internalType":"uint256","name":"startTime","type":"uint256"},{"internalType":"uint256","name":"endTime","type":"uint256"},{"internalType":"address","name":"technician","type":"address"},{"internalType":"string","name":"oldPhysicalId","type":"string"},{"internalType":"string","name":"newPhysicalId","type":"string"},{"internalType":"string","name":"technicianComment","type":"string"}],"stateMutability":"view","type":"function"},{"inputs":[],"name":"nextAssetId","outputs":[{"internalType":"uint256","name":"","type":"uint256"}],"stateMutability":"view","type":"function"},{"inputs":[],"name":"owner","outputs":[{"internalType":"address","name":"","type":"address"}],"stateMutability":"view","type":"function"},{"inputs":[],"name":"paymentManager","outputs":[{"internalType":"contract PaymentManager","name":"","type":"address"}],"stateMutability":"view","type":"function"},{"inputs":[{"internalType":"uint256","name":"","type":"uint256"}],"name":"pendingTechnicians","outputs":[{"internalType":"address","name":"","type":"address"}],"stateMutability":"view","type":"function"},{"inputs":[{"internalType":"address","name":"","type":"address"}],"name":"pendingUsers","outputs":[{"internalType":"bool","name":"","type":"bool"}],"stateMutability":"view","type":"function"},{"inputs":[{"internalType":"uint256","name":"","type":"uint256"}],"name":"pendingUsersList","outputs":[{"internalType":"address","name":"","type":"address"}],"stateMutability":"view","type":"function"},{"inputs":[{"internalType":"string","name":"category","type":"string"},{"internalType":"string","name":"building","type":"string"},{"internalType":"uint256","name":"floor","type":"uint256"},{"internalType":"uint256","name":"room","type":"uint256"},{"internalType":"string","name":"brand","type":"string"},{"internalType":"string","name":"model","type":"string"},{"internalType":"string","name":"ipfsHash","type":"string"},{"internalType":"string","name":"globalId","type":"string"},{"internalType":"string","name":"positionId","type":"string"},{"internalType":"string","name":"physicalId","type":"string"}],"name":"registerAsset","outputs":[],"stateMutability":"nonpayable","type":"function"},{"inputs":[{"internalType":"uint256","name":"_id","type":"uint256"},{"internalType":"string","name":"newPhysicalId","type":"string"}],"name":"replacePhysicalItem","outputs":[],"stateMutability":"nonpayable","type":"function"},{"inputs":[{"internalType":"uint256","name":"_id","type":"uint256"},{"internalType":"string","name":"_faultType","type":"string"}],"name":"reportFault","outputs":[],"stateMutability":"nonpayable","type":"function"},{"inputs":[],"name":"requestTechnicianRole","outputs":[],"stateMutability":"nonpayable","type":"function"},{"inputs":[],"name":"requestUserRegistration","outputs":[],"stateMutability":"nonpayable","type":"function"},{"inputs":[{"internalType":"address","name":"_paymentMgr","type":"address"}],"name":"setPaymentManager","outputs":[],"stateMutability":"nonpayable","type":"function"},{"inputs":[{"internalType":"uint256","name":"_id","type":"uint256"},{"internalType":"string","name":"startComment","type":"string"}],"name":"startMaintenance","outputs":[],"stateMutability":"nonpayable","type":"function"},{"inputs":[{"internalType":"address","name":"","type":"address"}],"name":"technicianRequests","outputs":[{"internalType":"bool","name":"","type":"bool"}],"stateMutability":"view","type":"function"},{"inputs":[{"internalType":"address","name":"","type":"address"}],"name":"userRoles","outputs":[{"internalType":"enum AssetManager.Role","name":"","type":"uint8"}],"stateMutability":"view","type":"function"}],"evm":{"bytecode":{"linkReferences":{},"object":"60806040523460b557600980546001600160a01b03191633908117909155600090815260056020526040808220805460ff199081166003179091557f81bfd3acdc1c8e8cfc23f2f592eafacf599bde7b219ec93c9c42bbdfabd43c4880548216600117905573db8a806ad71485bf331700e9870624bdcf10ef829092527f1a89786d5f01996b37c978ba3b77f3f3af5fe4b2f01302f3bb29b11800c0136280549092166002179091555161395d90816100bb8239f35b600080fdfe608080604052600436101561001357600080fd5b600090813560e01c908163080b2dc1146131465750806309b7864e146130865780630a45dbe314612eea5780631f08231414612ec05780632062ea3d14612e4b5780632e22a6d614612d4d5780632f1d5c3214612d2257806331a4d3781461277057806335326ebf14612a85578063442767331461210f57806348e071d41461295c578063504e35d3146127af5780635286852f1461277057806365b79c85146125d65780636cf154ee1461215257806374d5e1001461210f578063765207f814611f7057806376badc061461167e5780637e702dc8146116215780637eb79b53146115455780638da5cb5b1461151c5780638ed91318146114fe578063912c55ac14611256578063944847471461111557806395459b58146110d6578063aee1fe49146110af578063b74771d414610fdf578063c2c3351914610ce4578063cf35bdd014610c2c578063d624fdb614610a3b578063e70330f614610999578063e738ea0614610955578063e8c9bb8d14610497578063fae77675146103ba578063fd2794201461023d5763fe09b5ec146101ad57600080fd5b3461023a578060031936011261023a5760405180916020600b54928381520191600b82527f0175b7a638427703f0dbe7bb9bbf987a2551717b34e79f33b5b1008d1fa01db9915b81811061021b576102178561020b8187038261342a565b604051918291826131c0565b0390f35b82546001600160a01b03168452602090930192600192830192016101f4565b80fd5b503461023a578060031936011261023a57338152600560205260ff60408220541660048110156103a65760010361035057338152600660205260ff60408220541661031757338152600660205260408120805460ff19166001179055600754600160401b811015610303576102bd8160016102db930160075560076132df565b81546001600160a01b0360039290921b91821b19163390911b179055565b337f7d22e892d3f75caf71252ebb2597854eed989b2aa917e7422adad03a74643b068280a280f35b634e487b7160e01b82526041600452602482fd5b60405162461bcd60e51b8152602060048201526011602482015270105b1c9958591e481c995c5d595cdd1959607a1b6044820152606490fd5b60405162461bcd60e51b815260206004820152602860248201527f4f6e6c792055736572732063616e207265717565737420746f20626520546563604482015267686e696369616e7360c01b6064820152608490fd5b634e487b7160e01b82526021600452602482fd5b503461023a576103c93661327d565b9082526004602052604082208054821015610493576103e89250613530565b508054610217600561048560018501549461047760018060a01b03600283015416604051906104258261041e816003880161335a565b038361342a565b610454604051946104448661043d816004850161335a565b038761342a565b61043d604051809981930161335a565b60405198899889526020890152604088015260c0606088015260c087019061344b565b90858203608087015261344b565b9083820360a085015261344b565b8280fd5b503461023a576104a6366134e2565b338352600560205260ff60408420541660048110156109415760026104cb9114613735565b6104d8600854831061379d565b81835260026020526104f460ff600560408620015416156137e0565b818352600260205261051561051c600160408620016040519283809261335a565b038261342a565b6020815191012090604091601160208451610537868261342a565b8281520170556e646572204d61696e74656e616e636560781b815220036108e95782845260026020526001828520016105796105738254613320565b826138b8565b60166a13dc195c985d1a5bdb985b60aa1b019055828452600260205242600383862001558284526002602052836004838220016105b96105738254613320565b55828452600460205281842080549081156108a557600019820191821161089157906105e491613530565b5060018101805461084d5742905581519081610771575b5050508183526001602052808320815190610615826133dd565b600182526020820133815283830186815260608401878152608085019088825260a086019289845260c08701948a865260e08801968b8852805490600160401b82101561075d579061066c91600182018155613514565b98909861074957926006969492610700926106bb7f6d532036a4ad1a783eecd11839a21d9a653bcffa3a88340df2a9fe1765716d379c9b9a98965115158b9060ff801983541691151516179055565b518954610100600160a81b0360089290921b91909116610100600160a81b03199091161789555160018901555160028801805460ff191691151560ff16919091179055565b516003860155516004850155516005840180546001600160a01b0319166001600160a01b0392909216919091179055519101555133815242602082015280604081015b0390a280f35b634e487b7160e01b8c5260048c905260248cfd5b634e487b7160e01b8d52604160045260248dfd5b600501916001600160401b038211610839578190610799826107938654613320565b866138e2565b602090601f83116001146107d65787926107cb575b50508160011b916000199060031b1c19161790555b3880806105fb565b0151905038806107ae565b8488528188209250601f198416885b8181106108215750908460019594939210610808575b505050811b0190556107c3565b015160001960f88460031b161c191690553880806107fb565b929360206001819287860151815501950193016107e5565b634e487b7160e01b86526041600452602486fd5b835162461bcd60e51b815260206004820152601d60248201527f4d61696e74656e616e636520616c726561647920636f6d706c657465640000006044820152606490fd5b634e487b7160e01b86526011600452602486fd5b835162461bcd60e51b815260206004820152601b60248201527f4e6f206d61696e74656e616e6365207265636f726420666f756e6400000000006044820152606490fd5b815162461bcd60e51b815260206004820152602b60248201527f4173736574206d75737420626520756e646572206d61696e74656e616e63652060448201526a746f20636f6d706c65746560a81b6064820152608490fd5b634e487b7160e01b84526021600452602484fd5b503461023a57602036600319011261023a5760043590600b5482101561023a576020610980836132c4565b905460405160039290921b1c6001600160a01b03168152f35b503461023a576109a83661327d565b9190815260016020526040812090815483101561023a576101006109cc8484613514565b5080549060018101549060ff6002820154166003820154600483015491600660018060a01b03600586015416940154946040519660ff81161515885260018060a01b039060081c166020880152604087015215156060860152608085015260a084015260c083015260e0820152f35b503461023a57602036600319011261023a57610a55613262565b338252600560205260ff6040832054166004811015610c18576003610a7a91146135f8565b6001600160a01b0316808252600a6020526040822054909190610a9f9060ff166136fb565b818152600560205260408120600160ff19825416179055818152600a6020526040812060ff198154169055805b600b5480821015610c0f5783610ae1836132c4565b905460039190911b1c6001600160a01b031614610b015750600101610acc565b9092906000198101908111610bfb578293610b39610b21610b5d936132c4565b905460039190911b1c6001600160a01b0316916132c4565b81546001600160a01b0393841660039290921b91821b9390911b1916919091179055565b610b656136db565b7ffbb0a472171a6eb950c8a87421215268a1b2df816da0a48e920e72ade27cfcf76020604051838152a181546001600160a01b031690813b15610bf757829160448392604051948593849263142f3fc560e31b84526004840152662386f26fc1000060248401525af18015610bec57610bdb5750f35b81610be59161342a565b61023a5780f35b6040513d84823e3d90fd5b5050fd5b634e487b7160e01b83526011600452602483fd5b50508091610b65565b634e487b7160e01b83526021600452602483fd5b503461023a57602036600319011261023a576040906004358152600260205220805460405191610c6a83610c63816001850161335a565b038461342a565b610cd860018060a01b0360028301541660038301549260ff600560405192610ca084610c99816004850161335a565b038561342a565b01541693610cc0604051978897885260c0602089015260c088019061344b565b9260408701526060860152848203608086015261344b565b90151560a08301520390f35b503461023a57610cf3366134e2565b338352600560205260ff604084205416600481101561094157600103610f8457610d20600854831061379d565b8183526002602052610d3c60ff600560408620015416156137e0565b8183526002602052610515610d5d600160408620016040519283809261335a565b6020815191012090604091600b60208451610d78868261342a565b828152016a13dc195c985d1a5bdb985b60aa1b81522003610f28578284526002602052600182852001610dab8154613320565b601f8111610f09575b50600c65213937b5b2b760d11b019055828452600260205260048285200181516001600160401b03811161083957610df681610df08454613320565b846138e2565b6020601f8211600114610e8057927f8197465751fe71aa67b1e8f6325cd9377d42fe6a81db402a1166be1074653b31949282610743936006968a91610e75575b508160011b916000199060031b1c19161790555b825193838594855284015265213937b5b2b760d11b606084015260806020840152608083019061344b565b905083015138610e36565b82875280872090601f198316885b818110610ef1575083600696937f8197465751fe71aa67b1e8f6325cd9377d42fe6a81db402a1166be1074653b319896936107439660019410610ed8575b5050811b019055610e4a565b85015160001960f88460031b161c191690553880610ecc565b9192602060018192868a015181550194019201610e8e565b81865260208620610f2291601f0160051c8101906138a1565b38610db4565b815162461bcd60e51b815260206004820152602f60248201527f4173736574206d757374206265206f7065726174696f6e616c20746f2072657060448201526e1bdc9d0818481b995dc819985d5b1d608a1b6064820152608490fd5b60405162461bcd60e51b815260206004820152602d60248201527f4f6e6c7920726567697374657265642055736572732063616e20706572666f7260448201526c36903a3434b99030b1ba34b7b760991b6064820152608490fd5b503461023a578060031936011261023a57338152600560205260ff60408220541660048110156103a65761107557338152600a60205260408120805460ff19166001179055600b54600160401b811015610303576102bd8160016110489301600b55600b6132df565b7f39539b618f1922c04929430780d204c380802c4e22361e21a72bb3a62b667f4b6020604051338152a180f35b60405162461bcd60e51b8152602060048201526012602482015271105b1c9958591e481c9959da5cdd195c995960721b6044820152606490fd5b503461023a578060031936011261023a57546040516001600160a01b039091168152602090f35b503461023a57602036600319011261023a5760209060ff906040906001600160a01b03611101613262565b168152600a84522054166040519015158152f35b503461023a57602036600319011261023a5761112f613262565b338252600560205260ff6040832054166004811015610c1857600361115491146135f8565b6001600160a01b0316808252600660205260408220546111769060ff1661364f565b808252600560205260408220600260ff1982541617905580825260066020526040822060ff198154169055815b6007548082101561124f57826111b883613293565b905460039190911b1c6001600160a01b0316146111d857506001016111a3565b600019810190811161123b5790610b396111f461120c93613293565b905460039190911b1c6001600160a01b031691613293565b611214613690565b7f3e2b9852773678e9bab26fffb152f2c6d1d685a372c6dfad53141ce3f10927a18280a280f35b634e487b7160e01b84526011600452602484fd5b5050611214565b503461023a57611265366134e2565b9190338252600560205260ff6040832054166004811015610c1857600261128c9114613735565b80825260026020526112a860ff600560408520015416156137e0565b80825260036020526009604083200183516001600160401b0381116114ea576112d581610df08454613320565b806020601f821160011461148957859161147e575b508160011b916000199060031b1c19161790555b81526004602052604081208054908115611439576000198201918211610bfb579061132891613530565b5060018101546114005760040182516001600160401b0381116113ec5761135381610df08454613320565b6020601f821160011461138d57839482939492611382575b50508160011b916000199060031b1c191617905580f35b01519050388061136b565b82845280842090601f198316855b8181106113d4575095836001959697106113bb575b505050811b01905580f35b015160001960f88460031b161c191690553880806113b0565b9192602060018192868b01518155019401920161139b565b634e487b7160e01b83526041600452602483fd5b60405162461bcd60e51b815260206004820152601160248201527013585a5b9d195b985b98d948195b991959607a1b6044820152606490fd5b60405162461bcd60e51b815260206004820152601c60248201527f4e6f20616374697665206d61696e74656e616e6365207265636f7264000000006044820152606490fd5b9050850151386112ea565b8386528086209150601f198316865b8181106114d2575090836001949392106114b9575b5050811b0190556112fe565b87015160001960f88460031b161c1916905538806114ad565b9192602060018192868c015181550194019201611498565b634e487b7160e01b84526041600452602484fd5b503461023a578060031936011261023a576020600854604051908152f35b503461023a578060031936011261023a576009546040516001600160a01b039091168152602090f35b503461023a57602036600319011261023a57600435338252600560205260ff6040832054166004811015610c1857600361157f91146135f8565b61158c600854821061379d565b808252600260205260ff6005604084200154166115e457808252600260205260408220600501805460ff191660011790557fa688c45cd59c2527ae60c477de2510cf8cec40aa54def51bae6c2725468871a28280a280f35b60405162461bcd60e51b8152602060048201526015602482015274105cdcd95d08185b1c9958591e4819195b195d1959605a1b6044820152606490fd5b503461023a57602036600319011261023a5761163b613262565b338252600560205260ff6040832054166004811015610c1857600361166091146135f8565b81546001600160a01b0319166001600160a01b039190911617815580f35b503461023a5761014036600319011261023a576004356001600160401b038111611f6c576116b090369060040161348c565b6024356001600160401b038111610493576116cf90369060040161348c565b906044356064356084356001600160401b038111611f68576116f590369060040161348c565b9360a4356001600160401b038111611f645761171590369060040161348c565b9460c4356001600160401b038111611f605761173590369060040161348c565b9060e4356001600160401b038111611f5c5761175590369060040161348c565b610104356001600160401b038111611f585761177590369060040161348c565b90610124356001600160401b038111611f545761179690369060040161348c565b93338b52600560205260ff60408c2054166004811015611f405760036117bc91146135f8565b600854996117c98b6135d3565b6008558a8c5260026020528b6004604082208d81556005810160ff198154169055600281016bffffffffffffffffffffffff60a01b81541690558260038201556001810161181a6105738254613320565b60166a13dc195c985d1a5bdb985b60aa1b0190550161183c6105738254613320565b558a8c52600360205260408c20948a516001600160401b038111611dcd57808e6118708261186a8b54613320565b8b6138e2565b602090601f8311600114611edc5791611ed1575b508160011b916000199060031b1c19161786555b6001860188516001600160401b038111611e4f57808f6118bc826107938654613320565b602090601f8311600114611e6e5791611e63575b508160011b916000199060031b1c19161790555b89600287015588600387015560048601908051906001600160401b038211611e4f578e829161191d836119178754613320565b876138e2565b602091601f8411600114611dec5792611de1575b50508160011b916000199060031b1c19161790555b805160058601916001600160401b038211611dcd578d829161196c836119178754613320565b602091601f8411600114611d6a5792611d5f575b50508160011b916000199060031b1c19161790555b805160068501916001600160401b03821161075d578c82916119bb836119178754613320565b602091601f8411600114611cfc5792611cf1575b50508160011b916000199060031b1c19161790555b805160078401916001600160401b038211611cdd578190611a09826107938654613320565b6020908d601f8411600114611c7a5792611c6f575b50508160011b916000199060031b1c19161790555b805160088301916001600160401b038211611c5b57611a5c82611a568554613320565b856138e2565b602090601f8311600114611bf4576009949392918c9183611be9575b50508160011b916000199060031b1c19161790555b01908051906001600160401b038211611bd557611aae82611a568554613320565b602090601f8311600114611b46579282611b2a93611b1c9896937fe0cd58617305237ed8ec3eced504e683e4100c101533304d423ab96f94edd1079a98968d92611b3b575b50508160011b916000199060031b1c19161790555b60405195869560808752608087019061344b565b90858203602087015261344b565b91604084015260608301520390a280f35b015190503880611af3565b838a52818a209190601f1984168b5b818110611bbd575093611b1c9896937fe0cd58617305237ed8ec3eced504e683e4100c101533304d423ab96f94edd1079a98969360019383611b2a9810611ba4575b505050811b019055611b08565b015160001960f88460031b161c19169055388080611b97565b92936020600181928786015181550195019301611b55565b634e487b7160e01b89526041600452602489fd5b015190503880611a78565b838c52818c209190601f1984168d5b818110611c43575091600193918560099897969410611c2a575b505050811b019055611a8d565b015160001960f88460031b161c19169055388080611c1d565b92936020600181928786015181550195019301611c03565b634e487b7160e01b8b52604160045260248bfd5b015190503880611a1e565b8581528281209350601f198516905b818110611cc55750908460019594939210611cac575b505050811b019055611a33565b015160001960f88460031b161c19169055388080611c9f565b92936020600181928786015181550195019301611c89565b634e487b7160e01b8c52604160045260248cfd5b0151905038806119cf565b8581528281209350601f198516905b818110611d475750908460019594939210611d2e575b505050811b0190556119e4565b015160001960f88460031b161c19169055388080611d21565b92936020600181928786015181550195019301611d0b565b015190503880611980565b8581528281209350601f198516905b818110611db55750908460019594939210611d9c575b505050811b019055611995565b015160001960f88460031b161c19169055388080611d8f565b92936020600181928786015181550195019301611d79565b634e487b7160e01b8e52604160045260248efd5b015190503880611931565b8581528281209350601f198516905b818110611e375750908460019594939210611e1e575b505050811b019055611946565b015160001960f88460031b161c19169055388080611e11565b92936020600181928786015181550195019301611dfb565b634e487b7160e01b8f52604160045260248ffd5b90508a0151386118d0565b8481528181209250601f198416905b8d828210611eb95750509083600194939210611ea0575b5050811b0190556118e4565b8c015160001960f88460031b161c191690553880611e94565b60018495602093958493015181550194019201611e7d565b90508c015138611884565b908e9350601f1983168a8352818320925b818110611f265750938360019510611f0d575b505050811b018655611898565b015160001960f88460031b161c1916905538808e611f00565b9482015183558f9460019093019260209283019201611eed565b634e487b7160e01b8c52602160045260248cfd5b8a80fd5b8980fd5b8880fd5b8780fd5b8680fd5b8580fd5b5080fd5b503461023a57604036600319011261023a576024356004356001600160401b03821161049357366023830112156104935781600401356001600160401b03811161210b57366024828501011161210b57338452600560205260ff60408520541660048110156120f7579160609161200b60037f3a37ce840bfb04807c28639851e851aedc572e43329da2fcf9cca5dd5a50f0019695146135f8565b612018600854831061379d565b818652600260205261203460ff600560408920015416156137e0565b8186526002602052612074610515612058600160408a20016040519283809261335a565b6020815191012061206761381f565b6020815191012014613843565b8186526002602052600160408720016120906105738254613320565b60166a13dc195c985d1a5bdb985b60aa1b019055818652600260205285600460408220016120c16105738254613320565b5580602460405195869485526040602086015282604086015201848401378181018301869052601f01601f19168101030190a180f35b634e487b7160e01b85526021600452602485fd5b8380fd5b503461023a57602036600319011261023a576102179060ff906040906001600160a01b0361213b613262565b1681526005602052205416604051918291826132f7565b503461023a57612161366134e2565b338352600560205260ff6040842054166004811015610941579061218a600261041e9314613735565b612197600854841061379d565b82845260026020526121b360ff600560408720015416156137e0565b82845260026020526121d7610515612058600160408820016040519283809261335a565b82845260036020526121f5600960408620016040519384809261335a565b8284526004602052604084206040519061220e8261340f565b4282526020820193868552604083013381526060840191825260209560405193612238888661342a565b8985526080860194855260a08601968752805490600160401b821015611c5b579061226891600182018155613530565b9590956125c257518555516001850155516002840180546001600160a01b0319166001600160a01b039290921691909117905551805160038401916001600160401b038211611bd55781906122c1826107938654613320565b8790601f831160011461255f578a92612554575b50508160011b916000199060031b1c19161790555b51805160048301916001600160401b0382116125405761230e82611a568554613320565b8590601f83116001146124d9576005949392918991836124ce575b50508160011b916000199060031b1c19161790555b0190518051906001600160401b0382116108395761236082611a568554613320565b8390601f8311600114612449577f12c6212a092000a772623f99abfca127c5c25c966686a610aac238c570c8c9219493929187918361243e575b50508160011b916000199060031b1c19161790555b82845260028152600160408520016123c78154613320565b601f8111612420575b507f556e646572204d61696e74656e616e636500000000000000000000000000002290558284526002808252604080862090910180546001600160a01b031916339081179091559051908152a280f35b81865282862061243891601f0160051c8101906138a1565b386123d0565b01519050388061239a565b8387528487209190601f198416885b8181106124b757509160019391857f12c6212a092000a772623f99abfca127c5c25c966686a610aac238c570c8c921989796941061249e575b505050811b0190556123af565b015160001960f88460031b161c19169055388080612491565b929387600181928786015181550195019301612458565b015190503880612329565b8389528689209190601f1984168a5b8982821061252a57505091600193918560059897969410612511575b505050811b01905561233e565b015160001960f88460031b161c19169055388080612504565b60018596829396860151815501950193016124e8565b634e487b7160e01b88526041600452602488fd5b0151905038806122d5565b848b52888b209250601f1984168b5b8a8282106125ac575050908460019594939210612593575b505050811b0190556122ea565b015160001960f88460031b161c19169055388080612586565b600185968293968601518155019501930161256e565b634e487b7160e01b8a5260048a905260248afd5b503461023a57602036600319011261023a57600435815260046020526040812080546126018161354c565b9061260f604051928361342a565b80825260208201809385526020852085915b8383106126e757868587604051928392602084019060208552518091526040840160408260051b8601019392905b82821061265e57505050500390f35b919360019193955060206126d78192603f198a8203018652885190815181528382015184820152858060a01b03604083015116604082015260a06126c66126b4606085015160c0606086015260c085019061344b565b6080850151848203608086015261344b565b9201519060a081840391015261344b565b960192019201859493919261264f565b600660206001926040516126fa8161340f565b855481528486015483820152848060a01b03600287015416604082015260405161272b816105158160038b0161335a565b6060820152604051612744816105158160048b0161335a565b608082015260405161275d816105158160058b0161335a565b60a0820152815201920192019190612621565b503461023a57602036600319011261023a5760209060ff906040906001600160a01b0361279b613262565b168152600684522054166040519015158152f35b503461023a57602036600319011261023a576004358152600360205260409020604051806127dd818461335a565b036127e8908261342a565b60405191826127fa816001840161335a565b03612805908461342a565b6002810154600382015490604051808060048601906128239161335a565b0361282e908261342a565b6040518061283f816005880161335a565b0361284a908261342a565b604051918261285c816006890161335a565b03612867908461342a565b60405193846128798160078a0161335a565b03612884908661342a565b60405195866128968160088b0161335a565b036128a1908861342a565b604051806009819a01906128b49161335a565b036128bf908961342a565b604051998a996101408b526101408b016128d89161344b565b8a810360208c01526128e99161344b565b9160408a0152606089015287810360808901526129059161344b565b86810360a08801526129169161344b565b85810360c08701526129279161344b565b84810360e08601526129389161344b565b83810361010085015261294a9161344b565b8281036101208401526102179161344b565b503461023a57602036600319011261023a57612976613262565b338252600560205260ff6040832054166004811015610c1857600361299b91146135f8565b6001600160a01b0316808252600a60205260408220546129bd9060ff166136fb565b808252600a60205260408220805460ff19169055815b600b5480821015612a5a57826129e8836132c4565b905460039190911b1c6001600160a01b031614612a0857506001016129d3565b600019810190811161123b5791612a48602092610b39610b217fa86ab5eafc988f5b42ba604cdc3a37d9abe90ac4c02f44aad2ff13f3dea10b18966132c4565b612a506136db565b604051908152a180f35b505060207fa86ab5eafc988f5b42ba604cdc3a37d9abe90ac4c02f44aad2ff13f3dea10b1891612a50565b503461023a57608036600319011261023a576024356044356001600160a01b0381169081810361210b57606435338552600560205260ff6040862054166004811015612d0e576003612ad791146135f8565b60043585526001602052604085208054908115612cca576000198201918211612cb65790612b0491613514565b5091825460ff811680612ca7575b15612c625786546001600160a01b0316908790823b15611f6c5760405163944c5a6160e01b815260089190911c6001600160a01b03166004820152602481018890529182908183816044810103925af18015612c5757612c43575b50859084151580612c3a575b612ba5575b508460048460ff19815416815560028101600160ff19825416179055426003820155015580f35b81546001600160a01b0316803b156104935760405163142f3fc560e31b81526001600160a01b039290921660048301526024820184905282908290604490829084905af18015610bec57612c21575b505060049260058301906bffffffffffffffffffffffff60a01b8254161790556006820155388481612b7e565b81612c2b9161342a565b612c36578438612bf4565b8480fd5b50821515612b79565b86612c509197929761342a565b9438612b6d565b6040513d89823e3d90fd5b60405162461bcd60e51b815260206004820152601960248201527f4e6f74207265616479206f7220616c72656164792070616964000000000000006044820152606490fd5b5060ff60028501541615612b12565b634e487b7160e01b87526011600452602487fd5b606460405162461bcd60e51b815260206004820152602060248201527f4e6f206d61696e74656e616e6365207265636f72647320666f722061737365746044820152fd5b634e487b7160e01b86526021600452602486fd5b503461023a57602036600319011261023a576004359060075482101561023a57602061098083613293565b503461023a57602036600319011261023a57612d67613262565b338252600560205260ff6040832054166004811015610c18576003612d8c91146135f8565b6001600160a01b031680825260066020526040822054612dae9060ff1661364f565b808252600660205260408220805460ff19169055815b60075480821015612e445782612dd983613293565b905460039190911b1c6001600160a01b031614612df95750600101612dc4565b600019810190811161123b5790610b396111f4612e1593613293565b612e1d613690565b7f78ad698bb9f005816005024a452272f61c8752170b72cad46a47830dba9e5ece8280a280f35b5050612e1d565b503461023a57612eb1612eab610100926040612e663661327d565b92908160e08451612e76816133dd565b82815282602082015282868201528260608201528260808201528260a08201528260c082015201528152600160205220613514565b50613563565b612ebe6040518092613203565bf35b503461023a57602036600319011261023a5760406020916004358152600183522054604051908152f35b503461023a57602036600319011261023a57612f04613262565b6008549082906001600160a01b0316815b8381106130255750612f3f612f298361354c565b92612f37604051948561342a565b80845261354c565b602083019390601f19013685378491855b828110612f9b57868587604051928392602084019060208552518091526040840192915b818110612f82575050500390f35b8251845285945060209384019390920191600101612f74565b808752600160205260408720805490885b828110612fbf575b505050600101612f50565b84612fca8284613514565b505460081c6001600160a01b031614612fe557600101612fac565b505050928451811015613011576130088185602060019460051b890101526135d3565b93903880612fb4565b634e487b7160e01b87526032600452602487fd5b8085526001602052604085208054865b818110613048575b505050600101612f15565b846130538285613514565b505460081c6001600160a01b03161461306e57600101613035565b5050509161307d6001916135d3565b9290388061303d565b503461023a57602036600319011261023a57600435815260016020526040812080546130b18161354c565b906130bf604051928361342a565b80825260208201809385526020852085915b83831061312857868587604051928392602084019060208552518091526040840192915b818110613103575050500390f35b9193509160206101008261311a6001948851613203565b0194019101918493926130f5565b6007602060019261313885613563565b8152019201920191906130d1565b823461023a578060031936011261023a57600754908183526020830191600782527fa66cc928b5edb82af9bd49922954155ab7b0942694bea4ce44661d9a8736c688915b8181106131a1576102178561020b8187038261342a565b82546001600160a01b031684526020909301926001928301920161318a565b602060408183019282815284518094520192019060005b8181106131e45750505090565b82516001600160a01b03168452602093840193909201916001016131d7565b60e0809180511515845260018060a01b036020820151166020850152604081015160408501526060810151151560608501526080810151608085015260a081015160a085015260018060a01b0360c08201511660c08501520151910152565b600435906001600160a01b038216820361327857565b600080fd5b6040906003190112613278576004359060243590565b6007548110156132ae57600760005260206000200190600090565b634e487b7160e01b600052603260045260246000fd5b600b548110156132ae57600b60005260206000200190600090565b80548210156132ae5760005260206000200190600090565b91906020830192600482101561330a5752565b634e487b7160e01b600052602160045260246000fd5b90600182811c92168015613350575b602083101461333a57565b634e487b7160e01b600052602260045260246000fd5b91607f169161332f565b6000929181549161336a83613320565b80835292600181169081156133c0575060011461338657505050565b60009081526020812093945091925b8383106133a6575060209250010190565b600181602092949394548385870101520191019190613395565b915050602093945060ff929192191683830152151560051b010190565b61010081019081106001600160401b038211176133f957604052565b634e487b7160e01b600052604160045260246000fd5b60c081019081106001600160401b038211176133f957604052565b90601f801991011681019081106001600160401b038211176133f957604052565b919082519283825260005b848110613477575050826000602080949584010152601f8019910116010190565b80602080928401015182828601015201613456565b81601f82011215613278578035906001600160401b0382116133f957604051926134c0601f8401601f19166020018561342a565b8284526020838301011161327857816000926020809301838601378301015290565b9060406003198301126132785760043591602435906001600160401b038211613278576135119160040161348c565b90565b80548210156132ae576000526007602060002091020190600090565b80548210156132ae576000526006602060002091020190600090565b6001600160401b0381116133f95760051b60200190565b90604051613570816133dd565b825460ff808216151583526001600160a01b0360089290921c82166020840152600185015460408401526002850154161515606083015260038401546080830152600484015460a083015260058401541660c082015260069092015460e0830152565b60001981146135e25760010190565b634e487b7160e01b600052601160045260246000fd5b156135ff57565b60405162461bcd60e51b815260206004820152602260248201527f4f6e6c792041646d696e2063616e20706572666f726d2074686973206163746960448201526137b760f11b6064820152608490fd5b1561365657565b60405162461bcd60e51b8152602060048201526012602482015271139bc81c195b991a5b99c81c995c5d595cdd60721b6044820152606490fd5b60075480156136c557600019016136c06136ab8260076132df565b81549060018060a01b039060031b1b19169055565b600755565b634e487b7160e01b600052603160045260246000fd5b600b5480156136c557600019016136f66136ab82600b6132df565b600b55565b1561370257565b60405162461bcd60e51b815260206004820152600b60248201526a4e6f742070656e64696e6760a81b6044820152606490fd5b1561373c57565b60405162461bcd60e51b815260206004820152603360248201527f4f6e6c79207265676973746572656420546563686e696369616e732063616e20604482015272706572666f726d206d61696e74656e616e636560681b6064820152608490fd5b156137a457565b60405162461bcd60e51b8152602060048201526014602482015273105cdcd95d08191bd95cc81b9bdd08195e1a5cdd60621b6044820152606490fd5b156137e757565b60405162461bcd60e51b815260206004820152601060248201526f105cdcd95d081a5cc819195b195d195960821b6044820152606490fd5b6040519061382e60408361342a565b6006825265213937b5b2b760d11b6020830152565b1561384a57565b60405162461bcd60e51b815260206004820152602960248201527f4173736574206d7573742062652062726f6b656e20746f207374617274206d61604482015268696e74656e616e636560b81b6064820152608490fd5b8181106138ac575050565b600081556001016138a1565b90601f81116138c5575050565b6138e091600052601f6020600020910160051c8101906138a1565b565b9190601f81116138f157505050565b6138e0926000526020600020906020601f840160051c8301931061391d575b601f0160051c01906138a1565b909150819061391056fea26469706673582212205475022f65611bc2c01630e3acba02aa7ebeb7982401793e8968c0da09dbf2f564736f6c634300081c0033","opcodes":"PUSH1 0x80 PUSH1 0x40 MSTORE CALLVALUE PUSH1 0xB5 JUMPI PUSH1 0x9 DUP1 SLOAD PUSH1 0x1 PUSH1 0x1 PUSH1 0xA0 SHL SUB NOT AND CALLER SWAP1 DUP2 OR SWAP1 SWAP2 SSTORE PUSH1 0x0 SWAP1 DUP2 MSTORE PUSH1 0x5 PUSH1 0x20 MSTORE PUSH1 0x40 DUP1 DUP3 KECCAK256 DUP1 SLOAD PUSH1 0xFF NOT SWAP1 DUP2 AND PUSH1 0x3 OR SWAP1 SWAP2 SSTORE PUSH32 0x81BFD3ACDC1C8E8CFC23F2F592EAFACF599BDE7B219EC93C9C42BBDFABD43C48 DUP1 SLOAD DUP3 AND PUSH1 0x1 OR SWAP1 SSTORE PUSH20 0xDB8A806AD71485BF331700E9870624BDCF10EF82 SWAP1 SWAP3 MSTORE PUSH32 0x1A89786D5F01996B37C978BA3B77F3F3AF5FE4B2F01302F3BB29B11800C01362 DUP1 SLOAD SWAP1 SWAP3 AND PUSH1 0x2 OR SWAP1 SWAP2 SSTORE MLOAD PUSH2 0x395D SWAP1 DUP2 PUSH2 0xBB DUP3 CODECOPY RETURN JUMPDEST PUSH1 0x0 DUP1 REVERT INVALID PUSH1 0x80 DUP1 PUSH1 0x40 MSTORE PUSH1 0x4 CALLDATASIZE LT ISZERO PUSH2 0x13 JUMPI PUSH1 0x0 DUP1 REVERT JUMPDEST PUSH1 0x0 SWAP1 DUP2 CALLDATALOAD PUSH1 0xE0 SHR SWAP1 DUP2 PUSH4 0x80B2DC1 EQ PUSH2 0x3146 JUMPI POP DUP1 PUSH4 0x9B7864E EQ PUSH2 0x3086 JUMPI DUP1 PUSH4 0xA45DBE3 EQ PUSH2 0x2EEA JUMPI DUP1 PUSH4 0x1F082314 EQ PUSH2 0x2EC0 JUMPI DUP1 PUSH4 0x2062EA3D EQ PUSH2 0x2E4B JUMPI DUP1 PUSH4 0x2E22A6D6 EQ PUSH2 0x2D4D JUMPI DUP1 PUSH4 0x2F1D5C32 EQ PUSH2 0x2D22 JUMPI DUP1 PUSH4 0x31A4D378 EQ PUSH2 0x2770 JUMPI DUP1 PUSH4 0x35326EBF EQ PUSH2 0x2A85 JUMPI DUP1 PUSH4 0x44276733 EQ PUSH2 0x210F JUMPI DUP1 PUSH4 0x48E071D4 EQ PUSH2 0x295C JUMPI DUP1 PUSH4 0x504E35D3 EQ PUSH2 0x27AF JUMPI DUP1 PUSH4 0x5286852F EQ PUSH2 0x2770 JUMPI DUP1 PUSH4 0x65B79C85 EQ PUSH2 0x25D6 JUMPI DUP1 PUSH4 0x6CF154EE EQ PUSH2 0x2152 JUMPI DUP1 PUSH4 0x74D5E100 EQ PUSH2 0x210F JUMPI DUP1 PUSH4 0x765207F8 EQ PUSH2 0x1F70 JUMPI DUP1 PUSH4 0x76BADC06 EQ PUSH2 0x167E JUMPI DUP1 PUSH4 0x7E702DC8 EQ PUSH2 0x1621 JUMPI DUP1 PUSH4 0x7EB79B53 EQ PUSH2 0x1545 JUMPI DUP1 PUSH4 0x8DA5CB5B EQ PUSH2 0x151C JUMPI DUP1 PUSH4 0x8ED91318 EQ PUSH2 0x14FE JUMPI DUP1 PUSH4 0x912C55AC EQ PUSH2 0x1256 JUMPI DUP1 PUSH4 0x94484747 EQ PUSH2 0x1115 JUMPI DUP1 PUSH4 0x95459B58 EQ PUSH2 0x10D6 JUMPI DUP1 PUSH4 0xAEE1FE49 EQ PUSH2 0x10AF JUMPI DUP1 PUSH4 0xB74771D4 EQ PUSH2 0xFDF JUMPI DUP1 PUSH4 0xC2C33519 EQ PUSH2 0xCE4 JUMPI DUP1 PUSH4 0xCF35BDD0 EQ PUSH2 0xC2C JUMPI DUP1 PUSH4 0xD624FDB6 EQ PUSH2 0xA3B JUMPI DUP1 PUSH4 0xE70330F6 EQ PUSH2 0x999 JUMPI DUP1 PUSH4 0xE738EA06 EQ PUSH2 0x955 JUMPI DUP1 PUSH4 0xE8C9BB8D EQ PUSH2 0x497 JUMPI DUP1 PUSH4 0xFAE77675 EQ PUSH2 0x3BA JUMPI DUP1 PUSH4 0xFD279420 EQ PUSH2 0x23D JUMPI PUSH4 0xFE09B5EC EQ PUSH2 0x1AD JUMPI PUSH1 0x0 DUP1 REVERT JUMPDEST CALLVALUE PUSH2 0x23A JUMPI DUP1 PUSH1 0x3 NOT CALLDATASIZE ADD SLT PUSH2 0x23A JUMPI PUSH1 0x40 MLOAD DUP1 SWAP2 PUSH1 0x20 PUSH1 0xB SLOAD SWAP3 DUP4 DUP2 MSTORE ADD SWAP2 PUSH1 0xB DUP3 MSTORE PUSH32 0x175B7A638427703F0DBE7BB9BBF987A2551717B34E79F33B5B1008D1FA01DB9 SWAP2 JUMPDEST DUP2 DUP2 LT PUSH2 0x21B JUMPI PUSH2 0x217 DUP6 PUSH2 0x20B DUP2 DUP8 SUB DUP3 PUSH2 0x342A JUMP JUMPDEST PUSH1 0x40 MLOAD SWAP2 DUP3 SWAP2 DUP3 PUSH2 0x31C0 JUMP JUMPDEST SUB SWAP1 RETURN JUMPDEST DUP3 SLOAD PUSH1 0x1 PUSH1 0x1 PUSH1 0xA0 SHL SUB AND DUP5 MSTORE PUSH1 0x20 SWAP1 SWAP4 ADD SWAP3 PUSH1 0x1 SWAP3 DUP4 ADD SWAP3 ADD PUSH2 0x1F4 JUMP JUMPDEST DUP1 REVERT JUMPDEST POP CALLVALUE PUSH2 0x23A JUMPI DUP1 PUSH1 0x3 NOT CALLDATASIZE ADD SLT PUSH2 0x23A JUMPI CALLER DUP2 MSTORE PUSH1 0x5 PUSH1 0x20 MSTORE PUSH1 0xFF PUSH1 0x40 DUP3 KECCAK256 SLOAD AND PUSH1 0x4 DUP2 LT ISZERO PUSH2 0x3A6 JUMPI PUSH1 0x1 SUB PUSH2 0x350 JUMPI CALLER DUP2 MSTORE PUSH1 0x6 PUSH1 0x20 MSTORE PUSH1 0xFF PUSH1 0x40 DUP3 KECCAK256 SLOAD AND PUSH2 0x317 JUMPI CALLER DUP2 MSTORE PUSH1 0x6 PUSH1 0x20 MSTORE PUSH1 0x40 DUP2 KECCAK256 DUP1 SLOAD PUSH1 0xFF NOT AND PUSH1 0x1 OR SWAP1 SSTORE PUSH1 0x7 SLOAD PUSH1 0x1 PUSH1 0x40 SHL DUP2 LT ISZERO PUSH2 0x303 JUMPI PUSH2 0x2BD DUP2 PUSH1 0x1 PUSH2 0x2DB SWAP4 ADD PUSH1 0x7 SSTORE PUSH1 0x7 PUSH2 0x32DF JUMP JUMPDEST DUP2 SLOAD PUSH1 0x1 PUSH1 0x1 PUSH1 0xA0 SHL SUB PUSH1 0x3 SWAP3 SWAP1 SWAP3 SHL SWAP2 DUP3 SHL NOT AND CALLER SWAP1 SWAP2 SHL OR SWAP1 SSTORE JUMP JUMPDEST CALLER PUSH32 0x7D22E892D3F75CAF71252EBB2597854EED989B2AA917E7422ADAD03A74643B06 DUP3 DUP1 LOG2 DUP1 RETURN JUMPDEST PUSH4 0x4E487B71 PUSH1 0xE0 SHL DUP3 MSTORE PUSH1 0x41 PUSH1 0x4 MSTORE PUSH1 0x24 DUP3 REVERT JUMPDEST PUSH1 0x40 MLOAD PUSH3 0x461BCD PUSH1 0xE5 SHL DUP2 MSTORE PUSH1 0x20 PUSH1 0x4 DUP3 ADD MSTORE PUSH1 0x11 PUSH1 0x24 DUP3 ADD MSTORE PUSH17 0x105B1C9958591E481C995C5D595CDD1959 PUSH1 0x7A SHL PUSH1 0x44 DUP3 ADD MSTORE PUSH1 0x64 SWAP1 REVERT JUMPDEST PUSH1 0x40 MLOAD PUSH3 0x461BCD PUSH1 0xE5 SHL DUP2 MSTORE PUSH1 0x20 PUSH1 0x4 DUP3 ADD MSTORE PUSH1 0x28 PUSH1 0x24 DUP3 ADD MSTORE PUSH32 0x4F6E6C792055736572732063616E207265717565737420746F20626520546563 PUSH1 0x44 DUP3 ADD MSTORE PUSH8 0x686E696369616E73 PUSH1 0xC0 SHL PUSH1 0x64 DUP3 ADD MSTORE PUSH1 0x84 SWAP1 REVERT JUMPDEST PUSH4 0x4E487B71 PUSH1 0xE0 SHL DUP3 MSTORE PUSH1 0x21 PUSH1 0x4 MSTORE PUSH1 0x24 DUP3 REVERT JUMPDEST POP CALLVALUE PUSH2 0x23A JUMPI PUSH2 0x3C9 CALLDATASIZE PUSH2 0x327D JUMP JUMPDEST SWAP1 DUP3 MSTORE PUSH1 0x4 PUSH1 0x20 MSTORE PUSH1 0x40 DUP3 KECCAK256 DUP1 SLOAD DUP3 LT ISZERO PUSH2 0x493 JUMPI PUSH2 0x3E8 SWAP3 POP PUSH2 0x3530 JUMP JUMPDEST POP DUP1 SLOAD PUSH2 0x217 PUSH1 0x5 PUSH2 0x485 PUSH1 0x1 DUP6 ADD SLOAD SWAP5 PUSH2 0x477 PUSH1 0x1 DUP1 PUSH1 0xA0 SHL SUB PUSH1 0x2 DUP4 ADD SLOAD AND PUSH1 0x40 MLOAD SWAP1 PUSH2 0x425 DUP3 PUSH2 0x41E DUP2 PUSH1 0x3 DUP9 ADD PUSH2 0x335A JUMP JUMPDEST SUB DUP4 PUSH2 0x342A JUMP JUMPDEST PUSH2 0x454 PUSH1 0x40 MLOAD SWAP5 PUSH2 0x444 DUP7 PUSH2 0x43D DUP2 PUSH1 0x4 DUP6 ADD PUSH2 0x335A JUMP JUMPDEST SUB DUP8 PUSH2 0x342A JUMP JUMPDEST PUSH2 0x43D PUSH1 0x40 MLOAD DUP1 SWAP10 DUP2 SWAP4 ADD PUSH2 0x335A JUMP JUMPDEST PUSH1 0x40 MLOAD SWAP9 DUP10 SWAP9 DUP10 MSTORE PUSH1 0x20 DUP10 ADD MSTORE PUSH1 0x40 DUP9 ADD MSTORE PUSH1 0xC0 PUSH1 0x60 DUP9 ADD MSTORE PUSH1 0xC0 DUP8 ADD SWAP1 PUSH2 0x344B JUMP JUMPDEST SWAP1 DUP6 DUP3 SUB PUSH1 0x80 DUP8 ADD MSTORE PUSH2 0x344B JUMP JUMPDEST SWAP1 DUP4 DUP3 SUB PUSH1 0xA0 DUP6 ADD MSTORE PUSH2 0x344B JUMP JUMPDEST DUP3 DUP1 REVERT JUMPDEST POP CALLVALUE PUSH2 0x23A JUMPI PUSH2 0x4A6 CALLDATASIZE PUSH2 0x34E2 JUMP JUMPDEST CALLER DUP4 MSTORE PUSH1 0x5 PUSH1 0x20 MSTORE PUSH1 0xFF PUSH1 0x40 DUP5 KECCAK256 SLOAD AND PUSH1 0x4 DUP2 LT ISZERO PUSH2 0x941 JUMPI PUSH1 0x2 PUSH2 0x4CB SWAP2 EQ PUSH2 0x3735 JUMP JUMPDEST PUSH2 0x4D8 PUSH1 0x8 SLOAD DUP4 LT PUSH2 0x379D JUMP JUMPDEST DUP2 DUP4 MSTORE PUSH1 0x2 PUSH1 0x20 MSTORE PUSH2 0x4F4 PUSH1 0xFF PUSH1 0x5 PUSH1 0x40 DUP7 KECCAK256 ADD SLOAD AND ISZERO PUSH2 0x37E0 JUMP JUMPDEST DUP2 DUP4 MSTORE PUSH1 0x2 PUSH1 0x20 MSTORE PUSH2 0x515 PUSH2 0x51C PUSH1 0x1 PUSH1 0x40 DUP7 KECCAK256 ADD PUSH1 0x40 MLOAD SWAP3 DUP4 DUP1 SWAP3 PUSH2 0x335A JUMP JUMPDEST SUB DUP3 PUSH2 0x342A JUMP JUMPDEST PUSH1 0x20 DUP2 MLOAD SWAP2 ADD KECCAK256 SWAP1 PUSH1 0x40 SWAP2 PUSH1 0x11 PUSH1 0x20 DUP5 MLOAD PUSH2 0x537 DUP7 DUP3 PUSH2 0x342A JUMP JUMPDEST DUP3 DUP2 MSTORE ADD PUSH17 0x556E646572204D61696E74656E616E6365 PUSH1 0x78 SHL DUP2 MSTORE KECCAK256 SUB PUSH2 0x8E9 JUMPI DUP3 DUP5 MSTORE PUSH1 0x2 PUSH1 0x20 MSTORE PUSH1 0x1 DUP3 DUP6 KECCAK256 ADD PUSH2 0x579 PUSH2 0x573 DUP3 SLOAD PUSH2 0x3320 JUMP JUMPDEST DUP3 PUSH2 0x38B8 JUMP JUMPDEST PUSH1 0x16 PUSH11 0x13DC195C985D1A5BDB985B PUSH1 0xAA SHL ADD SWAP1 SSTORE DUP3 DUP5 MSTORE PUSH1 0x2 PUSH1 0x20 MSTORE TIMESTAMP PUSH1 0x3 DUP4 DUP7 KECCAK256 ADD SSTORE DUP3 DUP5 MSTORE PUSH1 0x2 PUSH1 0x20 MSTORE DUP4 PUSH1 0x4 DUP4 DUP3 KECCAK256 ADD PUSH2 0x5B9 PUSH2 0x573 DUP3 SLOAD PUSH2 0x3320 JUMP JUMPDEST SSTORE DUP3 DUP5 MSTORE PUSH1 0x4 PUSH1 0x20 MSTORE DUP2 DUP5 KECCAK256 DUP1 SLOAD SWAP1 DUP2 ISZERO PUSH2 0x8A5 JUMPI PUSH1 0x0 NOT DUP3 ADD SWAP2 DUP3 GT PUSH2 0x891 JUMPI SWAP1 PUSH2 0x5E4 SWAP2 PUSH2 0x3530 JUMP JUMPDEST POP PUSH1 0x1 DUP2 ADD DUP1 SLOAD PUSH2 0x84D JUMPI TIMESTAMP SWAP1 SSTORE DUP2 MLOAD SWAP1 DUP2 PUSH2 0x771 JUMPI JUMPDEST POP POP POP DUP2 DUP4 MSTORE PUSH1 0x1 PUSH1 0x20 MSTORE DUP1 DUP4 KECCAK256 DUP2 MLOAD SWAP1 PUSH2 0x615 DUP3 PUSH2 0x33DD JUMP JUMPDEST PUSH1 0x1 DUP3 MSTORE PUSH1 0x20 DUP3 ADD CALLER DUP2 MSTORE DUP4 DUP4 ADD DUP7 DUP2 MSTORE PUSH1 0x60 DUP5 ADD DUP8 DUP2 MSTORE PUSH1 0x80 DUP6 ADD SWAP1 DUP9 DUP3 MSTORE PUSH1 0xA0 DUP7 ADD SWAP3 DUP10 DUP5 MSTORE PUSH1 0xC0 DUP8 ADD SWAP5 DUP11 DUP7 MSTORE PUSH1 0xE0 DUP9 ADD SWAP7 DUP12 DUP9 MSTORE DUP1 SLOAD SWAP1 PUSH1 0x1 PUSH1 0x40 SHL DUP3 LT ISZERO PUSH2 0x75D JUMPI SWAP1 PUSH2 0x66C SWAP2 PUSH1 0x1 DUP3 ADD DUP2 SSTORE PUSH2 0x3514 JUMP JUMPDEST SWAP9 SWAP1 SWAP9 PUSH2 0x749 JUMPI SWAP3 PUSH1 0x6 SWAP7 SWAP5 SWAP3 PUSH2 0x700 SWAP3 PUSH2 0x6BB PUSH32 0x6D532036A4AD1A783EECD11839A21D9A653BCFFA3A88340DF2A9FE1765716D37 SWAP13 SWAP12 SWAP11 SWAP9 SWAP7 MLOAD ISZERO ISZERO DUP12 SWAP1 PUSH1 0xFF DUP1 NOT DUP4 SLOAD AND SWAP2 ISZERO ISZERO AND OR SWAP1 SSTORE JUMP JUMPDEST MLOAD DUP10 SLOAD PUSH2 0x100 PUSH1 0x1 PUSH1 0xA8 SHL SUB PUSH1 0x8 SWAP3 SWAP1 SWAP3 SHL SWAP2 SWAP1 SWAP2 AND PUSH2 0x100 PUSH1 0x1 PUSH1 0xA8 SHL SUB NOT SWAP1 SWAP2 AND OR DUP10 SSTORE MLOAD PUSH1 0x1 DUP10 ADD SSTORE MLOAD PUSH1 0x2 DUP9 ADD DUP1 SLOAD PUSH1 0xFF NOT AND SWAP2 ISZERO ISZERO PUSH1 0xFF AND SWAP2 SWAP1 SWAP2 OR SWAP1 SSTORE JUMP JUMPDEST MLOAD PUSH1 0x3 DUP7 ADD SSTORE MLOAD PUSH1 0x4 DUP6 ADD SSTORE MLOAD PUSH1 0x5 DUP5 ADD DUP1 SLOAD PUSH1 0x1 PUSH1 0x1 PUSH1 0xA0 SHL SUB NOT AND PUSH1 0x1 PUSH1 0x1 PUSH1 0xA0 SHL SUB SWAP3 SWAP1 SWAP3 AND SWAP2 SWAP1 SWAP2 OR SWAP1 SSTORE MLOAD SWAP2 ADD SSTORE MLOAD CALLER DUP2 MSTORE TIMESTAMP PUSH1 0x20 DUP3 ADD MSTORE DUP1 PUSH1 0x40 DUP2 ADD JUMPDEST SUB SWAP1 LOG2 DUP1 RETURN JUMPDEST PUSH4 0x4E487B71 PUSH1 0xE0 SHL DUP13 MSTORE PUSH1 0x4 DUP13 SWAP1 MSTORE PUSH1 0x24 DUP13 REVERT JUMPDEST PUSH4 0x4E487B71 PUSH1 0xE0 SHL DUP14 MSTORE PUSH1 0x41 PUSH1 0x4 MSTORE PUSH1 0x24 DUP14 REVERT JUMPDEST PUSH1 0x5 ADD SWAP2 PUSH1 0x1 PUSH1 0x1 PUSH1 0x40 SHL SUB DUP3 GT PUSH2 0x839 JUMPI DUP2 SWAP1 PUSH2 0x799 DUP3 PUSH2 0x793 DUP7 SLOAD PUSH2 0x3320 JUMP JUMPDEST DUP7 PUSH2 0x38E2 JUMP JUMPDEST PUSH1 0x20 SWAP1 PUSH1 0x1F DUP4 GT PUSH1 0x1 EQ PUSH2 0x7D6 JUMPI DUP8 SWAP3 PUSH2 0x7CB JUMPI JUMPDEST POP POP DUP2 PUSH1 0x1 SHL SWAP2 PUSH1 0x0 NOT SWAP1 PUSH1 0x3 SHL SHR NOT AND OR SWAP1 SSTORE JUMPDEST CODESIZE DUP1 DUP1 PUSH2 0x5FB JUMP JUMPDEST ADD MLOAD SWAP1 POP CODESIZE DUP1 PUSH2 0x7AE JUMP JUMPDEST DUP5 DUP9 MSTORE DUP2 DUP9 KECCAK256 SWAP3 POP PUSH1 0x1F NOT DUP5 AND DUP9 JUMPDEST DUP2 DUP2 LT PUSH2 0x821 JUMPI POP SWAP1 DUP5 PUSH1 0x1 SWAP6 SWAP5 SWAP4 SWAP3 LT PUSH2 0x808 JUMPI JUMPDEST POP POP POP DUP2 SHL ADD SWAP1 SSTORE PUSH2 0x7C3 JUMP JUMPDEST ADD MLOAD PUSH1 0x0 NOT PUSH1 0xF8 DUP5 PUSH1 0x3 SHL AND SHR NOT AND SWAP1 SSTORE CODESIZE DUP1 DUP1 PUSH2 0x7FB JUMP JUMPDEST SWAP3 SWAP4 PUSH1 0x20 PUSH1 0x1 DUP2 SWAP3 DUP8 DUP7 ADD MLOAD DUP2 SSTORE ADD SWAP6 ADD SWAP4 ADD PUSH2 0x7E5 JUMP JUMPDEST PUSH4 0x4E487B71 PUSH1 0xE0 SHL DUP7 MSTORE PUSH1 0x41 PUSH1 0x4 MSTORE PUSH1 0x24 DUP7 REVERT JUMPDEST DUP4 MLOAD PUSH3 0x461BCD PUSH1 0xE5 SHL DUP2 MSTORE PUSH1 0x20 PUSH1 0x4 DUP3 ADD MSTORE PUSH1 0x1D PUSH1 0x24 DUP3 ADD MSTORE PUSH32 0x4D61696E74656E616E636520616C726561647920636F6D706C65746564000000 PUSH1 0x44 DUP3 ADD MSTORE PUSH1 0x64 SWAP1 REVERT JUMPDEST PUSH4 0x4E487B71 PUSH1 0xE0 SHL DUP7 MSTORE PUSH1 0x11 PUSH1 0x4 MSTORE PUSH1 0x24 DUP7 REVERT JUMPDEST DUP4 MLOAD PUSH3 0x461BCD PUSH1 0xE5 SHL DUP2 MSTORE PUSH1 0x20 PUSH1 0x4 DUP3 ADD MSTORE PUSH1 0x1B PUSH1 0x24 DUP3 ADD MSTORE PUSH32 0x4E6F206D61696E74656E616E6365207265636F726420666F756E640000000000 PUSH1 0x44 DUP3 ADD MSTORE PUSH1 0x64 SWAP1 REVERT JUMPDEST DUP2 MLOAD PUSH3 0x461BCD PUSH1 0xE5 SHL DUP2 MSTORE PUSH1 0x20 PUSH1 0x4 DUP3 ADD MSTORE PUSH1 0x2B PUSH1 0x24 DUP3 ADD MSTORE PUSH32 0x4173736574206D75737420626520756E646572206D61696E74656E616E636520 PUSH1 0x44 DUP3 ADD MSTORE PUSH11 0x746F20636F6D706C657465 PUSH1 0xA8 SHL PUSH1 0x64 DUP3 ADD MSTORE PUSH1 0x84 SWAP1 REVERT JUMPDEST PUSH4 0x4E487B71 PUSH1 0xE0 SHL DUP5 MSTORE PUSH1 0x21 PUSH1 0x4 MSTORE PUSH1 0x24 DUP5 REVERT JUMPDEST POP CALLVALUE PUSH2 0x23A JUMPI PUSH1 0x20 CALLDATASIZE PUSH1 0x3 NOT ADD SLT PUSH2 0x23A JUMPI PUSH1 0x4 CALLDATALOAD SWAP1 PUSH1 0xB SLOAD DUP3 LT ISZERO PUSH2 0x23A JUMPI PUSH1 0x20 PUSH2 0x980 DUP4 PUSH2 0x32C4 JUMP JUMPDEST SWAP1 SLOAD PUSH1 0x40 MLOAD PUSH1 0x3 SWAP3 SWAP1 SWAP3 SHL SHR PUSH1 0x1 PUSH1 0x1 PUSH1 0xA0 SHL SUB AND DUP2 MSTORE RETURN JUMPDEST POP CALLVALUE PUSH2 0x23A JUMPI PUSH2 0x9A8 CALLDATASIZE PUSH2 0x327D JUMP JUMPDEST SWAP2 SWAP1 DUP2 MSTORE PUSH1 0x1 PUSH1 0x20 MSTORE PUSH1 0x40 DUP2 KECCAK256 SWAP1 DUP2 SLOAD DUP4 LT ISZERO PUSH2 0x23A JUMPI PUSH2 0x100 PUSH2 0x9CC DUP5 DUP5 PUSH2 0x3514 JUMP JUMPDEST POP DUP1 SLOAD SWAP1 PUSH1 0x1 DUP2 ADD SLOAD SWAP1 PUSH1 0xFF PUSH1 0x2 DUP3 ADD SLOAD AND PUSH1 0x3 DUP3 ADD SLOAD PUSH1 0x4 DUP4 ADD SLOAD SWAP2 PUSH1 0x6 PUSH1 0x1 DUP1 PUSH1 0xA0 SHL SUB PUSH1 0x5 DUP7 ADD SLOAD AND SWAP5 ADD SLOAD SWAP5 PUSH1 0x40 MLOAD SWAP7 PUSH1 0xFF DUP2 AND ISZERO ISZERO DUP9 MSTORE PUSH1 0x1 DUP1 PUSH1 0xA0 SHL SUB SWAP1 PUSH1 0x8 SHR AND PUSH1 0x20 DUP9 ADD MSTORE PUSH1 0x40 DUP8 ADD MSTORE ISZERO ISZERO PUSH1 0x60 DUP7 ADD MSTORE PUSH1 0x80 DUP6 ADD MSTORE PUSH1 0xA0 DUP5 ADD MSTORE PUSH1 0xC0 DUP4 ADD MSTORE PUSH1 0xE0 DUP3 ADD MSTORE RETURN JUMPDEST POP CALLVALUE PUSH2 0x23A JUMPI PUSH1 0x20 CALLDATASIZE PUSH1 0x3 NOT ADD SLT PUSH2 0x23A JUMPI PUSH2 0xA55 PUSH2 0x3262 JUMP JUMPDEST CALLER DUP3 MSTORE PUSH1 0x5 PUSH1 0x20 MSTORE PUSH1 0xFF PUSH1 0x40 DUP4 KECCAK256 SLOAD AND PUSH1 0x4 DUP2 LT ISZERO PUSH2 0xC18 JUMPI PUSH1 0x3 PUSH2 0xA7A SWAP2 EQ PUSH2 0x35F8 JUMP JUMPDEST PUSH1 0x1 PUSH1 0x1 PUSH1 0xA0 SHL SUB AND DUP1 DUP3 MSTORE PUSH1 0xA PUSH1 0x20 MSTORE PUSH1 0x40 DUP3 KECCAK256 SLOAD SWAP1 SWAP2 SWAP1 PUSH2 0xA9F SWAP1 PUSH1 0xFF AND PUSH2 0x36FB JUMP JUMPDEST DUP2 DUP2 MSTORE PUSH1 0x5 PUSH1 0x20 MSTORE PUSH1 0x40 DUP2 KECCAK256 PUSH1 0x1 PUSH1 0xFF NOT DUP3 SLOAD AND OR SWAP1 SSTORE DUP2 DUP2 MSTORE PUSH1 0xA PUSH1 0x20 MSTORE PUSH1 0x40 DUP2 KECCAK256 PUSH1 0xFF NOT DUP2 SLOAD AND SWAP1 SSTORE DUP1 JUMPDEST PUSH1 0xB SLOAD DUP1 DUP3 LT ISZERO PUSH2 0xC0F JUMPI DUP4 PUSH2 0xAE1 DUP4 PUSH2 0x32C4 JUMP JUMPDEST SWAP1 SLOAD PUSH1 0x3 SWAP2 SWAP1 SWAP2 SHL SHR PUSH1 0x1 PUSH1 0x1 PUSH1 0xA0 SHL SUB AND EQ PUSH2 0xB01 JUMPI POP PUSH1 0x1 ADD PUSH2 0xACC JUMP JUMPDEST SWAP1 SWAP3 SWAP1 PUSH1 0x0 NOT DUP2 ADD SWAP1 DUP2 GT PUSH2 0xBFB JUMPI DUP3 SWAP4 PUSH2 0xB39 PUSH2 0xB21 PUSH2 0xB5D SWAP4 PUSH2 0x32C4 JUMP JUMPDEST SWAP1 SLOAD PUSH1 0x3 SWAP2 SWAP1 SWAP2 SHL SHR PUSH1 0x1 PUSH1 0x1 PUSH1 0xA0 SHL SUB AND SWAP2 PUSH2 0x32C4 JUMP JUMPDEST DUP2 SLOAD PUSH1 0x1 PUSH1 0x1 PUSH1 0xA0 SHL SUB SWAP4 DUP5 AND PUSH1 0x3 SWAP3 SWAP1 SWAP3 SHL SWAP2 DUP3 SHL SWAP4 SWAP1 SWAP2 SHL NOT AND SWAP2 SWAP1 SWAP2 OR SWAP1 SSTORE JUMP JUMPDEST PUSH2 0xB65 PUSH2 0x36DB JUMP JUMPDEST PUSH32 0xFBB0A472171A6EB950C8A87421215268A1B2DF816DA0A48E920E72ADE27CFCF7 PUSH1 0x20 PUSH1 0x40 MLOAD DUP4 DUP2 MSTORE LOG1 DUP2 SLOAD PUSH1 0x1 PUSH1 0x1 PUSH1 0xA0 SHL SUB AND SWAP1 DUP2 EXTCODESIZE ISZERO PUSH2 0xBF7 JUMPI DUP3 SWAP2 PUSH1 0x44 DUP4 SWAP3 PUSH1 0x40 MLOAD SWAP5 DUP6 SWAP4 DUP5 SWAP3 PUSH4 0x142F3FC5 PUSH1 0xE3 SHL DUP5 MSTORE PUSH1 0x4 DUP5 ADD MSTORE PUSH7 0x2386F26FC10000 PUSH1 0x24 DUP5 ADD MSTORE GAS CALL DUP1 ISZERO PUSH2 0xBEC JUMPI PUSH2 0xBDB JUMPI POP RETURN JUMPDEST DUP2 PUSH2 0xBE5 SWAP2 PUSH2 0x342A JUMP JUMPDEST PUSH2 0x23A JUMPI DUP1 RETURN JUMPDEST PUSH1 0x40 MLOAD RETURNDATASIZE DUP5 DUP3 RETURNDATACOPY RETURNDATASIZE SWAP1 REVERT JUMPDEST POP POP REVERT JUMPDEST PUSH4 0x4E487B71 PUSH1 0xE0 SHL DUP4 MSTORE PUSH1 0x11 PUSH1 0x4 MSTORE PUSH1 0x24 DUP4 REVERT JUMPDEST POP POP DUP1 SWAP2 PUSH2 0xB65 JUMP JUMPDEST PUSH4 0x4E487B71 PUSH1 0xE0 SHL DUP4 MSTORE PUSH1 0x21 PUSH1 0x4 MSTORE PUSH1 0x24 DUP4 REVERT JUMPDEST POP CALLVALUE PUSH2 0x23A JUMPI PUSH1 0x20 CALLDATASIZE PUSH1 0x3 NOT ADD SLT PUSH2 0x23A JUMPI PUSH1 0x40 SWAP1 PUSH1 0x4 CALLDATALOAD DUP2 MSTORE PUSH1 0x2 PUSH1 0x20 MSTORE KECCAK256 DUP1 SLOAD PUSH1 0x40 MLOAD SWAP2 PUSH2 0xC6A DUP4 PUSH2 0xC63 DUP2 PUSH1 0x1 DUP6 ADD PUSH2 0x335A JUMP JUMPDEST SUB DUP5 PUSH2 0x342A JUMP JUMPDEST PUSH2 0xCD8 PUSH1 0x1 DUP1 PUSH1 0xA0 SHL SUB PUSH1 0x2 DUP4 ADD SLOAD AND PUSH1 0x3 DUP4 ADD SLOAD SWAP3 PUSH1 0xFF PUSH1 0x5 PUSH1 0x40 MLOAD SWAP3 PUSH2 0xCA0 DUP5 PUSH2 0xC99 DUP2 PUSH1 0x4 DUP6 ADD PUSH2 0x335A JUMP JUMPDEST SUB DUP6 PUSH2 0x342A JUMP JUMPDEST ADD SLOAD AND SWAP4 PUSH2 0xCC0 PUSH1 0x40 MLOAD SWAP8 DUP9 SWAP8 DUP9 MSTORE PUSH1 0xC0 PUSH1 0x20 DUP10 ADD MSTORE PUSH1 0xC0 DUP9 ADD SWAP1 PUSH2 0x344B JUMP JUMPDEST SWAP3 PUSH1 0x40 DUP8 ADD MSTORE PUSH1 0x60 DUP7 ADD MSTORE DUP5 DUP3 SUB PUSH1 0x80 DUP7 ADD MSTORE PUSH2 0x344B JUMP JUMPDEST SWAP1 ISZERO ISZERO PUSH1 0xA0 DUP4 ADD MSTORE SUB SWAP1 RETURN JUMPDEST POP CALLVALUE PUSH2 0x23A JUMPI PUSH2 0xCF3 CALLDATASIZE PUSH2 0x34E2 JUMP JUMPDEST CALLER DUP4 MSTORE PUSH1 0x5 PUSH1 0x20 MSTORE PUSH1 0xFF PUSH1 0x40 DUP5 KECCAK256 SLOAD AND PUSH1 0x4 DUP2 LT ISZERO PUSH2 0x941 JUMPI PUSH1 0x1 SUB PUSH2 0xF84 JUMPI PUSH2 0xD20 PUSH1 0x8 SLOAD DUP4 LT PUSH2 0x379D JUMP JUMPDEST DUP2 DUP4 MSTORE PUSH1 0x2 PUSH1 0x20 MSTORE PUSH2 0xD3C PUSH1 0xFF PUSH1 0x5 PUSH1 0x40 DUP7 KECCAK256 ADD SLOAD AND ISZERO PUSH2 0x37E0 JUMP JUMPDEST DUP2 DUP4 MSTORE PUSH1 0x2 PUSH1 0x20 MSTORE PUSH2 0x515 PUSH2 0xD5D PUSH1 0x1 PUSH1 0x40 DUP7 KECCAK256 ADD PUSH1 0x40 MLOAD SWAP3 DUP4 DUP1 SWAP3 PUSH2 0x335A JUMP JUMPDEST PUSH1 0x20 DUP2 MLOAD SWAP2 ADD KECCAK256 SWAP1 PUSH1 0x40 SWAP2 PUSH1 0xB PUSH1 0x20 DUP5 MLOAD PUSH2 0xD78 DUP7 DUP3 PUSH2 0x342A JUMP JUMPDEST DUP3 DUP2 MSTORE ADD PUSH11 0x13DC195C985D1A5BDB985B PUSH1 0xAA SHL DUP2 MSTORE KECCAK256 SUB PUSH2 0xF28 JUMPI DUP3 DUP5 MSTORE PUSH1 0x2 PUSH1 0x20 MSTORE PUSH1 0x1 DUP3 DUP6 KECCAK256 ADD PUSH2 0xDAB DUP2 SLOAD PUSH2 0x3320 JUMP JUMPDEST PUSH1 0x1F DUP2 GT PUSH2 0xF09 JUMPI JUMPDEST POP PUSH1 0xC PUSH6 0x213937B5B2B7 PUSH1 0xD1 SHL ADD SWAP1 SSTORE DUP3 DUP5 MSTORE PUSH1 0x2 PUSH1 0x20 MSTORE PUSH1 0x4 DUP3 DUP6 KECCAK256 ADD DUP2 MLOAD PUSH1 0x1 PUSH1 0x1 PUSH1 0x40 SHL SUB DUP2 GT PUSH2 0x839 JUMPI PUSH2 0xDF6 DUP2 PUSH2 0xDF0 DUP5 SLOAD PUSH2 0x3320 JUMP JUMPDEST DUP5 PUSH2 0x38E2 JUMP JUMPDEST PUSH1 0x20 PUSH1 0x1F DUP3 GT PUSH1 0x1 EQ PUSH2 0xE80 JUMPI SWAP3 PUSH32 0x8197465751FE71AA67B1E8F6325CD9377D42FE6A81DB402A1166BE1074653B31 SWAP5 SWAP3 DUP3 PUSH2 0x743 SWAP4 PUSH1 0x6 SWAP7 DUP11 SWAP2 PUSH2 0xE75 JUMPI JUMPDEST POP DUP2 PUSH1 0x1 SHL SWAP2 PUSH1 0x0 NOT SWAP1 PUSH1 0x3 SHL SHR NOT AND OR SWAP1 SSTORE JUMPDEST DUP3 MLOAD SWAP4 DUP4 DUP6 SWAP5 DUP6 MSTORE DUP5 ADD MSTORE PUSH6 0x213937B5B2B7 PUSH1 0xD1 SHL PUSH1 0x60 DUP5 ADD MSTORE PUSH1 0x80 PUSH1 0x20 DUP5 ADD MSTORE PUSH1 0x80 DUP4 ADD SWAP1 PUSH2 0x344B JUMP JUMPDEST SWAP1 POP DUP4 ADD MLOAD CODESIZE PUSH2 0xE36 JUMP JUMPDEST DUP3 DUP8 MSTORE DUP1 DUP8 KECCAK256 SWAP1 PUSH1 0x1F NOT DUP4 AND DUP9 JUMPDEST DUP2 DUP2 LT PUSH2 0xEF1 JUMPI POP DUP4 PUSH1 0x6 SWAP7 SWAP4 PUSH32 0x8197465751FE71AA67B1E8F6325CD9377D42FE6A81DB402A1166BE1074653B31 SWAP9 SWAP7 SWAP4 PUSH2 0x743 SWAP7 PUSH1 0x1 SWAP5 LT PUSH2 0xED8 JUMPI JUMPDEST POP POP DUP2 SHL ADD SWAP1 SSTORE PUSH2 0xE4A JUMP JUMPDEST DUP6 ADD MLOAD PUSH1 0x0 NOT PUSH1 0xF8 DUP5 PUSH1 0x3 SHL AND SHR NOT AND SWAP1 SSTORE CODESIZE DUP1 PUSH2 0xECC JUMP JUMPDEST SWAP2 SWAP3 PUSH1 0x20 PUSH1 0x1 DUP2 SWAP3 DUP7 DUP11 ADD MLOAD DUP2 SSTORE ADD SWAP5 ADD SWAP3 ADD PUSH2 0xE8E JUMP JUMPDEST DUP2 DUP7 MSTORE PUSH1 0x20 DUP7 KECCAK256 PUSH2 0xF22 SWAP2 PUSH1 0x1F ADD PUSH1 0x5 SHR DUP2 ADD SWAP1 PUSH2 0x38A1 JUMP JUMPDEST CODESIZE PUSH2 0xDB4 JUMP JUMPDEST DUP2 MLOAD PUSH3 0x461BCD PUSH1 0xE5 SHL DUP2 MSTORE PUSH1 0x20 PUSH1 0x4 DUP3 ADD MSTORE PUSH1 0x2F PUSH1 0x24 DUP3 ADD MSTORE PUSH32 0x4173736574206D757374206265206F7065726174696F6E616C20746F20726570 PUSH1 0x44 DUP3 ADD MSTORE PUSH15 0x1BDC9D0818481B995DC819985D5B1D PUSH1 0x8A SHL PUSH1 0x64 DUP3 ADD MSTORE PUSH1 0x84 SWAP1 REVERT JUMPDEST PUSH1 0x40 MLOAD PUSH3 0x461BCD PUSH1 0xE5 SHL DUP2 MSTORE PUSH1 0x20 PUSH1 0x4 DUP3 ADD MSTORE PUSH1 0x2D PUSH1 0x24 DUP3 ADD MSTORE PUSH32 0x4F6E6C7920726567697374657265642055736572732063616E20706572666F72 PUSH1 0x44 DUP3 ADD MSTORE PUSH13 0x36903A3434B99030B1BA34B7B7 PUSH1 0x99 SHL PUSH1 0x64 DUP3 ADD MSTORE PUSH1 0x84 SWAP1 REVERT JUMPDEST POP CALLVALUE PUSH2 0x23A JUMPI DUP1 PUSH1 0x3 NOT CALLDATASIZE ADD SLT PUSH2 0x23A JUMPI CALLER DUP2 MSTORE PUSH1 0x5 PUSH1 0x20 MSTORE PUSH1 0xFF PUSH1 0x40 DUP3 KECCAK256 SLOAD AND PUSH1 0x4 DUP2 LT ISZERO PUSH2 0x3A6 JUMPI PUSH2 0x1075 JUMPI CALLER DUP2 MSTORE PUSH1 0xA PUSH1 0x20 MSTORE PUSH1 0x40 DUP2 KECCAK256 DUP1 SLOAD PUSH1 0xFF NOT AND PUSH1 0x1 OR SWAP1 SSTORE PUSH1 0xB SLOAD PUSH1 0x1 PUSH1 0x40 SHL DUP2 LT ISZERO PUSH2 0x303 JUMPI PUSH2 0x2BD DUP2 PUSH1 0x1 PUSH2 0x1048 SWAP4 ADD PUSH1 0xB SSTORE PUSH1 0xB PUSH2 0x32DF JUMP JUMPDEST PUSH32 0x39539B618F1922C04929430780D204C380802C4E22361E21A72BB3A62B667F4B PUSH1 0x20 PUSH1 0x40 MLOAD CALLER DUP2 MSTORE LOG1 DUP1 RETURN JUMPDEST PUSH1 0x40 MLOAD PUSH3 0x461BCD PUSH1 0xE5 SHL DUP2 MSTORE PUSH1 0x20 PUSH1 0x4 DUP3 ADD MSTORE PUSH1 0x12 PUSH1 0x24 DUP3 ADD MSTORE PUSH18 0x105B1C9958591E481C9959DA5CDD195C9959 PUSH1 0x72 SHL PUSH1 0x44 DUP3 ADD MSTORE PUSH1 0x64 SWAP1 REVERT JUMPDEST POP CALLVALUE PUSH2 0x23A JUMPI DUP1 PUSH1 0x3 NOT CALLDATASIZE ADD SLT PUSH2 0x23A JUMPI SLOAD PUSH1 0x40 MLOAD PUSH1 0x1 PUSH1 0x1 PUSH1 0xA0 SHL SUB SWAP1 SWAP2 AND DUP2 MSTORE PUSH1 0x20 SWAP1 RETURN JUMPDEST POP CALLVALUE PUSH2 0x23A JUMPI PUSH1 0x20 CALLDATASIZE PUSH1 0x3 NOT ADD SLT PUSH2 0x23A JUMPI PUSH1 0x20 SWAP1 PUSH1 0xFF SWAP1 PUSH1 0x40 SWAP1 PUSH1 0x1 PUSH1 0x1 PUSH1 0xA0 SHL SUB PUSH2 0x1101 PUSH2 0x3262 JUMP JUMPDEST AND DUP2 MSTORE PUSH1 0xA DUP5 MSTORE KECCAK256 SLOAD AND PUSH1 0x40 MLOAD SWAP1 ISZERO ISZERO DUP2 MSTORE RETURN JUMPDEST POP CALLVALUE PUSH2 0x23A JUMPI PUSH1 0x20 CALLDATASIZE PUSH1 0x3 NOT ADD SLT PUSH2 0x23A JUMPI PUSH2 0x112F PUSH2 0x3262 JUMP JUMPDEST CALLER DUP3 MSTORE PUSH1 0x5 PUSH1 0x20 MSTORE PUSH1 0xFF PUSH1 0x40 DUP4 KECCAK256 SLOAD AND PUSH1 0x4 DUP2 LT ISZERO PUSH2 0xC18 JUMPI PUSH1 0x3 PUSH2 0x1154 SWAP2 EQ PUSH2 0x35F8 JUMP JUMPDEST PUSH1 0x1 PUSH1 0x1 PUSH1 0xA0 SHL SUB AND DUP1 DUP3 MSTORE PUSH1 0x6 PUSH1 0x20 MSTORE PUSH1 0x40 DUP3 KECCAK256 SLOAD PUSH2 0x1176 SWAP1 PUSH1 0xFF AND PUSH2 0x364F JUMP JUMPDEST DUP1 DUP3 MSTORE PUSH1 0x5 PUSH1 0x20 MSTORE PUSH1 0x40 DUP3 KECCAK256 PUSH1 0x2 PUSH1 0xFF NOT DUP3 SLOAD AND OR SWAP1 SSTORE DUP1 DUP3 MSTORE PUSH1 0x6 PUSH1 0x20 MSTORE PUSH1 0x40 DUP3 KECCAK256 PUSH1 0xFF NOT DUP2 SLOAD AND SWAP1 SSTORE DUP2 JUMPDEST PUSH1 0x7 SLOAD DUP1 DUP3 LT ISZERO PUSH2 0x124F JUMPI DUP3 PUSH2 0x11B8 DUP4 PUSH2 0x3293 JUMP JUMPDEST SWAP1 SLOAD PUSH1 0x3 SWAP2 SWAP1 SWAP2 SHL SHR PUSH1 0x1 PUSH1 0x1 PUSH1 0xA0 SHL SUB AND EQ PUSH2 0x11D8 JUMPI POP PUSH1 0x1 ADD PUSH2 0x11A3 JUMP JUMPDEST PUSH1 0x0 NOT DUP2 ADD SWAP1 DUP2 GT PUSH2 0x123B JUMPI SWAP1 PUSH2 0xB39 PUSH2 0x11F4 PUSH2 0x120C SWAP4 PUSH2 0x3293 JUMP JUMPDEST SWAP1 SLOAD PUSH1 0x3 SWAP2 SWAP1 SWAP2 SHL SHR PUSH1 0x1 PUSH1 0x1 PUSH1 0xA0 SHL SUB AND SWAP2 PUSH2 0x3293 JUMP JUMPDEST PUSH2 0x1214 PUSH2 0x3690 JUMP JUMPDEST PUSH32 0x3E2B9852773678E9BAB26FFFB152F2C6D1D685A372C6DFAD53141CE3F10927A1 DUP3 DUP1 LOG2 DUP1 RETURN JUMPDEST PUSH4 0x4E487B71 PUSH1 0xE0 SHL DUP5 MSTORE PUSH1 0x11 PUSH1 0x4 MSTORE PUSH1 0x24 DUP5 REVERT JUMPDEST POP POP PUSH2 0x1214 JUMP JUMPDEST POP CALLVALUE PUSH2 0x23A JUMPI PUSH2 0x1265 CALLDATASIZE PUSH2 0x34E2 JUMP JUMPDEST SWAP2 SWAP1 CALLER DUP3 MSTORE PUSH1 0x5 PUSH1 0x20 MSTORE PUSH1 0xFF PUSH1 0x40 DUP4 KECCAK256 SLOAD AND PUSH1 0x4 DUP2 LT ISZERO PUSH2 0xC18 JUMPI PUSH1 0x2 PUSH2 0x128C SWAP2 EQ PUSH2 0x3735 JUMP JUMPDEST DUP1 DUP3 MSTORE PUSH1 0x2 PUSH1 0x20 MSTORE PUSH2 0x12A8 PUSH1 0xFF PUSH1 0x5 PUSH1 0x40 DUP6 KECCAK256 ADD SLOAD AND ISZERO PUSH2 0x37E0 JUMP JUMPDEST DUP1 DUP3 MSTORE PUSH1 0x3 PUSH1 0x20 MSTORE PUSH1 0x9 PUSH1 0x40 DUP4 KECCAK256 ADD DUP4 MLOAD PUSH1 0x1 PUSH1 0x1 PUSH1 0x40 SHL SUB DUP2 GT PUSH2 0x14EA JUMPI PUSH2 0x12D5 DUP2 PUSH2 0xDF0 DUP5 SLOAD PUSH2 0x3320 JUMP JUMPDEST DUP1 PUSH1 0x20 PUSH1 0x1F DUP3 GT PUSH1 0x1 EQ PUSH2 0x1489 JUMPI DUP6 SWAP2 PUSH2 0x147E JUMPI JUMPDEST POP DUP2 PUSH1 0x1 SHL SWAP2 PUSH1 0x0 NOT SWAP1 PUSH1 0x3 SHL SHR NOT AND OR SWAP1 SSTORE JUMPDEST DUP2 MSTORE PUSH1 0x4 PUSH1 0x20 MSTORE PUSH1 0x40 DUP2 KECCAK256 DUP1 SLOAD SWAP1 DUP2 ISZERO PUSH2 0x1439 JUMPI PUSH1 0x0 NOT DUP3 ADD SWAP2 DUP3 GT PUSH2 0xBFB JUMPI SWAP1 PUSH2 0x1328 SWAP2 PUSH2 0x3530 JUMP JUMPDEST POP PUSH1 0x1 DUP2 ADD SLOAD PUSH2 0x1400 JUMPI PUSH1 0x4 ADD DUP3 MLOAD PUSH1 0x1 PUSH1 0x1 PUSH1 0x40 SHL SUB DUP2 GT PUSH2 0x13EC JUMPI PUSH2 0x1353 DUP2 PUSH2 0xDF0 DUP5 SLOAD PUSH2 0x3320 JUMP JUMPDEST PUSH1 0x20 PUSH1 0x1F DUP3 GT PUSH1 0x1 EQ PUSH2 0x138D JUMPI DUP4 SWAP5 DUP3 SWAP4 SWAP5 SWAP3 PUSH2 0x1382 JUMPI JUMPDEST POP POP DUP2 PUSH1 0x1 SHL SWAP2 PUSH1 0x0 NOT SWAP1 PUSH1 0x3 SHL SHR NOT AND OR SWAP1 SSTORE DUP1 RETURN JUMPDEST ADD MLOAD SWAP1 POP CODESIZE DUP1 PUSH2 0x136B JUMP JUMPDEST DUP3 DUP5 MSTORE DUP1 DUP5 KECCAK256 SWAP1 PUSH1 0x1F NOT DUP4 AND DUP6 JUMPDEST DUP2 DUP2 LT PUSH2 0x13D4 JUMPI POP SWAP6 DUP4 PUSH1 0x1 SWAP6 SWAP7 SWAP8 LT PUSH2 0x13BB JUMPI JUMPDEST POP POP POP DUP2 SHL ADD SWAP1 SSTORE DUP1 RETURN JUMPDEST ADD MLOAD PUSH1 0x0 NOT PUSH1 0xF8 DUP5 PUSH1 0x3 SHL AND SHR NOT AND SWAP1 SSTORE CODESIZE DUP1 DUP1 PUSH2 0x13B0 JUMP JUMPDEST SWAP2 SWAP3 PUSH1 0x20 PUSH1 0x1 DUP2 SWAP3 DUP7 DUP12 ADD MLOAD DUP2 SSTORE ADD SWAP5 ADD SWAP3 ADD PUSH2 0x139B JUMP JUMPDEST PUSH4 0x4E487B71 PUSH1 0xE0 SHL DUP4 MSTORE PUSH1 0x41 PUSH1 0x4 MSTORE PUSH1 0x24 DUP4 REVERT JUMPDEST PUSH1 0x40 MLOAD PUSH3 0x461BCD PUSH1 0xE5 SHL DUP2 MSTORE PUSH1 0x20 PUSH1 0x4 DUP3 ADD MSTORE PUSH1 0x11 PUSH1 0x24 DUP3 ADD MSTORE PUSH17 0x13585A5B9D195B985B98D948195B991959 PUSH1 0x7A SHL PUSH1 0x44 DUP3 ADD MSTORE PUSH1 0x64 SWAP1 REVERT JUMPDEST PUSH1 0x40 MLOAD PUSH3 0x461BCD PUSH1 0xE5 SHL DUP2 MSTORE PUSH1 0x20 PUSH1 0x4 DUP3 ADD MSTORE PUSH1 0x1C PUSH1 0x24 DUP3 ADD MSTORE PUSH32 0x4E6F20616374697665206D61696E74656E616E6365207265636F726400000000 PUSH1 0x44 DUP3 ADD MSTORE PUSH1 0x64 SWAP1 REVERT JUMPDEST SWAP1 POP DUP6 ADD MLOAD CODESIZE PUSH2 0x12EA JUMP JUMPDEST DUP4 DUP7 MSTORE DUP1 DUP7 KECCAK256 SWAP2 POP PUSH1 0x1F NOT DUP4 AND DUP7 JUMPDEST DUP2 DUP2 LT PUSH2 0x14D2 JUMPI POP SWAP1 DUP4 PUSH1 0x1 SWAP5 SWAP4 SWAP3 LT PUSH2 0x14B9 JUMPI JUMPDEST POP POP DUP2 SHL ADD SWAP1 SSTORE PUSH2 0x12FE JUMP JUMPDEST DUP8 ADD MLOAD PUSH1 0x0 NOT PUSH1 0xF8 DUP5 PUSH1 0x3 SHL AND SHR NOT AND SWAP1 SSTORE CODESIZE DUP1 PUSH2 0x14AD JUMP JUMPDEST SWAP2 SWAP3 PUSH1 0x20 PUSH1 0x1 DUP2 SWAP3 DUP7 DUP13 ADD MLOAD DUP2 SSTORE ADD SWAP5 ADD SWAP3 ADD PUSH2 0x1498 JUMP JUMPDEST PUSH4 0x4E487B71 PUSH1 0xE0 SHL DUP5 MSTORE PUSH1 0x41 PUSH1 0x4 MSTORE PUSH1 0x24 DUP5 REVERT JUMPDEST POP CALLVALUE PUSH2 0x23A JUMPI DUP1 PUSH1 0x3 NOT CALLDATASIZE ADD SLT PUSH2 0x23A JUMPI PUSH1 0x20 PUSH1 0x8 SLOAD PUSH1 0x40 MLOAD SWAP1 DUP2 MSTORE RETURN JUMPDEST POP CALLVALUE PUSH2 0x23A JUMPI DUP1 PUSH1 0x3 NOT CALLDATASIZE ADD SLT PUSH2 0x23A JUMPI PUSH1 0x9 SLOAD PUSH1 0x40 MLOAD PUSH1 0x1 PUSH1 0x1 PUSH1 0xA0 SHL SUB SWAP1 SWAP2 AND DUP2 MSTORE PUSH1 0x20 SWAP1 RETURN JUMPDEST POP CALLVALUE PUSH2 0x23A JUMPI PUSH1 0x20 CALLDATASIZE PUSH1 0x3 NOT ADD SLT PUSH2 0x23A JUMPI PUSH1 0x4 CALLDATALOAD CALLER DUP3 MSTORE PUSH1 0x5 PUSH1 0x20 MSTORE PUSH1 0xFF PUSH1 0x40 DUP4 KECCAK256 SLOAD AND PUSH1 0x4 DUP2 LT ISZERO PUSH2 0xC18 JUMPI PUSH1 0x3 PUSH2 0x157F SWAP2 EQ PUSH2 0x35F8 JUMP JUMPDEST PUSH2 0x158C PUSH1 0x8 SLOAD DUP3 LT PUSH2 0x379D JUMP JUMPDEST DUP1 DUP3 MSTORE PUSH1 0x2 PUSH1 0x20 MSTORE PUSH1 0xFF PUSH1 0x5 PUSH1 0x40 DUP5 KECCAK256 ADD SLOAD AND PUSH2 0x15E4 JUMPI DUP1 DUP3 MSTORE PUSH1 0x2 PUSH1 0x20 MSTORE PUSH1 0x40 DUP3 KECCAK256 PUSH1 0x5 ADD DUP1 SLOAD PUSH1 0xFF NOT AND PUSH1 0x1 OR SWAP1 SSTORE PUSH32 0xA688C45CD59C2527AE60C477DE2510CF8CEC40AA54DEF51BAE6C2725468871A2 DUP3 DUP1 LOG2 DUP1 RETURN JUMPDEST PUSH1 0x40 MLOAD PUSH3 0x461BCD PUSH1 0xE5 SHL DUP2 MSTORE PUSH1 0x20 PUSH1 0x4 DUP3 ADD MSTORE PUSH1 0x15 PUSH1 0x24 DUP3 ADD MSTORE PUSH21 0x105CDCD95D08185B1C9958591E4819195B195D1959 PUSH1 0x5A SHL PUSH1 0x44 DUP3 ADD MSTORE PUSH1 0x64 SWAP1 REVERT JUMPDEST POP CALLVALUE PUSH2 0x23A JUMPI PUSH1 0x20 CALLDATASIZE PUSH1 0x3 NOT ADD SLT PUSH2 0x23A JUMPI PUSH2 0x163B PUSH2 0x3262 JUMP JUMPDEST CALLER DUP3 MSTORE PUSH1 0x5 PUSH1 0x20 MSTORE PUSH1 0xFF PUSH1 0x40 DUP4 KECCAK256 SLOAD AND PUSH1 0x4 DUP2 LT ISZERO PUSH2 0xC18 JUMPI PUSH1 0x3 PUSH2 0x1660 SWAP2 EQ PUSH2 0x35F8 JUMP JUMPDEST DUP2 SLOAD PUSH1 0x1 PUSH1 0x1 PUSH1 0xA0 SHL SUB NOT AND PUSH1 0x1 PUSH1 0x1 PUSH1 0xA0 SHL SUB SWAP2 SWAP1 SWAP2 AND OR DUP2 SSTORE DUP1 RETURN JUMPDEST POP CALLVALUE PUSH2 0x23A JUMPI PUSH2 0x140 CALLDATASIZE PUSH1 0x3 NOT ADD SLT PUSH2 0x23A JUMPI PUSH1 0x4 CALLDATALOAD PUSH1 0x1 PUSH1 0x1 PUSH1 0x40 SHL SUB DUP2 GT PUSH2 0x1F6C JUMPI PUSH2 0x16B0 SWAP1 CALLDATASIZE SWAP1 PUSH1 0x4 ADD PUSH2 0x348C JUMP JUMPDEST PUSH1 0x24 CALLDATALOAD PUSH1 0x1 PUSH1 0x1 PUSH1 0x40 SHL SUB DUP2 GT PUSH2 0x493 JUMPI PUSH2 0x16CF SWAP1 CALLDATASIZE SWAP1 PUSH1 0x4 ADD PUSH2 0x348C JUMP JUMPDEST SWAP1 PUSH1 0x44 CALLDATALOAD PUSH1 0x64 CALLDATALOAD PUSH1 0x84 CALLDATALOAD PUSH1 0x1 PUSH1 0x1 PUSH1 0x40 SHL SUB DUP2 GT PUSH2 0x1F68 JUMPI PUSH2 0x16F5 SWAP1 CALLDATASIZE SWAP1 PUSH1 0x4 ADD PUSH2 0x348C JUMP JUMPDEST SWAP4 PUSH1 0xA4 CALLDATALOAD PUSH1 0x1 PUSH1 0x1 PUSH1 0x40 SHL SUB DUP2 GT PUSH2 0x1F64 JUMPI PUSH2 0x1715 SWAP1 CALLDATASIZE SWAP1 PUSH1 0x4 ADD PUSH2 0x348C JUMP JUMPDEST SWAP5 PUSH1 0xC4 CALLDATALOAD PUSH1 0x1 PUSH1 0x1 PUSH1 0x40 SHL SUB DUP2 GT PUSH2 0x1F60 JUMPI PUSH2 0x1735 SWAP1 CALLDATASIZE SWAP1 PUSH1 0x4 ADD PUSH2 0x348C JUMP JUMPDEST SWAP1 PUSH1 0xE4 CALLDATALOAD PUSH1 0x1 PUSH1 0x1 PUSH1 0x40 SHL SUB DUP2 GT PUSH2 0x1F5C JUMPI PUSH2 0x1755 SWAP1 CALLDATASIZE SWAP1 PUSH1 0x4 ADD PUSH2 0x348C JUMP JUMPDEST PUSH2 0x104 CALLDATALOAD PUSH1 0x1 PUSH1 0x1 PUSH1 0x40 SHL SUB DUP2 GT PUSH2 0x1F58 JUMPI PUSH2 0x1775 SWAP1 CALLDATASIZE SWAP1 PUSH1 0x4 ADD PUSH2 0x348C JUMP JUMPDEST SWAP1 PUSH2 0x124 CALLDATALOAD PUSH1 0x1 PUSH1 0x1 PUSH1 0x40 SHL SUB DUP2 GT PUSH2 0x1F54 JUMPI PUSH2 0x1796 SWAP1 CALLDATASIZE SWAP1 PUSH1 0x4 ADD PUSH2 0x348C JUMP JUMPDEST SWAP4 CALLER DUP12 MSTORE PUSH1 0x5 PUSH1 0x20 MSTORE PUSH1 0xFF PUSH1 0x40 DUP13 KECCAK256 SLOAD AND PUSH1 0x4 DUP2 LT ISZERO PUSH2 0x1F40 JUMPI PUSH1 0x3 PUSH2 0x17BC SWAP2 EQ PUSH2 0x35F8 JUMP JUMPDEST PUSH1 0x8 SLOAD SWAP10 PUSH2 0x17C9 DUP12 PUSH2 0x35D3 JUMP JUMPDEST PUSH1 0x8 SSTORE DUP11 DUP13 MSTORE PUSH1 0x2 PUSH1 0x20 MSTORE DUP12 PUSH1 0x4 PUSH1 0x40 DUP3 KECCAK256 DUP14 DUP2 SSTORE PUSH1 0x5 DUP2 ADD PUSH1 0xFF NOT DUP2 SLOAD AND SWAP1 SSTORE PUSH1 0x2 DUP2 ADD PUSH12 0xFFFFFFFFFFFFFFFFFFFFFFFF PUSH1 0xA0 SHL DUP2 SLOAD AND SWAP1 SSTORE DUP3 PUSH1 0x3 DUP3 ADD SSTORE PUSH1 0x1 DUP2 ADD PUSH2 0x181A PUSH2 0x573 DUP3 SLOAD PUSH2 0x3320 JUMP JUMPDEST PUSH1 0x16 PUSH11 0x13DC195C985D1A5BDB985B PUSH1 0xAA SHL ADD SWAP1 SSTORE ADD PUSH2 0x183C PUSH2 0x573 DUP3 SLOAD PUSH2 0x3320 JUMP JUMPDEST SSTORE DUP11 DUP13 MSTORE PUSH1 0x3 PUSH1 0x20 MSTORE PUSH1 0x40 DUP13 KECCAK256 SWAP5 DUP11 MLOAD PUSH1 0x1 PUSH1 0x1 PUSH1 0x40 SHL SUB DUP2 GT PUSH2 0x1DCD JUMPI DUP1 DUP15 PUSH2 0x1870 DUP3 PUSH2 0x186A DUP12 SLOAD PUSH2 0x3320 JUMP JUMPDEST DUP12 PUSH2 0x38E2 JUMP JUMPDEST PUSH1 0x20 SWAP1 PUSH1 0x1F DUP4 GT PUSH1 0x1 EQ PUSH2 0x1EDC JUMPI SWAP2 PUSH2 0x1ED1 JUMPI JUMPDEST POP DUP2 PUSH1 0x1 SHL SWAP2 PUSH1 0x0 NOT SWAP1 PUSH1 0x3 SHL SHR NOT AND OR DUP7 SSTORE JUMPDEST PUSH1 0x1 DUP7 ADD DUP9 MLOAD PUSH1 0x1 PUSH1 0x1 PUSH1 0x40 SHL SUB DUP2 GT PUSH2 0x1E4F JUMPI DUP1 DUP16 PUSH2 0x18BC DUP3 PUSH2 0x793 DUP7 SLOAD PUSH2 0x3320 JUMP JUMPDEST PUSH1 0x20 SWAP1 PUSH1 0x1F DUP4 GT PUSH1 0x1 EQ PUSH2 0x1E6E JUMPI SWAP2 PUSH2 0x1E63 JUMPI JUMPDEST POP DUP2 PUSH1 0x1 SHL SWAP2 PUSH1 0x0 NOT SWAP1 PUSH1 0x3 SHL SHR NOT AND OR SWAP1 SSTORE JUMPDEST DUP10 PUSH1 0x2 DUP8 ADD SSTORE DUP9 PUSH1 0x3 DUP8 ADD SSTORE PUSH1 0x4 DUP7 ADD SWAP1 DUP1 MLOAD SWAP1 PUSH1 0x1 PUSH1 0x1 PUSH1 0x40 SHL SUB DUP3 GT PUSH2 0x1E4F JUMPI DUP15 DUP3 SWAP2 PUSH2 0x191D DUP4 PUSH2 0x1917 DUP8 SLOAD PUSH2 0x3320 JUMP JUMPDEST DUP8 PUSH2 0x38E2 JUMP JUMPDEST PUSH1 0x20 SWAP2 PUSH1 0x1F DUP5 GT PUSH1 0x1 EQ PUSH2 0x1DEC JUMPI SWAP3 PUSH2 0x1DE1 JUMPI JUMPDEST POP POP DUP2 PUSH1 0x1 SHL SWAP2 PUSH1 0x0 NOT SWAP1 PUSH1 0x3 SHL SHR NOT AND OR SWAP1 SSTORE JUMPDEST DUP1 MLOAD PUSH1 0x5 DUP7 ADD SWAP2 PUSH1 0x1 PUSH1 0x1 PUSH1 0x40 SHL SUB DUP3 GT PUSH2 0x1DCD JUMPI DUP14 DUP3 SWAP2 PUSH2 0x196C DUP4 PUSH2 0x1917 DUP8 SLOAD PUSH2 0x3320 JUMP JUMPDEST PUSH1 0x20 SWAP2 PUSH1 0x1F DUP5 GT PUSH1 0x1 EQ PUSH2 0x1D6A JUMPI SWAP3 PUSH2 0x1D5F JUMPI JUMPDEST POP POP DUP2 PUSH1 0x1 SHL SWAP2 PUSH1 0x0 NOT SWAP1 PUSH1 0x3 SHL SHR NOT AND OR SWAP1 SSTORE JUMPDEST DUP1 MLOAD PUSH1 0x6 DUP6 ADD SWAP2 PUSH1 0x1 PUSH1 0x1 PUSH1 0x40 SHL SUB DUP3 GT PUSH2 0x75D JUMPI DUP13 DUP3 SWAP2 PUSH2 0x19BB DUP4 PUSH2 0x1917 DUP8 SLOAD PUSH2 0x3320 JUMP JUMPDEST PUSH1 0x20 SWAP2 PUSH1 0x1F DUP5 GT PUSH1 0x1 EQ PUSH2 0x1CFC JUMPI SWAP3 PUSH2 0x1CF1 JUMPI JUMPDEST POP POP DUP2 PUSH1 0x1 SHL SWAP2 PUSH1 0x0 NOT SWAP1 PUSH1 0x3 SHL SHR NOT AND OR SWAP1 SSTORE JUMPDEST DUP1 MLOAD PUSH1 0x7 DUP5 ADD SWAP2 PUSH1 0x1 PUSH1 0x1 PUSH1 0x40 SHL SUB DUP3 GT PUSH2 0x1CDD JUMPI DUP2 SWAP1 PUSH2 0x1A09 DUP3 PUSH2 0x793 DUP7 SLOAD PUSH2 0x3320 JUMP JUMPDEST PUSH1 0x20 SWAP1 DUP14 PUSH1 0x1F DUP5 GT PUSH1 0x1 EQ PUSH2 0x1C7A JUMPI SWAP3 PUSH2 0x1C6F JUMPI JUMPDEST POP POP DUP2 PUSH1 0x1 SHL SWAP2 PUSH1 0x0 NOT SWAP1 PUSH1 0x3 SHL SHR NOT AND OR SWAP1 SSTORE JUMPDEST DUP1 MLOAD PUSH1 0x8 DUP4 ADD SWAP2 PUSH1 0x1 PUSH1 0x1 PUSH1 0x40 SHL SUB DUP3 GT PUSH2 0x1C5B JUMPI PUSH2 0x1A5C DUP3 PUSH2 0x1A56 DUP6 SLOAD PUSH2 0x3320 JUMP JUMPDEST DUP6 PUSH2 0x38E2 JUMP JUMPDEST PUSH1 0x20 SWAP1 PUSH1 0x1F DUP4 GT PUSH1 0x1 EQ PUSH2 0x1BF4 JUMPI PUSH1 0x9 SWAP5 SWAP4 SWAP3 SWAP2 DUP13 SWAP2 DUP4 PUSH2 0x1BE9 JUMPI JUMPDEST POP POP DUP2 PUSH1 0x1 SHL SWAP2 PUSH1 0x0 NOT SWAP1 PUSH1 0x3 SHL SHR NOT AND OR SWAP1 SSTORE JUMPDEST ADD SWAP1 DUP1 MLOAD SWAP1 PUSH1 0x1 PUSH1 0x1 PUSH1 0x40 SHL SUB DUP3 GT PUSH2 0x1BD5 JUMPI PUSH2 0x1AAE DUP3 PUSH2 0x1A56 DUP6 SLOAD PUSH2 0x3320 JUMP JUMPDEST PUSH1 0x20 SWAP1 PUSH1 0x1F DUP4 GT PUSH1 0x1 EQ PUSH2 0x1B46 JUMPI SWAP3 DUP3 PUSH2 0x1B2A SWAP4 PUSH2 0x1B1C SWAP9 SWAP7 SWAP4 PUSH32 0xE0CD58617305237ED8EC3ECED504E683E4100C101533304D423AB96F94EDD107 SWAP11 SWAP9 SWAP7 DUP14 SWAP3 PUSH2 0x1B3B JUMPI JUMPDEST POP POP DUP2 PUSH1 0x1 SHL SWAP2 PUSH1 0x0 NOT SWAP1 PUSH1 0x3 SHL SHR NOT AND OR SWAP1 SSTORE JUMPDEST PUSH1 0x40 MLOAD SWAP6 DUP7 SWAP6 PUSH1 0x80 DUP8 MSTORE PUSH1 0x80 DUP8 ADD SWAP1 PUSH2 0x344B JUMP JUMPDEST SWAP1 DUP6 DUP3 SUB PUSH1 0x20 DUP8 ADD MSTORE PUSH2 0x344B JUMP JUMPDEST SWAP2 PUSH1 0x40 DUP5 ADD MSTORE PUSH1 0x60 DUP4 ADD MSTORE SUB SWAP1 LOG2 DUP1 RETURN JUMPDEST ADD MLOAD SWAP1 POP CODESIZE DUP1 PUSH2 0x1AF3 JUMP JUMPDEST DUP4 DUP11 MSTORE DUP2 DUP11 KECCAK256 SWAP2 SWAP1 PUSH1 0x1F NOT DUP5 AND DUP12 JUMPDEST DUP2 DUP2 LT PUSH2 0x1BBD JUMPI POP SWAP4 PUSH2 0x1B1C SWAP9 SWAP7 SWAP4 PUSH32 0xE0CD58617305237ED8EC3ECED504E683E4100C101533304D423AB96F94EDD107 SWAP11 SWAP9 SWAP7 SWAP4 PUSH1 0x1 SWAP4 DUP4 PUSH2 0x1B2A SWAP9 LT PUSH2 0x1BA4 JUMPI JUMPDEST POP POP POP DUP2 SHL ADD SWAP1 SSTORE PUSH2 0x1B08 JUMP JUMPDEST ADD MLOAD PUSH1 0x0 NOT PUSH1 0xF8 DUP5 PUSH1 0x3 SHL AND SHR NOT AND SWAP1 SSTORE CODESIZE DUP1 DUP1 PUSH2 0x1B97 JUMP JUMPDEST SWAP3 SWAP4 PUSH1 0x20 PUSH1 0x1 DUP2 SWAP3 DUP8 DUP7 ADD MLOAD DUP2 SSTORE ADD SWAP6 ADD SWAP4 ADD PUSH2 0x1B55 JUMP JUMPDEST PUSH4 0x4E487B71 PUSH1 0xE0 SHL DUP10 MSTORE PUSH1 0x41 PUSH1 0x4 MSTORE PUSH1 0x24 DUP10 REVERT JUMPDEST ADD MLOAD SWAP1 POP CODESIZE DUP1 PUSH2 0x1A78 JUMP JUMPDEST DUP4 DUP13 MSTORE DUP2 DUP13 KECCAK256 SWAP2 SWAP1 PUSH1 0x1F NOT DUP5 AND DUP14 JUMPDEST DUP2 DUP2 LT PUSH2 0x1C43 JUMPI POP SWAP2 PUSH1 0x1 SWAP4 SWAP2 DUP6 PUSH1 0x9 SWAP9 SWAP8 SWAP7 SWAP5 LT PUSH2 0x1C2A JUMPI JUMPDEST POP POP POP DUP2 SHL ADD SWAP1 SSTORE PUSH2 0x1A8D JUMP JUMPDEST ADD MLOAD PUSH1 0x0 NOT PUSH1 0xF8 DUP5 PUSH1 0x3 SHL AND SHR NOT AND SWAP1 SSTORE CODESIZE DUP1 DUP1 PUSH2 0x1C1D JUMP JUMPDEST SWAP3 SWAP4 PUSH1 0x20 PUSH1 0x1 DUP2 SWAP3 DUP8 DUP7 ADD MLOAD DUP2 SSTORE ADD SWAP6 ADD SWAP4 ADD PUSH2 0x1C03 JUMP JUMPDEST PUSH4 0x4E487B71 PUSH1 0xE0 SHL DUP12 MSTORE PUSH1 0x41 PUSH1 0x4 MSTORE PUSH1 0x24 DUP12 REVERT JUMPDEST ADD MLOAD SWAP1 POP CODESIZE DUP1 PUSH2 0x1A1E JUMP JUMPDEST DUP6 DUP2 MSTORE DUP3 DUP2 KECCAK256 SWAP4 POP PUSH1 0x1F NOT DUP6 AND SWAP1 JUMPDEST DUP2 DUP2 LT PUSH2 0x1CC5 JUMPI POP SWAP1 DUP5 PUSH1 0x1 SWAP6 SWAP5 SWAP4 SWAP3 LT PUSH2 0x1CAC JUMPI JUMPDEST POP POP POP DUP2 SHL ADD SWAP1 SSTORE PUSH2 0x1A33 JUMP JUMPDEST ADD MLOAD PUSH1 0x0 NOT PUSH1 0xF8 DUP5 PUSH1 0x3 SHL AND SHR NOT AND SWAP1 SSTORE CODESIZE DUP1 DUP1 PUSH2 0x1C9F JUMP JUMPDEST SWAP3 SWAP4 PUSH1 0x20 PUSH1 0x1 DUP2 SWAP3 DUP8 DUP7 ADD MLOAD DUP2 SSTORE ADD SWAP6 ADD SWAP4 ADD PUSH2 0x1C89 JUMP JUMPDEST PUSH4 0x4E487B71 PUSH1 0xE0 SHL DUP13 MSTORE PUSH1 0x41 PUSH1 0x4 MSTORE PUSH1 0x24 DUP13 REVERT JUMPDEST ADD MLOAD SWAP1 POP CODESIZE DUP1 PUSH2 0x19CF JUMP JUMPDEST DUP6 DUP2 MSTORE DUP3 DUP2 KECCAK256 SWAP4 POP PUSH1 0x1F NOT DUP6 AND SWAP1 JUMPDEST DUP2 DUP2 LT PUSH2 0x1D47 JUMPI POP SWAP1 DUP5 PUSH1 0x1 SWAP6 SWAP5 SWAP4 SWAP3 LT PUSH2 0x1D2E JUMPI JUMPDEST POP POP POP DUP2 SHL ADD SWAP1 SSTORE PUSH2 0x19E4 JUMP JUMPDEST ADD MLOAD PUSH1 0x0 NOT PUSH1 0xF8 DUP5 PUSH1 0x3 SHL AND SHR NOT AND SWAP1 SSTORE CODESIZE DUP1 DUP1 PUSH2 0x1D21 JUMP JUMPDEST SWAP3 SWAP4 PUSH1 0x20 PUSH1 0x1 DUP2 SWAP3 DUP8 DUP7 ADD MLOAD DUP2 SSTORE ADD SWAP6 ADD SWAP4 ADD PUSH2 0x1D0B JUMP JUMPDEST ADD MLOAD SWAP1 POP CODESIZE DUP1 PUSH2 0x1980 JUMP JUMPDEST DUP6 DUP2 MSTORE DUP3 DUP2 KECCAK256 SWAP4 POP PUSH1 0x1F NOT DUP6 AND SWAP1 JUMPDEST DUP2 DUP2 LT PUSH2 0x1DB5 JUMPI POP SWAP1 DUP5 PUSH1 0x1 SWAP6 SWAP5 SWAP4 SWAP3 LT PUSH2 0x1D9C JUMPI JUMPDEST POP POP POP DUP2 SHL ADD SWAP1 SSTORE PUSH2 0x1995 JUMP JUMPDEST ADD MLOAD PUSH1 0x0 NOT PUSH1 0xF8 DUP5 PUSH1 0x3 SHL AND SHR NOT AND SWAP1 SSTORE CODESIZE DUP1 DUP1 PUSH2 0x1D8F JUMP JUMPDEST SWAP3 SWAP4 PUSH1 0x20 PUSH1 0x1 DUP2 SWAP3 DUP8 DUP7 ADD MLOAD DUP2 SSTORE ADD SWAP6 ADD SWAP4 ADD PUSH2 0x1D79 JUMP JUMPDEST PUSH4 0x4E487B71 PUSH1 0xE0 SHL DUP15 MSTORE PUSH1 0x41 PUSH1 0x4 MSTORE PUSH1 0x24 DUP15 REVERT JUMPDEST ADD MLOAD SWAP1 POP CODESIZE DUP1 PUSH2 0x1931 JUMP JUMPDEST DUP6 DUP2 MSTORE DUP3 DUP2 KECCAK256 SWAP4 POP PUSH1 0x1F NOT DUP6 AND SWAP1 JUMPDEST DUP2 DUP2 LT PUSH2 0x1E37 JUMPI POP SWAP1 DUP5 PUSH1 0x1 SWAP6 SWAP5 SWAP4 SWAP3 LT PUSH2 0x1E1E JUMPI JUMPDEST POP POP POP DUP2 SHL ADD SWAP1 SSTORE PUSH2 0x1946 JUMP JUMPDEST ADD MLOAD PUSH1 0x0 NOT PUSH1 0xF8 DUP5 PUSH1 0x3 SHL AND SHR NOT AND SWAP1 SSTORE CODESIZE DUP1 DUP1 PUSH2 0x1E11 JUMP JUMPDEST SWAP3 SWAP4 PUSH1 0x20 PUSH1 0x1 DUP2 SWAP3 DUP8 DUP7 ADD MLOAD DUP2 SSTORE ADD SWAP6 ADD SWAP4 ADD PUSH2 0x1DFB JUMP JUMPDEST PUSH4 0x4E487B71 PUSH1 0xE0 SHL DUP16 MSTORE PUSH1 0x41 PUSH1 0x4 MSTORE PUSH1 0x24 DUP16 REVERT JUMPDEST SWAP1 POP DUP11 ADD MLOAD CODESIZE PUSH2 0x18D0 JUMP JUMPDEST DUP5 DUP2 MSTORE DUP2 DUP2 KECCAK256 SWAP3 POP PUSH1 0x1F NOT DUP5 AND SWAP1 JUMPDEST DUP14 DUP3 DUP3 LT PUSH2 0x1EB9 JUMPI POP POP SWAP1 DUP4 PUSH1 0x1 SWAP5 SWAP4 SWAP3 LT PUSH2 0x1EA0 JUMPI JUMPDEST POP POP DUP2 SHL ADD SWAP1 SSTORE PUSH2 0x18E4 JUMP JUMPDEST DUP13 ADD MLOAD PUSH1 0x0 NOT PUSH1 0xF8 DUP5 PUSH1 0x3 SHL AND SHR NOT AND SWAP1 SSTORE CODESIZE DUP1 PUSH2 0x1E94 JUMP JUMPDEST PUSH1 0x1 DUP5 SWAP6 PUSH1 0x20 SWAP4 SWAP6 DUP5 SWAP4 ADD MLOAD DUP2 SSTORE ADD SWAP5 ADD SWAP3 ADD PUSH2 0x1E7D JUMP JUMPDEST SWAP1 POP DUP13 ADD MLOAD CODESIZE PUSH2 0x1884 JUMP JUMPDEST SWAP1 DUP15 SWAP4 POP PUSH1 0x1F NOT DUP4 AND DUP11 DUP4 MSTORE DUP2 DUP4 KECCAK256 SWAP3 JUMPDEST DUP2 DUP2 LT PUSH2 0x1F26 JUMPI POP SWAP4 DUP4 PUSH1 0x1 SWAP6 LT PUSH2 0x1F0D JUMPI JUMPDEST POP POP POP DUP2 SHL ADD DUP7 SSTORE PUSH2 0x1898 JUMP JUMPDEST ADD MLOAD PUSH1 0x0 NOT PUSH1 0xF8 DUP5 PUSH1 0x3 SHL AND SHR NOT AND SWAP1 SSTORE CODESIZE DUP1 DUP15 PUSH2 0x1F00 JUMP JUMPDEST SWAP5 DUP3 ADD MLOAD DUP4 SSTORE DUP16 SWAP5 PUSH1 0x1 SWAP1 SWAP4 ADD SWAP3 PUSH1 0x20 SWAP3 DUP4 ADD SWAP3 ADD PUSH2 0x1EED JUMP JUMPDEST PUSH4 0x4E487B71 PUSH1 0xE0 SHL DUP13 MSTORE PUSH1 0x21 PUSH1 0x4 MSTORE PUSH1 0x24 DUP13 REVERT JUMPDEST DUP11 DUP1 REVERT JUMPDEST DUP10 DUP1 REVERT JUMPDEST DUP9 DUP1 REVERT JUMPDEST DUP8 DUP1 REVERT JUMPDEST DUP7 DUP1 REVERT JUMPDEST DUP6 DUP1 REVERT JUMPDEST POP DUP1 REVERT JUMPDEST POP CALLVALUE PUSH2 0x23A JUMPI PUSH1 0x40 CALLDATASIZE PUSH1 0x3 NOT ADD SLT PUSH2 0x23A JUMPI PUSH1 0x24 CALLDATALOAD PUSH1 0x4 CALLDATALOAD PUSH1 0x1 PUSH1 0x1 PUSH1 0x40 SHL SUB DUP3 GT PUSH2 0x493 JUMPI CALLDATASIZE PUSH1 0x23 DUP4 ADD SLT ISZERO PUSH2 0x493 JUMPI DUP2 PUSH1 0x4 ADD CALLDATALOAD PUSH1 0x1 PUSH1 0x1 PUSH1 0x40 SHL SUB DUP2 GT PUSH2 0x210B JUMPI CALLDATASIZE PUSH1 0x24 DUP3 DUP6 ADD ADD GT PUSH2 0x210B JUMPI CALLER DUP5 MSTORE PUSH1 0x5 PUSH1 0x20 MSTORE PUSH1 0xFF PUSH1 0x40 DUP6 KECCAK256 SLOAD AND PUSH1 0x4 DUP2 LT ISZERO PUSH2 0x20F7 JUMPI SWAP2 PUSH1 0x60 SWAP2 PUSH2 0x200B PUSH1 0x3 PUSH32 0x3A37CE840BFB04807C28639851E851AEDC572E43329DA2FCF9CCA5DD5A50F001 SWAP7 SWAP6 EQ PUSH2 0x35F8 JUMP JUMPDEST PUSH2 0x2018 PUSH1 0x8 SLOAD DUP4 LT PUSH2 0x379D JUMP JUMPDEST DUP2 DUP7 MSTORE PUSH1 0x2 PUSH1 0x20 MSTORE PUSH2 0x2034 PUSH1 0xFF PUSH1 0x5 PUSH1 0x40 DUP10 KECCAK256 ADD SLOAD AND ISZERO PUSH2 0x37E0 JUMP JUMPDEST DUP2 DUP7 MSTORE PUSH1 0x2 PUSH1 0x20 MSTORE PUSH2 0x2074 PUSH2 0x515 PUSH2 0x2058 PUSH1 0x1 PUSH1 0x40 DUP11 KECCAK256 ADD PUSH1 0x40 MLOAD SWAP3 DUP4 DUP1 SWAP3 PUSH2 0x335A JUMP JUMPDEST PUSH1 0x20 DUP2 MLOAD SWAP2 ADD KECCAK256 PUSH2 0x2067 PUSH2 0x381F JUMP JUMPDEST PUSH1 0x20 DUP2 MLOAD SWAP2 ADD KECCAK256 EQ PUSH2 0x3843 JUMP JUMPDEST DUP2 DUP7 MSTORE PUSH1 0x2 PUSH1 0x20 MSTORE PUSH1 0x1 PUSH1 0x40 DUP8 KECCAK256 ADD PUSH2 0x2090 PUSH2 0x573 DUP3 SLOAD PUSH2 0x3320 JUMP JUMPDEST PUSH1 0x16 PUSH11 0x13DC195C985D1A5BDB985B PUSH1 0xAA SHL ADD SWAP1 SSTORE DUP2 DUP7 MSTORE PUSH1 0x2 PUSH1 0x20 MSTORE DUP6 PUSH1 0x4 PUSH1 0x40 DUP3 KECCAK256 ADD PUSH2 0x20C1 PUSH2 0x573 DUP3 SLOAD PUSH2 0x3320 JUMP JUMPDEST SSTORE DUP1 PUSH1 0x24 PUSH1 0x40 MLOAD SWAP6 DUP7 SWAP5 DUP6 MSTORE PUSH1 0x40 PUSH1 0x20 DUP7 ADD MSTORE DUP3 PUSH1 0x40 DUP7 ADD MSTORE ADD DUP5 DUP5 ADD CALLDATACOPY DUP2 DUP2 ADD DUP4 ADD DUP7 SWAP1 MSTORE PUSH1 0x1F ADD PUSH1 0x1F NOT AND DUP2 ADD SUB ADD SWAP1 LOG1 DUP1 RETURN JUMPDEST PUSH4 0x4E487B71 PUSH1 0xE0 SHL DUP6 MSTORE PUSH1 0x21 PUSH1 0x4 MSTORE PUSH1 0x24 DUP6 REVERT JUMPDEST DUP4 DUP1 REVERT JUMPDEST POP CALLVALUE PUSH2 0x23A JUMPI PUSH1 0x20 CALLDATASIZE PUSH1 0x3 NOT ADD SLT PUSH2 0x23A JUMPI PUSH2 0x217 SWAP1 PUSH1 0xFF SWAP1 PUSH1 0x40 SWAP1 PUSH1 0x1 PUSH1 0x1 PUSH1 0xA0 SHL SUB PUSH2 0x213B PUSH2 0x3262 JUMP JUMPDEST AND DUP2 MSTORE PUSH1 0x5 PUSH1 0x20 MSTORE KECCAK256 SLOAD AND PUSH1 0x40 MLOAD SWAP2 DUP3 SWAP2 DUP3 PUSH2 0x32F7 JUMP JUMPDEST POP CALLVALUE PUSH2 0x23A JUMPI PUSH2 0x2161 CALLDATASIZE PUSH2 0x34E2 JUMP JUMPDEST CALLER DUP4 MSTORE PUSH1 0x5 PUSH1 0x20 MSTORE PUSH1 0xFF PUSH1 0x40 DUP5 KECCAK256 SLOAD AND PUSH1 0x4 DUP2 LT ISZERO PUSH2 0x941 JUMPI SWAP1 PUSH2 0x218A PUSH1 0x2 PUSH2 0x41E SWAP4 EQ PUSH2 0x3735 JUMP JUMPDEST PUSH2 0x2197 PUSH1 0x8 SLOAD DUP5 LT PUSH2 0x379D JUMP JUMPDEST DUP3 DUP5 MSTORE PUSH1 0x2 PUSH1 0x20 MSTORE PUSH2 0x21B3 PUSH1 0xFF PUSH1 0x5 PUSH1 0x40 DUP8 KECCAK256 ADD SLOAD AND ISZERO PUSH2 0x37E0 JUMP JUMPDEST DUP3 DUP5 MSTORE PUSH1 0x2 PUSH1 0x20 MSTORE PUSH2 0x21D7 PUSH2 0x515 PUSH2 0x2058 PUSH1 0x1 PUSH1 0x40 DUP9 KECCAK256 ADD PUSH1 0x40 MLOAD SWAP3 DUP4 DUP1 SWAP3 PUSH2 0x335A JUMP JUMPDEST DUP3 DUP5 MSTORE PUSH1 0x3 PUSH1 0x20 MSTORE PUSH2 0x21F5 PUSH1 0x9 PUSH1 0x40 DUP7 KECCAK256 ADD PUSH1 0x40 MLOAD SWAP4 DUP5 DUP1 SWAP3 PUSH2 0x335A JUMP JUMPDEST DUP3 DUP5 MSTORE PUSH1 0x4 PUSH1 0x20 MSTORE PUSH1 0x40 DUP5 KECCAK256 PUSH1 0x40 MLOAD SWAP1 PUSH2 0x220E DUP3 PUSH2 0x340F JUMP JUMPDEST TIMESTAMP DUP3 MSTORE PUSH1 0x20 DUP3 ADD SWAP4 DUP7 DUP6 MSTORE PUSH1 0x40 DUP4 ADD CALLER DUP2 MSTORE PUSH1 0x60 DUP5 ADD SWAP2 DUP3 MSTORE PUSH1 0x20 SWAP6 PUSH1 0x40 MLOAD SWAP4 PUSH2 0x2238 DUP9 DUP7 PUSH2 0x342A JUMP JUMPDEST DUP10 DUP6 MSTORE PUSH1 0x80 DUP7 ADD SWAP5 DUP6 MSTORE PUSH1 0xA0 DUP7 ADD SWAP7 DUP8 MSTORE DUP1 SLOAD SWAP1 PUSH1 0x1 PUSH1 0x40 SHL DUP3 LT ISZERO PUSH2 0x1C5B JUMPI SWAP1 PUSH2 0x2268 SWAP2 PUSH1 0x1 DUP3 ADD DUP2 SSTORE PUSH2 0x3530 JUMP JUMPDEST SWAP6 SWAP1 SWAP6 PUSH2 0x25C2 JUMPI MLOAD DUP6 SSTORE MLOAD PUSH1 0x1 DUP6 ADD SSTORE MLOAD PUSH1 0x2 DUP5 ADD DUP1 SLOAD PUSH1 0x1 PUSH1 0x1 PUSH1 0xA0 SHL SUB NOT AND PUSH1 0x1 PUSH1 0x1 PUSH1 0xA0 SHL SUB SWAP3 SWAP1 SWAP3 AND SWAP2 SWAP1 SWAP2 OR SWAP1 SSTORE MLOAD DUP1 MLOAD PUSH1 0x3 DUP5 ADD SWAP2 PUSH1 0x1 PUSH1 0x1 PUSH1 0x40 SHL SUB DUP3 GT PUSH2 0x1BD5 JUMPI DUP2 SWAP1 PUSH2 0x22C1 DUP3 PUSH2 0x793 DUP7 SLOAD PUSH2 0x3320 JUMP JUMPDEST DUP8 SWAP1 PUSH1 0x1F DUP4 GT PUSH1 0x1 EQ PUSH2 0x255F JUMPI DUP11 SWAP3 PUSH2 0x2554 JUMPI JUMPDEST POP POP DUP2 PUSH1 0x1 SHL SWAP2 PUSH1 0x0 NOT SWAP1 PUSH1 0x3 SHL SHR NOT AND OR SWAP1 SSTORE JUMPDEST MLOAD DUP1 MLOAD PUSH1 0x4 DUP4 ADD SWAP2 PUSH1 0x1 PUSH1 0x1 PUSH1 0x40 SHL SUB DUP3 GT PUSH2 0x2540 JUMPI PUSH2 0x230E DUP3 PUSH2 0x1A56 DUP6 SLOAD PUSH2 0x3320 JUMP JUMPDEST DUP6 SWAP1 PUSH1 0x1F DUP4 GT PUSH1 0x1 EQ PUSH2 0x24D9 JUMPI PUSH1 0x5 SWAP5 SWAP4 SWAP3 SWAP2 DUP10 SWAP2 DUP4 PUSH2 0x24CE JUMPI JUMPDEST POP POP DUP2 PUSH1 0x1 SHL SWAP2 PUSH1 0x0 NOT SWAP1 PUSH1 0x3 SHL SHR NOT AND OR SWAP1 SSTORE JUMPDEST ADD SWAP1 MLOAD DUP1 MLOAD SWAP1 PUSH1 0x1 PUSH1 0x1 PUSH1 0x40 SHL SUB DUP3 GT PUSH2 0x839 JUMPI PUSH2 0x2360 DUP3 PUSH2 0x1A56 DUP6 SLOAD PUSH2 0x3320 JUMP JUMPDEST DUP4 SWAP1 PUSH1 0x1F DUP4 GT PUSH1 0x1 EQ PUSH2 0x2449 JUMPI PUSH32 0x12C6212A092000A772623F99ABFCA127C5C25C966686A610AAC238C570C8C921 SWAP5 SWAP4 SWAP3 SWAP2 DUP8 SWAP2 DUP4 PUSH2 0x243E JUMPI JUMPDEST POP POP DUP2 PUSH1 0x1 SHL SWAP2 PUSH1 0x0 NOT SWAP1 PUSH1 0x3 SHL SHR NOT AND OR SWAP1 SSTORE JUMPDEST DUP3 DUP5 MSTORE PUSH1 0x2 DUP2 MSTORE PUSH1 0x1 PUSH1 0x40 DUP6 KECCAK256 ADD PUSH2 0x23C7 DUP2 SLOAD PUSH2 0x3320 JUMP JUMPDEST PUSH1 0x1F DUP2 GT PUSH2 0x2420 JUMPI JUMPDEST POP PUSH32 0x556E646572204D61696E74656E616E6365000000000000000000000000000022 SWAP1 SSTORE DUP3 DUP5 MSTORE PUSH1 0x2 DUP1 DUP3 MSTORE PUSH1 0x40 DUP1 DUP7 KECCAK256 SWAP1 SWAP2 ADD DUP1 SLOAD PUSH1 0x1 PUSH1 0x1 PUSH1 0xA0 SHL SUB NOT AND CALLER SWAP1 DUP2 OR SWAP1 SWAP2 SSTORE SWAP1 MLOAD SWAP1 DUP2 MSTORE LOG2 DUP1 RETURN JUMPDEST DUP2 DUP7 MSTORE DUP3 DUP7 KECCAK256 PUSH2 0x2438 SWAP2 PUSH1 0x1F ADD PUSH1 0x5 SHR DUP2 ADD SWAP1 PUSH2 0x38A1 JUMP JUMPDEST CODESIZE PUSH2 0x23D0 JUMP JUMPDEST ADD MLOAD SWAP1 POP CODESIZE DUP1 PUSH2 0x239A JUMP JUMPDEST DUP4 DUP8 MSTORE DUP5 DUP8 KECCAK256 SWAP2 SWAP1 PUSH1 0x1F NOT DUP5 AND DUP9 JUMPDEST DUP2 DUP2 LT PUSH2 0x24B7 JUMPI POP SWAP2 PUSH1 0x1 SWAP4 SWAP2 DUP6 PUSH32 0x12C6212A092000A772623F99ABFCA127C5C25C966686A610AAC238C570C8C921 SWAP9 SWAP8 SWAP7 SWAP5 LT PUSH2 0x249E JUMPI JUMPDEST POP POP POP DUP2 SHL ADD SWAP1 SSTORE PUSH2 0x23AF JUMP JUMPDEST ADD MLOAD PUSH1 0x0 NOT PUSH1 0xF8 DUP5 PUSH1 0x3 SHL AND SHR NOT AND SWAP1 SSTORE CODESIZE DUP1 DUP1 PUSH2 0x2491 JUMP JUMPDEST SWAP3 SWAP4 DUP8 PUSH1 0x1 DUP2 SWAP3 DUP8 DUP7 ADD MLOAD DUP2 SSTORE ADD SWAP6 ADD SWAP4 ADD PUSH2 0x2458 JUMP JUMPDEST ADD MLOAD SWAP1 POP CODESIZE DUP1 PUSH2 0x2329 JUMP JUMPDEST DUP4 DUP10 MSTORE DUP7 DUP10 KECCAK256 SWAP2 SWAP1 PUSH1 0x1F NOT DUP5 AND DUP11 JUMPDEST DUP10 DUP3 DUP3 LT PUSH2 0x252A JUMPI POP POP SWAP2 PUSH1 0x1 SWAP4 SWAP2 DUP6 PUSH1 0x5 SWAP9 SWAP8 SWAP7 SWAP5 LT PUSH2 0x2511 JUMPI JUMPDEST POP POP POP DUP2 SHL ADD SWAP1 SSTORE PUSH2 0x233E JUMP JUMPDEST ADD MLOAD PUSH1 0x0 NOT PUSH1 0xF8 DUP5 PUSH1 0x3 SHL AND SHR NOT AND SWAP1 SSTORE CODESIZE DUP1 DUP1 PUSH2 0x2504 JUMP JUMPDEST PUSH1 0x1 DUP6 SWAP7 DUP3 SWAP4 SWAP7 DUP7 ADD MLOAD DUP2 SSTORE ADD SWAP6 ADD SWAP4 ADD PUSH2 0x24E8 JUMP JUMPDEST PUSH4 0x4E487B71 PUSH1 0xE0 SHL DUP9 MSTORE PUSH1 0x41 PUSH1 0x4 MSTORE PUSH1 0x24 DUP9 REVERT JUMPDEST ADD MLOAD SWAP1 POP CODESIZE DUP1 PUSH2 0x22D5 JUMP JUMPDEST DUP5 DUP12 MSTORE DUP9 DUP12 KECCAK256 SWAP3 POP PUSH1 0x1F NOT DUP5 AND DUP12 JUMPDEST DUP11 DUP3 DUP3 LT PUSH2 0x25AC JUMPI POP POP SWAP1 DUP5 PUSH1 0x1 SWAP6 SWAP5 SWAP4 SWAP3 LT PUSH2 0x2593 JUMPI JUMPDEST POP POP POP DUP2 SHL ADD SWAP1 SSTORE PUSH2 0x22EA JUMP JUMPDEST ADD MLOAD PUSH1 0x0 NOT PUSH1 0xF8 DUP5 PUSH1 0x3 SHL AND SHR NOT AND SWAP1 SSTORE CODESIZE DUP1 DUP1 PUSH2 0x2586 JUMP JUMPDEST PUSH1 0x1 DUP6 SWAP7 DUP3 SWAP4 SWAP7 DUP7 ADD MLOAD DUP2 SSTORE ADD SWAP6 ADD SWAP4 ADD PUSH2 0x256E JUMP JUMPDEST PUSH4 0x4E487B71 PUSH1 0xE0 SHL DUP11 MSTORE PUSH1 0x4 DUP11 SWAP1 MSTORE PUSH1 0x24 DUP11 REVERT JUMPDEST POP CALLVALUE PUSH2 0x23A JUMPI PUSH1 0x20 CALLDATASIZE PUSH1 0x3 NOT ADD SLT PUSH2 0x23A JUMPI PUSH1 0x4 CALLDATALOAD DUP2 MSTORE PUSH1 0x4 PUSH1 0x20 MSTORE PUSH1 0x40 DUP2 KECCAK256 DUP1 SLOAD PUSH2 0x2601 DUP2 PUSH2 0x354C JUMP JUMPDEST SWAP1 PUSH2 0x260F PUSH1 0x40 MLOAD SWAP3 DUP4 PUSH2 0x342A JUMP JUMPDEST DUP1 DUP3 MSTORE PUSH1 0x20 DUP3 ADD DUP1 SWAP4 DUP6 MSTORE PUSH1 0x20 DUP6 KECCAK256 DUP6 SWAP2 JUMPDEST DUP4 DUP4 LT PUSH2 0x26E7 JUMPI DUP7 DUP6 DUP8 PUSH1 0x40 MLOAD SWAP3 DUP4 SWAP3 PUSH1 0x20 DUP5 ADD SWAP1 PUSH1 0x20 DUP6 MSTORE MLOAD DUP1 SWAP2 MSTORE PUSH1 0x40 DUP5 ADD PUSH1 0x40 DUP3 PUSH1 0x5 SHL DUP7 ADD ADD SWAP4 SWAP3 SWAP1 JUMPDEST DUP3 DUP3 LT PUSH2 0x265E JUMPI POP POP POP POP SUB SWAP1 RETURN JUMPDEST SWAP2 SWAP4 PUSH1 0x1 SWAP2 SWAP4 SWAP6 POP PUSH1 0x20 PUSH2 0x26D7 DUP2 SWAP3 PUSH1 0x3F NOT DUP11 DUP3 SUB ADD DUP7 MSTORE DUP9 MLOAD SWAP1 DUP2 MLOAD DUP2 MSTORE DUP4 DUP3 ADD MLOAD DUP5 DUP3 ADD MSTORE DUP6 DUP1 PUSH1 0xA0 SHL SUB PUSH1 0x40 DUP4 ADD MLOAD AND PUSH1 0x40 DUP3 ADD MSTORE PUSH1 0xA0 PUSH2 0x26C6 PUSH2 0x26B4 PUSH1 0x60 DUP6 ADD MLOAD PUSH1 0xC0 PUSH1 0x60 DUP7 ADD MSTORE PUSH1 0xC0 DUP6 ADD SWAP1 PUSH2 0x344B JUMP JUMPDEST PUSH1 0x80 DUP6 ADD MLOAD DUP5 DUP3 SUB PUSH1 0x80 DUP7 ADD MSTORE PUSH2 0x344B JUMP JUMPDEST SWAP3 ADD MLOAD SWAP1 PUSH1 0xA0 DUP2 DUP5 SUB SWAP2 ADD MSTORE PUSH2 0x344B JUMP JUMPDEST SWAP7 ADD SWAP3 ADD SWAP3 ADD DUP6 SWAP5 SWAP4 SWAP2 SWAP3 PUSH2 0x264F JUMP JUMPDEST PUSH1 0x6 PUSH1 0x20 PUSH1 0x1 SWAP3 PUSH1 0x40 MLOAD PUSH2 0x26FA DUP2 PUSH2 0x340F JUMP JUMPDEST DUP6 SLOAD DUP2 MSTORE DUP5 DUP7 ADD SLOAD DUP4 DUP3 ADD MSTORE DUP5 DUP1 PUSH1 0xA0 SHL SUB PUSH1 0x2 DUP8 ADD SLOAD AND PUSH1 0x40 DUP3 ADD MSTORE PUSH1 0x40 MLOAD PUSH2 0x272B DUP2 PUSH2 0x515 DUP2 PUSH1 0x3 DUP12 ADD PUSH2 0x335A JUMP JUMPDEST PUSH1 0x60 DUP3 ADD MSTORE PUSH1 0x40 MLOAD PUSH2 0x2744 DUP2 PUSH2 0x515 DUP2 PUSH1 0x4 DUP12 ADD PUSH2 0x335A JUMP JUMPDEST PUSH1 0x80 DUP3 ADD MSTORE PUSH1 0x40 MLOAD PUSH2 0x275D DUP2 PUSH2 0x515 DUP2 PUSH1 0x5 DUP12 ADD PUSH2 0x335A JUMP JUMPDEST PUSH1 0xA0 DUP3 ADD MSTORE DUP2 MSTORE ADD SWAP3 ADD SWAP3 ADD SWAP2 SWAP1 PUSH2 0x2621 JUMP JUMPDEST POP CALLVALUE PUSH2 0x23A JUMPI PUSH1 0x20 CALLDATASIZE PUSH1 0x3 NOT ADD SLT PUSH2 0x23A JUMPI PUSH1 0x20 SWAP1 PUSH1 0xFF SWAP1 PUSH1 0x40 SWAP1 PUSH1 0x1 PUSH1 0x1 PUSH1 0xA0 SHL SUB PUSH2 0x279B PUSH2 0x3262 JUMP JUMPDEST AND DUP2 MSTORE PUSH1 0x6 DUP5 MSTORE KECCAK256 SLOAD AND PUSH1 0x40 MLOAD SWAP1 ISZERO ISZERO DUP2 MSTORE RETURN JUMPDEST POP CALLVALUE PUSH2 0x23A JUMPI PUSH1 0x20 CALLDATASIZE PUSH1 0x3 NOT ADD SLT PUSH2 0x23A JUMPI PUSH1 0x4 CALLDATALOAD DUP2 MSTORE PUSH1 0x3 PUSH1 0x20 MSTORE PUSH1 0x40 SWAP1 KECCAK256 PUSH1 0x40 MLOAD DUP1 PUSH2 0x27DD DUP2 DUP5 PUSH2 0x335A JUMP JUMPDEST SUB PUSH2 0x27E8 SWAP1 DUP3 PUSH2 0x342A JUMP JUMPDEST PUSH1 0x40 MLOAD SWAP2 DUP3 PUSH2 0x27FA DUP2 PUSH1 0x1 DUP5 ADD PUSH2 0x335A JUMP JUMPDEST SUB PUSH2 0x2805 SWAP1 DUP5 PUSH2 0x342A JUMP JUMPDEST PUSH1 0x2 DUP2 ADD SLOAD PUSH1 0x3 DUP3 ADD SLOAD SWAP1 PUSH1 0x40 MLOAD DUP1 DUP1 PUSH1 0x4 DUP7 ADD SWAP1 PUSH2 0x2823 SWAP2 PUSH2 0x335A JUMP JUMPDEST SUB PUSH2 0x282E SWAP1 DUP3 PUSH2 0x342A JUMP JUMPDEST PUSH1 0x40 MLOAD DUP1 PUSH2 0x283F DUP2 PUSH1 0x5 DUP9 ADD PUSH2 0x335A JUMP JUMPDEST SUB PUSH2 0x284A SWAP1 DUP3 PUSH2 0x342A JUMP JUMPDEST PUSH1 0x40 MLOAD SWAP2 DUP3 PUSH2 0x285C DUP2 PUSH1 0x6 DUP10 ADD PUSH2 0x335A JUMP JUMPDEST SUB PUSH2 0x2867 SWAP1 DUP5 PUSH2 0x342A JUMP JUMPDEST PUSH1 0x40 MLOAD SWAP4 DUP5 PUSH2 0x2879 DUP2 PUSH1 0x7 DUP11 ADD PUSH2 0x335A JUMP JUMPDEST SUB PUSH2 0x2884 SWAP1 DUP7 PUSH2 0x342A JUMP JUMPDEST PUSH1 0x40 MLOAD SWAP6 DUP7 PUSH2 0x2896 DUP2 PUSH1 0x8 DUP12 ADD PUSH2 0x335A JUMP JUMPDEST SUB PUSH2 0x28A1 SWAP1 DUP9 PUSH2 0x342A JUMP JUMPDEST PUSH1 0x40 MLOAD DUP1 PUSH1 0x9 DUP2 SWAP11 ADD SWAP1 PUSH2 0x28B4 SWAP2 PUSH2 0x335A JUMP JUMPDEST SUB PUSH2 0x28BF SWAP1 DUP10 PUSH2 0x342A JUMP JUMPDEST PUSH1 0x40 MLOAD SWAP10 DUP11 SWAP10 PUSH2 0x140 DUP12 MSTORE PUSH2 0x140 DUP12 ADD PUSH2 0x28D8 SWAP2 PUSH2 0x344B JUMP JUMPDEST DUP11 DUP2 SUB PUSH1 0x20 DUP13 ADD MSTORE PUSH2 0x28E9 SWAP2 PUSH2 0x344B JUMP JUMPDEST SWAP2 PUSH1 0x40 DUP11 ADD MSTORE PUSH1 0x60 DUP10 ADD MSTORE DUP8 DUP2 SUB PUSH1 0x80 DUP10 ADD MSTORE PUSH2 0x2905 SWAP2 PUSH2 0x344B JUMP JUMPDEST DUP7 DUP2 SUB PUSH1 0xA0 DUP9 ADD MSTORE PUSH2 0x2916 SWAP2 PUSH2 0x344B JUMP JUMPDEST DUP6 DUP2 SUB PUSH1 0xC0 DUP8 ADD MSTORE PUSH2 0x2927 SWAP2 PUSH2 0x344B JUMP JUMPDEST DUP5 DUP2 SUB PUSH1 0xE0 DUP7 ADD MSTORE PUSH2 0x2938 SWAP2 PUSH2 0x344B JUMP JUMPDEST DUP4 DUP2 SUB PUSH2 0x100 DUP6 ADD MSTORE PUSH2 0x294A SWAP2 PUSH2 0x344B JUMP JUMPDEST DUP3 DUP2 SUB PUSH2 0x120 DUP5 ADD MSTORE PUSH2 0x217 SWAP2 PUSH2 0x344B JUMP JUMPDEST POP CALLVALUE PUSH2 0x23A JUMPI PUSH1 0x20 CALLDATASIZE PUSH1 0x3 NOT ADD SLT PUSH2 0x23A JUMPI PUSH2 0x2976 PUSH2 0x3262 JUMP JUMPDEST CALLER DUP3 MSTORE PUSH1 0x5 PUSH1 0x20 MSTORE PUSH1 0xFF PUSH1 0x40 DUP4 KECCAK256 SLOAD AND PUSH1 0x4 DUP2 LT ISZERO PUSH2 0xC18 JUMPI PUSH1 0x3 PUSH2 0x299B SWAP2 EQ PUSH2 0x35F8 JUMP JUMPDEST PUSH1 0x1 PUSH1 0x1 PUSH1 0xA0 SHL SUB AND DUP1 DUP3 MSTORE PUSH1 0xA PUSH1 0x20 MSTORE PUSH1 0x40 DUP3 KECCAK256 SLOAD PUSH2 0x29BD SWAP1 PUSH1 0xFF AND PUSH2 0x36FB JUMP JUMPDEST DUP1 DUP3 MSTORE PUSH1 0xA PUSH1 0x20 MSTORE PUSH1 0x40 DUP3 KECCAK256 DUP1 SLOAD PUSH1 0xFF NOT AND SWAP1 SSTORE DUP2 JUMPDEST PUSH1 0xB SLOAD DUP1 DUP3 LT ISZERO PUSH2 0x2A5A JUMPI DUP3 PUSH2 0x29E8 DUP4 PUSH2 0x32C4 JUMP JUMPDEST SWAP1 SLOAD PUSH1 0x3 SWAP2 SWAP1 SWAP2 SHL SHR PUSH1 0x1 PUSH1 0x1 PUSH1 0xA0 SHL SUB AND EQ PUSH2 0x2A08 JUMPI POP PUSH1 0x1 ADD PUSH2 0x29D3 JUMP JUMPDEST PUSH1 0x0 NOT DUP2 ADD SWAP1 DUP2 GT PUSH2 0x123B JUMPI SWAP2 PUSH2 0x2A48 PUSH1 0x20 SWAP3 PUSH2 0xB39 PUSH2 0xB21 PUSH32 0xA86AB5EAFC988F5B42BA604CDC3A37D9ABE90AC4C02F44AAD2FF13F3DEA10B18 SWAP7 PUSH2 0x32C4 JUMP JUMPDEST PUSH2 0x2A50 PUSH2 0x36DB JUMP JUMPDEST PUSH1 0x40 MLOAD SWAP1 DUP2 MSTORE LOG1 DUP1 RETURN JUMPDEST POP POP PUSH1 0x20 PUSH32 0xA86AB5EAFC988F5B42BA604CDC3A37D9ABE90AC4C02F44AAD2FF13F3DEA10B18 SWAP2 PUSH2 0x2A50 JUMP JUMPDEST POP CALLVALUE PUSH2 0x23A JUMPI PUSH1 0x80 CALLDATASIZE PUSH1 0x3 NOT ADD SLT PUSH2 0x23A JUMPI PUSH1 0x24 CALLDATALOAD PUSH1 0x44 CALLDATALOAD PUSH1 0x1 PUSH1 0x1 PUSH1 0xA0 SHL SUB DUP2 AND SWAP1 DUP2 DUP2 SUB PUSH2 0x210B JUMPI PUSH1 0x64 CALLDATALOAD CALLER DUP6 MSTORE PUSH1 0x5 PUSH1 0x20 MSTORE PUSH1 0xFF PUSH1 0x40 DUP7 KECCAK256 SLOAD AND PUSH1 0x4 DUP2 LT ISZERO PUSH2 0x2D0E JUMPI PUSH1 0x3 PUSH2 0x2AD7 SWAP2 EQ PUSH2 0x35F8 JUMP JUMPDEST PUSH1 0x4 CALLDATALOAD DUP6 MSTORE PUSH1 0x1 PUSH1 0x20 MSTORE PUSH1 0x40 DUP6 KECCAK256 DUP1 SLOAD SWAP1 DUP2 ISZERO PUSH2 0x2CCA JUMPI PUSH1 0x0 NOT DUP3 ADD SWAP2 DUP3 GT PUSH2 0x2CB6 JUMPI SWAP1 PUSH2 0x2B04 SWAP2 PUSH2 0x3514 JUMP JUMPDEST POP SWAP2 DUP3 SLOAD PUSH1 0xFF DUP2 AND DUP1 PUSH2 0x2CA7 JUMPI JUMPDEST ISZERO PUSH2 0x2C62 JUMPI DUP7 SLOAD PUSH1 0x1 PUSH1 0x1 PUSH1 0xA0 SHL SUB AND SWAP1 DUP8 SWAP1 DUP3 EXTCODESIZE ISZERO PUSH2 0x1F6C JUMPI PUSH1 0x40 MLOAD PUSH4 0x944C5A61 PUSH1 0xE0 SHL DUP2 MSTORE PUSH1 0x8 SWAP2 SWAP1 SWAP2 SHR PUSH1 0x1 PUSH1 0x1 PUSH1 0xA0 SHL SUB AND PUSH1 0x4 DUP3 ADD MSTORE PUSH1 0x24 DUP2 ADD DUP9 SWAP1 MSTORE SWAP2 DUP3 SWAP1 DUP2 DUP4 DUP2 PUSH1 0x44 DUP2 ADD SUB SWAP3 GAS CALL DUP1 ISZERO PUSH2 0x2C57 JUMPI PUSH2 0x2C43 JUMPI JUMPDEST POP DUP6 SWAP1 DUP5 ISZERO ISZERO DUP1 PUSH2 0x2C3A JUMPI JUMPDEST PUSH2 0x2BA5 JUMPI JUMPDEST POP DUP5 PUSH1 0x4 DUP5 PUSH1 0xFF NOT DUP2 SLOAD AND DUP2 SSTORE PUSH1 0x2 DUP2 ADD PUSH1 0x1 PUSH1 0xFF NOT DUP3 SLOAD AND OR SWAP1 SSTORE TIMESTAMP PUSH1 0x3 DUP3 ADD SSTORE ADD SSTORE DUP1 RETURN JUMPDEST DUP2 SLOAD PUSH1 0x1 PUSH1 0x1 PUSH1 0xA0 SHL SUB AND DUP1 EXTCODESIZE ISZERO PUSH2 0x493 JUMPI PUSH1 0x40 MLOAD PUSH4 0x142F3FC5 PUSH1 0xE3 SHL DUP2 MSTORE PUSH1 0x1 PUSH1 0x1 PUSH1 0xA0 SHL SUB SWAP3 SWAP1 SWAP3 AND PUSH1 0x4 DUP4 ADD MSTORE PUSH1 0x24 DUP3 ADD DUP5 SWAP1 MSTORE DUP3 SWAP1 DUP3 SWAP1 PUSH1 0x44 SWAP1 DUP3 SWAP1 DUP5 SWAP1 GAS CALL DUP1 ISZERO PUSH2 0xBEC JUMPI PUSH2 0x2C21 JUMPI JUMPDEST POP POP PUSH1 0x4 SWAP3 PUSH1 0x5 DUP4 ADD SWAP1 PUSH12 0xFFFFFFFFFFFFFFFFFFFFFFFF PUSH1 0xA0 SHL DUP3 SLOAD AND OR SWAP1 SSTORE PUSH1 0x6 DUP3 ADD SSTORE CODESIZE DUP5 DUP2 PUSH2 0x2B7E JUMP JUMPDEST DUP2 PUSH2 0x2C2B SWAP2 PUSH2 0x342A JUMP JUMPDEST PUSH2 0x2C36 JUMPI DUP5 CODESIZE PUSH2 0x2BF4 JUMP JUMPDEST DUP5 DUP1 REVERT JUMPDEST POP DUP3 ISZERO ISZERO PUSH2 0x2B79 JUMP JUMPDEST DUP7 PUSH2 0x2C50 SWAP2 SWAP8 SWAP3 SWAP8 PUSH2 0x342A JUMP JUMPDEST SWAP5 CODESIZE PUSH2 0x2B6D JUMP JUMPDEST PUSH1 0x40 MLOAD RETURNDATASIZE DUP10 DUP3 RETURNDATACOPY RETURNDATASIZE SWAP1 REVERT JUMPDEST PUSH1 0x40 MLOAD PUSH3 0x461BCD PUSH1 0xE5 SHL DUP2 MSTORE PUSH1 0x20 PUSH1 0x4 DUP3 ADD MSTORE PUSH1 0x19 PUSH1 0x24 DUP3 ADD MSTORE PUSH32 0x4E6F74207265616479206F7220616C7265616479207061696400000000000000 PUSH1 0x44 DUP3 ADD MSTORE PUSH1 0x64 SWAP1 REVERT JUMPDEST POP PUSH1 0xFF PUSH1 0x2 DUP6 ADD SLOAD AND ISZERO PUSH2 0x2B12 JUMP JUMPDEST PUSH4 0x4E487B71 PUSH1 0xE0 SHL DUP8 MSTORE PUSH1 0x11 PUSH1 0x4 MSTORE PUSH1 0x24 DUP8 REVERT JUMPDEST PUSH1 0x64 PUSH1 0x40 MLOAD PUSH3 0x461BCD PUSH1 0xE5 SHL DUP2 MSTORE PUSH1 0x20 PUSH1 0x4 DUP3 ADD MSTORE PUSH1 0x20 PUSH1 0x24 DUP3 ADD MSTORE PUSH32 0x4E6F206D61696E74656E616E6365207265636F72647320666F72206173736574 PUSH1 0x44 DUP3 ADD MSTORE REVERT JUMPDEST PUSH4 0x4E487B71 PUSH1 0xE0 SHL DUP7 MSTORE PUSH1 0x21 PUSH1 0x4 MSTORE PUSH1 0x24 DUP7 REVERT JUMPDEST POP CALLVALUE PUSH2 0x23A JUMPI PUSH1 0x20 CALLDATASIZE PUSH1 0x3 NOT ADD SLT PUSH2 0x23A JUMPI PUSH1 0x4 CALLDATALOAD SWAP1 PUSH1 0x7 SLOAD DUP3 LT ISZERO PUSH2 0x23A JUMPI PUSH1 0x20 PUSH2 0x980 DUP4 PUSH2 0x3293 JUMP JUMPDEST POP CALLVALUE PUSH2 0x23A JUMPI PUSH1 0x20 CALLDATASIZE PUSH1 0x3 NOT ADD SLT PUSH2 0x23A JUMPI PUSH2 0x2D67 PUSH2 0x3262 JUMP JUMPDEST CALLER DUP3 MSTORE PUSH1 0x5 PUSH1 0x20 MSTORE PUSH1 0xFF PUSH1 0x40 DUP4 KECCAK256 SLOAD AND PUSH1 0x4 DUP2 LT ISZERO PUSH2 0xC18 JUMPI PUSH1 0x3 PUSH2 0x2D8C SWAP2 EQ PUSH2 0x35F8 JUMP JUMPDEST PUSH1 0x1 PUSH1 0x1 PUSH1 0xA0 SHL SUB AND DUP1 DUP3 MSTORE PUSH1 0x6 PUSH1 0x20 MSTORE PUSH1 0x40 DUP3 KECCAK256 SLOAD PUSH2 0x2DAE SWAP1 PUSH1 0xFF AND PUSH2 0x364F JUMP JUMPDEST DUP1 DUP3 MSTORE PUSH1 0x6 PUSH1 0x20 MSTORE PUSH1 0x40 DUP3 KECCAK256 DUP1 SLOAD PUSH1 0xFF NOT AND SWAP1 SSTORE DUP2 JUMPDEST PUSH1 0x7 SLOAD DUP1 DUP3 LT ISZERO PUSH2 0x2E44 JUMPI DUP3 PUSH2 0x2DD9 DUP4 PUSH2 0x3293 JUMP JUMPDEST SWAP1 SLOAD PUSH1 0x3 SWAP2 SWAP1 SWAP2 SHL SHR PUSH1 0x1 PUSH1 0x1 PUSH1 0xA0 SHL SUB AND EQ PUSH2 0x2DF9 JUMPI POP PUSH1 0x1 ADD PUSH2 0x2DC4 JUMP JUMPDEST PUSH1 0x0 NOT DUP2 ADD SWAP1 DUP2 GT PUSH2 0x123B JUMPI SWAP1 PUSH2 0xB39 PUSH2 0x11F4 PUSH2 0x2E15 SWAP4 PUSH2 0x3293 JUMP JUMPDEST PUSH2 0x2E1D PUSH2 0x3690 JUMP JUMPDEST PUSH32 0x78AD698BB9F005816005024A452272F61C8752170B72CAD46A47830DBA9E5ECE DUP3 DUP1 LOG2 DUP1 RETURN JUMPDEST POP POP PUSH2 0x2E1D JUMP JUMPDEST POP CALLVALUE PUSH2 0x23A JUMPI PUSH2 0x2EB1 PUSH2 0x2EAB PUSH2 0x100 SWAP3 PUSH1 0x40 PUSH2 0x2E66 CALLDATASIZE PUSH2 0x327D JUMP JUMPDEST SWAP3 SWAP1 DUP2 PUSH1 0xE0 DUP5 MLOAD PUSH2 0x2E76 DUP2 PUSH2 0x33DD JUMP JUMPDEST DUP3 DUP2 MSTORE DUP3 PUSH1 0x20 DUP3 ADD MSTORE DUP3 DUP7 DUP3 ADD MSTORE DUP3 PUSH1 0x60 DUP3 ADD MSTORE DUP3 PUSH1 0x80 DUP3 ADD MSTORE DUP3 PUSH1 0xA0 DUP3 ADD MSTORE DUP3 PUSH1 0xC0 DUP3 ADD MSTORE ADD MSTORE DUP2 MSTORE PUSH1 0x1 PUSH1 0x20 MSTORE KECCAK256 PUSH2 0x3514 JUMP JUMPDEST POP PUSH2 0x3563 JUMP JUMPDEST PUSH2 0x2EBE PUSH1 0x40 MLOAD DUP1 SWAP3 PUSH2 0x3203 JUMP JUMPDEST RETURN JUMPDEST POP CALLVALUE PUSH2 0x23A JUMPI PUSH1 0x20 CALLDATASIZE PUSH1 0x3 NOT ADD SLT PUSH2 0x23A JUMPI PUSH1 0x40 PUSH1 0x20 SWAP2 PUSH1 0x4 CALLDATALOAD DUP2 MSTORE PUSH1 0x1 DUP4 MSTORE KECCAK256 SLOAD PUSH1 0x40 MLOAD SWAP1 DUP2 MSTORE RETURN JUMPDEST POP CALLVALUE PUSH2 0x23A JUMPI PUSH1 0x20 CALLDATASIZE PUSH1 0x3 NOT ADD SLT PUSH2 0x23A JUMPI PUSH2 0x2F04 PUSH2 0x3262 JUMP JUMPDEST PUSH1 0x8 SLOAD SWAP1 DUP3 SWAP1 PUSH1 0x1 PUSH1 0x1 PUSH1 0xA0 SHL SUB AND DUP2 JUMPDEST DUP4 DUP2 LT PUSH2 0x3025 JUMPI POP PUSH2 0x2F3F PUSH2 0x2F29 DUP4 PUSH2 0x354C JUMP JUMPDEST SWAP3 PUSH2 0x2F37 PUSH1 0x40 MLOAD SWAP5 DUP6 PUSH2 0x342A JUMP JUMPDEST DUP1 DUP5 MSTORE PUSH2 0x354C JUMP JUMPDEST PUSH1 0x20 DUP4 ADD SWAP4 SWAP1 PUSH1 0x1F NOT ADD CALLDATASIZE DUP6 CALLDATACOPY DUP5 SWAP2 DUP6 JUMPDEST DUP3 DUP2 LT PUSH2 0x2F9B JUMPI DUP7 DUP6 DUP8 PUSH1 0x40 MLOAD SWAP3 DUP4 SWAP3 PUSH1 0x20 DUP5 ADD SWAP1 PUSH1 0x20 DUP6 MSTORE MLOAD DUP1 SWAP2 MSTORE PUSH1 0x40 DUP5 ADD SWAP3 SWAP2 JUMPDEST DUP2 DUP2 LT PUSH2 0x2F82 JUMPI POP POP POP SUB SWAP1 RETURN JUMPDEST DUP3 MLOAD DUP5 MSTORE DUP6 SWAP5 POP PUSH1 0x20 SWAP4 DUP5 ADD SWAP4 SWAP1 SWAP3 ADD SWAP2 PUSH1 0x1 ADD PUSH2 0x2F74 JUMP JUMPDEST DUP1 DUP8 MSTORE PUSH1 0x1 PUSH1 0x20 MSTORE PUSH1 0x40 DUP8 KECCAK256 DUP1 SLOAD SWAP1 DUP9 JUMPDEST DUP3 DUP2 LT PUSH2 0x2FBF JUMPI JUMPDEST POP POP POP PUSH1 0x1 ADD PUSH2 0x2F50 JUMP JUMPDEST DUP5 PUSH2 0x2FCA DUP3 DUP5 PUSH2 0x3514 JUMP JUMPDEST POP SLOAD PUSH1 0x8 SHR PUSH1 0x1 PUSH1 0x1 PUSH1 0xA0 SHL SUB AND EQ PUSH2 0x2FE5 JUMPI PUSH1 0x1 ADD PUSH2 0x2FAC JUMP JUMPDEST POP POP POP SWAP3 DUP5 MLOAD DUP2 LT ISZERO PUSH2 0x3011 JUMPI PUSH2 0x3008 DUP2 DUP6 PUSH1 0x20 PUSH1 0x1 SWAP5 PUSH1 0x5 SHL DUP10 ADD ADD MSTORE PUSH2 0x35D3 JUMP JUMPDEST SWAP4 SWAP1 CODESIZE DUP1 PUSH2 0x2FB4 JUMP JUMPDEST PUSH4 0x4E487B71 PUSH1 0xE0 SHL DUP8 MSTORE PUSH1 0x32 PUSH1 0x4 MSTORE PUSH1 0x24 DUP8 REVERT JUMPDEST DUP1 DUP6 MSTORE PUSH1 0x1 PUSH1 0x20 MSTORE PUSH1 0x40 DUP6 KECCAK256 DUP1 SLOAD DUP7 JUMPDEST DUP2 DUP2 LT PUSH2 0x3048 JUMPI JUMPDEST POP POP POP PUSH1 0x1 ADD PUSH2 0x2F15 JUMP JUMPDEST DUP5 PUSH2 0x3053 DUP3 DUP6 PUSH2 0x3514 JUMP JUMPDEST POP SLOAD PUSH1 0x8 SHR PUSH1 0x1 PUSH1 0x1 PUSH1 0xA0 SHL SUB AND EQ PUSH2 0x306E JUMPI PUSH1 0x1 ADD PUSH2 0x3035 JUMP JUMPDEST POP POP POP SWAP2 PUSH2 0x307D PUSH1 0x1 SWAP2 PUSH2 0x35D3 JUMP JUMPDEST SWAP3 SWAP1 CODESIZE DUP1 PUSH2 0x303D JUMP JUMPDEST POP CALLVALUE PUSH2 0x23A JUMPI PUSH1 0x20 CALLDATASIZE PUSH1 0x3 NOT ADD SLT PUSH2 0x23A JUMPI PUSH1 0x4 CALLDATALOAD DUP2 MSTORE PUSH1 0x1 PUSH1 0x20 MSTORE PUSH1 0x40 DUP2 KECCAK256 DUP1 SLOAD PUSH2 0x30B1 DUP2 PUSH2 0x354C JUMP JUMPDEST SWAP1 PUSH2 0x30BF PUSH1 0x40 MLOAD SWAP3 DUP4 PUSH2 0x342A JUMP JUMPDEST DUP1 DUP3 MSTORE PUSH1 0x20 DUP3 ADD DUP1 SWAP4 DUP6 MSTORE PUSH1 0x20 DUP6 KECCAK256 DUP6 SWAP2 JUMPDEST DUP4 DUP4 LT PUSH2 0x3128 JUMPI DUP7 DUP6 DUP8 PUSH1 0x40 MLOAD SWAP3 DUP4 SWAP3 PUSH1 0x20 DUP5 ADD SWAP1 PUSH1 0x20 DUP6 MSTORE MLOAD DUP1 SWAP2 MSTORE PUSH1 0x40 DUP5 ADD SWAP3 SWAP2 JUMPDEST DUP2 DUP2 LT PUSH2 0x3103 JUMPI POP POP POP SUB SWAP1 RETURN JUMPDEST SWAP2 SWAP4 POP SWAP2 PUSH1 0x20 PUSH2 0x100 DUP3 PUSH2 0x311A PUSH1 0x1 SWAP5 DUP9 MLOAD PUSH2 0x3203 JUMP JUMPDEST ADD SWAP5 ADD SWAP2 ADD SWAP2 DUP5 SWAP4 SWAP3 PUSH2 0x30F5 JUMP JUMPDEST PUSH1 0x7 PUSH1 0x20 PUSH1 0x1 SWAP3 PUSH2 0x3138 DUP6 PUSH2 0x3563 JUMP JUMPDEST DUP2 MSTORE ADD SWAP3 ADD SWAP3 ADD SWAP2 SWAP1 PUSH2 0x30D1 JUMP JUMPDEST DUP3 CALLVALUE PUSH2 0x23A JUMPI DUP1 PUSH1 0x3 NOT CALLDATASIZE ADD SLT PUSH2 0x23A JUMPI PUSH1 0x7 SLOAD SWAP1 DUP2 DUP4 MSTORE PUSH1 0x20 DUP4 ADD SWAP2 PUSH1 0x7 DUP3 MSTORE PUSH32 0xA66CC928B5EDB82AF9BD49922954155AB7B0942694BEA4CE44661D9A8736C688 SWAP2 JUMPDEST DUP2 DUP2 LT PUSH2 0x31A1 JUMPI PUSH2 0x217 DUP6 PUSH2 0x20B DUP2 DUP8 SUB DUP3 PUSH2 0x342A JUMP JUMPDEST DUP3 SLOAD PUSH1 0x1 PUSH1 0x1 PUSH1 0xA0 SHL SUB AND DUP5 MSTORE PUSH1 0x20 SWAP1 SWAP4 ADD SWAP3 PUSH1 0x1 SWAP3 DUP4 ADD SWAP3 ADD PUSH2 0x318A JUMP JUMPDEST PUSH1 0x20 PUSH1 0x40 DUP2 DUP4 ADD SWAP3 DUP3 DUP2 MSTORE DUP5 MLOAD DUP1 SWAP5 MSTORE ADD SWAP3 ADD SWAP1 PUSH1 0x0 JUMPDEST DUP2 DUP2 LT PUSH2 0x31E4 JUMPI POP POP POP SWAP1 JUMP JUMPDEST DUP3 MLOAD PUSH1 0x1 PUSH1 0x1 PUSH1 0xA0 SHL SUB AND DUP5 MSTORE PUSH1 0x20 SWAP4 DUP5 ADD SWAP4 SWAP1 SWAP3 ADD SWAP2 PUSH1 0x1 ADD PUSH2 0x31D7 JUMP JUMPDEST PUSH1 0xE0 DUP1 SWAP2 DUP1 MLOAD ISZERO ISZERO DUP5 MSTORE PUSH1 0x1 DUP1 PUSH1 0xA0 SHL SUB PUSH1 0x20 DUP3 ADD MLOAD AND PUSH1 0x20 DUP6 ADD MSTORE PUSH1 0x40 DUP2 ADD MLOAD PUSH1 0x40 DUP6 ADD MSTORE PUSH1 0x60 DUP2 ADD MLOAD ISZERO ISZERO PUSH1 0x60 DUP6 ADD MSTORE PUSH1 0x80 DUP2 ADD MLOAD PUSH1 0x80 DUP6 ADD MSTORE PUSH1 0xA0 DUP2 ADD MLOAD PUSH1 0xA0 DUP6 ADD MSTORE PUSH1 0x1 DUP1 PUSH1 0xA0 SHL SUB PUSH1 0xC0 DUP3 ADD MLOAD AND PUSH1 0xC0 DUP6 ADD MSTORE ADD MLOAD SWAP2 ADD MSTORE JUMP JUMPDEST PUSH1 0x4 CALLDATALOAD SWAP1 PUSH1 0x1 PUSH1 0x1 PUSH1 0xA0 SHL SUB DUP3 AND DUP3 SUB PUSH2 0x3278 JUMPI JUMP JUMPDEST PUSH1 0x0 DUP1 REVERT JUMPDEST PUSH1 0x40 SWAP1 PUSH1 0x3 NOT ADD SLT PUSH2 0x3278 JUMPI PUSH1 0x4 CALLDATALOAD SWAP1 PUSH1 0x24 CALLDATALOAD SWAP1 JUMP JUMPDEST PUSH1 0x7 SLOAD DUP2 LT ISZERO PUSH2 0x32AE JUMPI PUSH1 0x7 PUSH1 0x0 MSTORE PUSH1 0x20 PUSH1 0x0 KECCAK256 ADD SWAP1 PUSH1 0x0 SWAP1 JUMP JUMPDEST PUSH4 0x4E487B71 PUSH1 0xE0 SHL PUSH1 0x0 MSTORE PUSH1 0x32 PUSH1 0x4 MSTORE PUSH1 0x24 PUSH1 0x0 REVERT JUMPDEST PUSH1 0xB SLOAD DUP2 LT ISZERO PUSH2 0x32AE JUMPI PUSH1 0xB PUSH1 0x0 MSTORE PUSH1 0x20 PUSH1 0x0 KECCAK256 ADD SWAP1 PUSH1 0x0 SWAP1 JUMP JUMPDEST DUP1 SLOAD DUP3 LT ISZERO PUSH2 0x32AE JUMPI PUSH1 0x0 MSTORE PUSH1 0x20 PUSH1 0x0 KECCAK256 ADD SWAP1 PUSH1 0x0 SWAP1 JUMP JUMPDEST SWAP2 SWAP1 PUSH1 0x20 DUP4 ADD SWAP3 PUSH1 0x4 DUP3 LT ISZERO PUSH2 0x330A JUMPI MSTORE JUMP JUMPDEST PUSH4 0x4E487B71 PUSH1 0xE0 SHL PUSH1 0x0 MSTORE PUSH1 0x21 PUSH1 0x4 MSTORE PUSH1 0x24 PUSH1 0x0 REVERT JUMPDEST SWAP1 PUSH1 0x1 DUP3 DUP2 SHR SWAP3 AND DUP1 ISZERO PUSH2 0x3350 JUMPI JUMPDEST PUSH1 0x20 DUP4 LT EQ PUSH2 0x333A JUMPI JUMP JUMPDEST PUSH4 0x4E487B71 PUSH1 0xE0 SHL PUSH1 0x0 MSTORE PUSH1 0x22 PUSH1 0x4 MSTORE PUSH1 0x24 PUSH1 0x0 REVERT JUMPDEST SWAP2 PUSH1 0x7F AND SWAP2 PUSH2 0x332F JUMP JUMPDEST PUSH1 0x0 SWAP3 SWAP2 DUP2 SLOAD SWAP2 PUSH2 0x336A DUP4 PUSH2 0x3320 JUMP JUMPDEST DUP1 DUP4 MSTORE SWAP3 PUSH1 0x1 DUP2 AND SWAP1 DUP2 ISZERO PUSH2 0x33C0 JUMPI POP PUSH1 0x1 EQ PUSH2 0x3386 JUMPI POP POP POP JUMP JUMPDEST PUSH1 0x0 SWAP1 DUP2 MSTORE PUSH1 0x20 DUP2 KECCAK256 SWAP4 SWAP5 POP SWAP2 SWAP3 JUMPDEST DUP4 DUP4 LT PUSH2 0x33A6 JUMPI POP PUSH1 0x20 SWAP3 POP ADD ADD SWAP1 JUMP JUMPDEST PUSH1 0x1 DUP2 PUSH1 0x20 SWAP3 SWAP5 SWAP4 SWAP5 SLOAD DUP4 DUP6 DUP8 ADD ADD MSTORE ADD SWAP2 ADD SWAP2 SWAP1 PUSH2 0x3395 JUMP JUMPDEST SWAP2 POP POP PUSH1 0x20 SWAP4 SWAP5 POP PUSH1 0xFF SWAP3 SWAP2 SWAP3 NOT AND DUP4 DUP4 ADD MSTORE ISZERO ISZERO PUSH1 0x5 SHL ADD ADD SWAP1 JUMP JUMPDEST PUSH2 0x100 DUP2 ADD SWAP1 DUP2 LT PUSH1 0x1 PUSH1 0x1 PUSH1 0x40 SHL SUB DUP3 GT OR PUSH2 0x33F9 JUMPI PUSH1 0x40 MSTORE JUMP JUMPDEST PUSH4 0x4E487B71 PUSH1 0xE0 SHL PUSH1 0x0 MSTORE PUSH1 0x41 PUSH1 0x4 MSTORE PUSH1 0x24 PUSH1 0x0 REVERT JUMPDEST PUSH1 0xC0 DUP2 ADD SWAP1 DUP2 LT PUSH1 0x1 PUSH1 0x1 PUSH1 0x40 SHL SUB DUP3 GT OR PUSH2 0x33F9 JUMPI PUSH1 0x40 MSTORE JUMP JUMPDEST SWAP1 PUSH1 0x1F DUP1 NOT SWAP2 ADD AND DUP2 ADD SWAP1 DUP2 LT PUSH1 0x1 PUSH1 0x1 PUSH1 0x40 SHL SUB DUP3 GT OR PUSH2 0x33F9 JUMPI PUSH1 0x40 MSTORE JUMP JUMPDEST SWAP2 SWAP1 DUP3 MLOAD SWAP3 DUP4 DUP3 MSTORE PUSH1 0x0 JUMPDEST DUP5 DUP2 LT PUSH2 0x3477 JUMPI POP POP DUP3 PUSH1 0x0 PUSH1 0x20 DUP1 SWAP5 SWAP6 DUP5 ADD ADD MSTORE PUSH1 0x1F DUP1 NOT SWAP2 ADD AND ADD ADD SWAP1 JUMP JUMPDEST DUP1 PUSH1 0x20 DUP1 SWAP3 DUP5 ADD ADD MLOAD DUP3 DUP3 DUP7 ADD ADD MSTORE ADD PUSH2 0x3456 JUMP JUMPDEST DUP2 PUSH1 0x1F DUP3 ADD SLT ISZERO PUSH2 0x3278 JUMPI DUP1 CALLDATALOAD SWAP1 PUSH1 0x1 PUSH1 0x1 PUSH1 0x40 SHL SUB DUP3 GT PUSH2 0x33F9 JUMPI PUSH1 0x40 MLOAD SWAP3 PUSH2 0x34C0 PUSH1 0x1F DUP5 ADD PUSH1 0x1F NOT AND PUSH1 0x20 ADD DUP6 PUSH2 0x342A JUMP JUMPDEST DUP3 DUP5 MSTORE PUSH1 0x20 DUP4 DUP4 ADD ADD GT PUSH2 0x3278 JUMPI DUP2 PUSH1 0x0 SWAP3 PUSH1 0x20 DUP1 SWAP4 ADD DUP4 DUP7 ADD CALLDATACOPY DUP4 ADD ADD MSTORE SWAP1 JUMP JUMPDEST SWAP1 PUSH1 0x40 PUSH1 0x3 NOT DUP4 ADD SLT PUSH2 0x3278 JUMPI PUSH1 0x4 CALLDATALOAD SWAP2 PUSH1 0x24 CALLDATALOAD SWAP1 PUSH1 0x1 PUSH1 0x1 PUSH1 0x40 SHL SUB DUP3 GT PUSH2 0x3278 JUMPI PUSH2 0x3511 SWAP2 PUSH1 0x4 ADD PUSH2 0x348C JUMP JUMPDEST SWAP1 JUMP JUMPDEST DUP1 SLOAD DUP3 LT ISZERO PUSH2 0x32AE JUMPI PUSH1 0x0 MSTORE PUSH1 0x7 PUSH1 0x20 PUSH1 0x0 KECCAK256 SWAP2 MUL ADD SWAP1 PUSH1 0x0 SWAP1 JUMP JUMPDEST DUP1 SLOAD DUP3 LT ISZERO PUSH2 0x32AE JUMPI PUSH1 0x0 MSTORE PUSH1 0x6 PUSH1 0x20 PUSH1 0x0 KECCAK256 SWAP2 MUL ADD SWAP1 PUSH1 0x0 SWAP1 JUMP JUMPDEST PUSH1 0x1 PUSH1 0x1 PUSH1 0x40 SHL SUB DUP2 GT PUSH2 0x33F9 JUMPI PUSH1 0x5 SHL PUSH1 0x20 ADD SWAP1 JUMP JUMPDEST SWAP1 PUSH1 0x40 MLOAD PUSH2 0x3570 DUP2 PUSH2 0x33DD JUMP JUMPDEST DUP3 SLOAD PUSH1 0xFF DUP1 DUP3 AND ISZERO ISZERO DUP4 MSTORE PUSH1 0x1 PUSH1 0x1 PUSH1 0xA0 SHL SUB PUSH1 0x8 SWAP3 SWAP1 SWAP3 SHR DUP3 AND PUSH1 0x20 DUP5 ADD MSTORE PUSH1 0x1 DUP6 ADD SLOAD PUSH1 0x40 DUP5 ADD MSTORE PUSH1 0x2 DUP6 ADD SLOAD AND ISZERO ISZERO PUSH1 0x60 DUP4 ADD MSTORE PUSH1 0x3 DUP5 ADD SLOAD PUSH1 0x80 DUP4 ADD MSTORE PUSH1 0x4 DUP5 ADD SLOAD PUSH1 0xA0 DUP4 ADD MSTORE PUSH1 0x5 DUP5 ADD SLOAD AND PUSH1 0xC0 DUP3 ADD MSTORE PUSH1 0x6 SWAP1 SWAP3 ADD SLOAD PUSH1 0xE0 DUP4 ADD MSTORE JUMP JUMPDEST PUSH1 0x0 NOT DUP2 EQ PUSH2 0x35E2 JUMPI PUSH1 0x1 ADD SWAP1 JUMP JUMPDEST PUSH4 0x4E487B71 PUSH1 0xE0 SHL PUSH1 0x0 MSTORE PUSH1 0x11 PUSH1 0x4 MSTORE PUSH1 0x24 PUSH1 0x0 REVERT JUMPDEST ISZERO PUSH2 0x35FF JUMPI JUMP JUMPDEST PUSH1 0x40 MLOAD PUSH3 0x461BCD PUSH1 0xE5 SHL DUP2 MSTORE PUSH1 0x20 PUSH1 0x4 DUP3 ADD MSTORE PUSH1 0x22 PUSH1 0x24 DUP3 ADD MSTORE PUSH32 0x4F6E6C792041646D696E2063616E20706572666F726D20746869732061637469 PUSH1 0x44 DUP3 ADD MSTORE PUSH2 0x37B7 PUSH1 0xF1 SHL PUSH1 0x64 DUP3 ADD MSTORE PUSH1 0x84 SWAP1 REVERT JUMPDEST ISZERO PUSH2 0x3656 JUMPI JUMP JUMPDEST PUSH1 0x40 MLOAD PUSH3 0x461BCD PUSH1 0xE5 SHL DUP2 MSTORE PUSH1 0x20 PUSH1 0x4 DUP3 ADD MSTORE PUSH1 0x12 PUSH1 0x24 DUP3 ADD MSTORE PUSH18 0x139BC81C195B991A5B99C81C995C5D595CDD PUSH1 0x72 SHL PUSH1 0x44 DUP3 ADD MSTORE PUSH1 0x64 SWAP1 REVERT JUMPDEST PUSH1 0x7 SLOAD DUP1 ISZERO PUSH2 0x36C5 JUMPI PUSH1 0x0 NOT ADD PUSH2 0x36C0 PUSH2 0x36AB DUP3 PUSH1 0x7 PUSH2 0x32DF JUMP JUMPDEST DUP2 SLOAD SWAP1 PUSH1 0x1 DUP1 PUSH1 0xA0 SHL SUB SWAP1 PUSH1 0x3 SHL SHL NOT AND SWAP1 SSTORE JUMP JUMPDEST PUSH1 0x7 SSTORE JUMP JUMPDEST PUSH4 0x4E487B71 PUSH1 0xE0 SHL PUSH1 0x0 MSTORE PUSH1 0x31 PUSH1 0x4 MSTORE PUSH1 0x24 PUSH1 0x0 REVERT JUMPDEST PUSH1 0xB SLOAD DUP1 ISZERO PUSH2 0x36C5 JUMPI PUSH1 0x0 NOT ADD PUSH2 0x36F6 PUSH2 0x36AB DUP3 PUSH1 0xB PUSH2 0x32DF JUMP JUMPDEST PUSH1 0xB SSTORE JUMP JUMPDEST ISZERO PUSH2 0x3702 JUMPI JUMP JUMPDEST PUSH1 0x40 MLOAD PUSH3 0x461BCD PUSH1 0xE5 SHL DUP2 MSTORE PUSH1 0x20 PUSH1 0x4 DUP3 ADD MSTORE PUSH1 0xB PUSH1 0x24 DUP3 ADD MSTORE PUSH11 0x4E6F742070656E64696E67 PUSH1 0xA8 SHL PUSH1 0x44 DUP3 ADD MSTORE PUSH1 0x64 SWAP1 REVERT JUMPDEST ISZERO PUSH2 0x373C JUMPI JUMP JUMPDEST PUSH1 0x40 MLOAD PUSH3 0x461BCD PUSH1 0xE5 SHL DUP2 MSTORE PUSH1 0x20 PUSH1 0x4 DUP3 ADD MSTORE PUSH1 0x33 PUSH1 0x24 DUP3 ADD MSTORE PUSH32 0x4F6E6C79207265676973746572656420546563686E696369616E732063616E20 PUSH1 0x44 DUP3 ADD MSTORE PUSH19 0x706572666F726D206D61696E74656E616E6365 PUSH1 0x68 SHL PUSH1 0x64 DUP3 ADD MSTORE PUSH1 0x84 SWAP1 REVERT JUMPDEST ISZERO PUSH2 0x37A4 JUMPI JUMP JUMPDEST PUSH1 0x40 MLOAD PUSH3 0x461BCD PUSH1 0xE5 SHL DUP2 MSTORE PUSH1 0x20 PUSH1 0x4 DUP3 ADD MSTORE PUSH1 0x14 PUSH1 0x24 DUP3 ADD MSTORE PUSH20 0x105CDCD95D08191BD95CC81B9BDD08195E1A5CDD PUSH1 0x62 SHL PUSH1 0x44 DUP3 ADD MSTORE PUSH1 0x64 SWAP1 REVERT JUMPDEST ISZERO PUSH2 0x37E7 JUMPI JUMP JUMPDEST PUSH1 0x40 MLOAD PUSH3 0x461BCD PUSH1 0xE5 SHL DUP2 MSTORE PUSH1 0x20 PUSH1 0x4 DUP3 ADD MSTORE PUSH1 0x10 PUSH1 0x24 DUP3 ADD MSTORE PUSH16 0x105CDCD95D081A5CC819195B195D1959 PUSH1 0x82 SHL PUSH1 0x44 DUP3 ADD MSTORE PUSH1 0x64 SWAP1 REVERT JUMPDEST PUSH1 0x40 MLOAD SWAP1 PUSH2 0x382E PUSH1 0x40 DUP4 PUSH2 0x342A JUMP JUMPDEST PUSH1 0x6 DUP3 MSTORE PUSH6 0x213937B5B2B7 PUSH1 0xD1 SHL PUSH1 0x20 DUP4 ADD MSTORE JUMP JUMPDEST ISZERO PUSH2 0x384A JUMPI JUMP JUMPDEST PUSH1 0x40 MLOAD PUSH3 0x461BCD PUSH1 0xE5 SHL DUP2 MSTORE PUSH1 0x20 PUSH1 0x4 DUP3 ADD MSTORE PUSH1 0x29 PUSH1 0x24 DUP3 ADD MSTORE PUSH32 0x4173736574206D7573742062652062726F6B656E20746F207374617274206D61 PUSH1 0x44 DUP3 ADD MSTORE PUSH9 0x696E74656E616E6365 PUSH1 0xB8 SHL PUSH1 0x64 DUP3 ADD MSTORE PUSH1 0x84 SWAP1 REVERT JUMPDEST DUP2 DUP2 LT PUSH2 0x38AC JUMPI POP POP JUMP JUMPDEST PUSH1 0x0 DUP2 SSTORE PUSH1 0x1 ADD PUSH2 0x38A1 JUMP JUMPDEST SWAP1 PUSH1 0x1F DUP2 GT PUSH2 0x38C5 JUMPI POP POP JUMP JUMPDEST PUSH2 0x38E0 SWAP2 PUSH1 0x0 MSTORE PUSH1 0x1F PUSH1 0x20 PUSH1 0x0 KECCAK256 SWAP2 ADD PUSH1 0x5 SHR DUP2 ADD SWAP1 PUSH2 0x38A1 JUMP JUMPDEST JUMP JUMPDEST SWAP2 SWAP1 PUSH1 0x1F DUP2 GT PUSH2 0x38F1 JUMPI POP POP POP JUMP JUMPDEST PUSH2 0x38E0 SWAP3 PUSH1 0x0 MSTORE PUSH1 0x20 PUSH1 0x0 KECCAK256 SWAP1 PUSH1 0x20 PUSH1 0x1F DUP5 ADD PUSH1 0x5 SHR DUP4 ADD SWAP4 LT PUSH2 0x391D JUMPI JUMPDEST PUSH1 0x1F ADD PUSH1 0x5 SHR ADD SWAP1 PUSH2 0x38A1 JUMP JUMPDEST SWAP1 SWAP2 POP DUP2 SWAP1 PUSH2 0x3910 JUMP INVALID LOG2 PUSH5 0x6970667358 0x22 SLT KECCAK256 SLOAD PUSH22 0x22F65611BC2C01630E3ACBA02AA7EBEB7982401793E DUP10 PUSH9 0xC0DA09DBF2F564736F PUSH13 0x634300081C0033000000000000 "},"methodIdentifiers":{"approveTechnician(address)":"94484747","approveUser(address)":"d624fdb6","assetMetadata(uint256)":"504e35d3","assets(uint256)":"cf35bdd0","cancelFault(uint256,string)":"765207f8","completeMaintenance(uint256,string)":"e8c9bb8d","completedMaintenances(uint256,uint256)":"e70330f6","confirmPayment(uint256,uint256,address,uint256)":"35326ebf","deleteAsset(uint256)":"7eb79b53","denyTechnician(address)":"2e22a6d6","denyUser(address)":"48e071d4","getAllCompletedMaintenance(uint256)":"09b7864e","getCompletedMaintenance(uint256,uint256)":"2062ea3d","getCompletedMaintenanceCount(uint256)":"1f082314","getMaintenanceHistory(uint256)":"65b79c85","getPendingTechnicians()":"080b2dc1","getPendingUsers()":"fe09b5ec","getRole(address)":"44276733","getTechnicianCompletedAssets(address)":"0a45dbe3","hasRequestedTechnician(address)":"5286852f","maintenanceHistory(uint256,uint256)":"fae77675","nextAssetId()":"8ed91318","owner()":"8da5cb5b","paymentManager()":"aee1fe49","pendingTechnicians(uint256)":"2f1d5c32","pendingUsers(address)":"95459b58","pendingUsersList(uint256)":"e738ea06","registerAsset(string,string,uint256,uint256,string,string,string,string,string,string)":"76badc06","replacePhysicalItem(uint256,string)":"912c55ac","reportFault(uint256,string)":"c2c33519","requestTechnicianRole()":"fd279420","requestUserRegistration()":"b74771d4","setPaymentManager(address)":"7e702dc8","startMaintenance(uint256,string)":"6cf154ee","technicianRequests(address)":"31a4d378","userRoles(address)":"74d5e100"}}}}}