{
  "_format": "hh-sol-artifact-1",
  "contractName": "PaymentManager",
  "sourceName": "contracts/PaymentManager.sol",
  "abi": [
    {
      "inputs": [],
      "stateMutability": "nonpayable",
      "type": "constructor"
    },
    {
      "stateMutability": "payable",
      "type": "fallback"
    },
    {
      "inputs": [],
      "name": "assetManager",
      "outputs": [
        {
          "internalType": "address",
          "name": "",
          "type": "address"
        }
      ],
      "stateMutability": "view",
      "type": "function"
    },
    {
      "inputs": [],
      "name": "deposit",
      "outputs": [],
      "stateMutability": "payable",
      "type": "function"
    },
    {
      "inputs": [],
      "name": "getBalance",
      "outputs": [
        {
          "internalType": "uint256",
          "name": "",
          "type": "uint256"
        }
      ],
      "stateMutability": "view",
      "type": "function"
    },
    {
      "inputs": [],
      "name": "owner",
      "outputs": [
        {
          "internalType": "address",
          "name": "",
          "type": "address"
        }
      ],
      "stateMutability": "view",
      "type": "function"
    },
    {
      "inputs": [
        {
          "internalType": "address",
          "name": "technician",
          "type": "address"
        },
        {
          "internalType": "uint256",
          "name": "amountInWei",
          "type": "uint256"
        }
      ],
      "name": "payTechnician",
      "outputs": [],
      "stateMutability": "nonpayable",
      "type": "function"
    },
    {
      "inputs": [
        {
          "internalType": "address",
          "name": "user",
          "type": "address"
        },
        {
          "internalType": "uint256",
          "name": "amountInWei",
          "type": "uint256"
        }
      ],
      "name": "reimburseUser",
      "outputs": [],
      "stateMutability": "nonpayable",
      "type": "function"
    },
    {
      "inputs": [
        {
          "internalType": "address",
          "name": "_assetManager",
          "type": "address"
        }
      ],
      "name": "setAssetManager",
      "outputs": [],
      "stateMutability": "nonpayable",
      "type": "function"
    },
    {
      "inputs": [
        {
          "internalType": "uint256",
          "name": "amountInWei",
          "type": "uint256"
        }
      ],
      "name": "withdrawPartial",
      "outputs": [],
      "stateMutability": "nonpayable",
      "type": "function"
    },
    {
      "stateMutability": "payable",
      "type": "receive"
    }
  ],
  "bytecode": "0x60808060405234602757600080546001600160a01b03191633179055610440908161002d8239f35b600080fdfe6080806040526004361015610011575b005b60003560e01c90816312065fe014610364575080631211540c146102a557806343060237146102555780638da5cb5b1461022c57806394217ad114610203578063944c5a6114610159578063a179fe28146100985763d0e30db01461007257005b60003660031901126100935761000f60018060a01b03600054163314610393565b600080fd5b34610093576040366003190112610093576100b161037d565b602435906100ca60018060a01b036001541633146103cb565b8147106101095760008080938193829082156100ff575b6001600160a01b031690f1156100f357005b6040513d6000823e3d90fd5b6108fc91506100e1565b60405162461bcd60e51b815260206004820152602260248201527f4e6f7420656e6f7567682066756e647320666f72207265696d62757273656d656044820152611b9d60f21b6064820152608490fd5b346100935760403660031901126100935761017261037d565b6024359061018b60018060a01b036001541633146103cb565b8147106101b35760008080938193829082156100ff576001600160a01b031690f1156100f357005b60405162461bcd60e51b815260206004820152602260248201527f4e6f7420656e6f7567682066756e647320696e205061796d656e744d616e616760448201526132b960f11b6064820152608490fd5b34610093576000366003190112610093576001546040516001600160a01b039091168152602090f35b34610093576000366003190112610093576000546040516001600160a01b039091168152602090f35b346100935760203660031901126100935761026e61037d565b61028360018060a01b03600054163314610393565b600180546001600160a01b0319166001600160a01b0392909216919091179055005b3461009357602036600319011261009357600054600435906001600160a01b03166102d1338214610393565b8115610328574782116102ee576000808093819382f1156100f357005b60405162461bcd60e51b81526020600482015260126024820152714e6f7420656e6f7567682062616c616e636560701b6044820152606490fd5b60405162461bcd60e51b815260206004820152601460248201527343616e6e6f74207769746864726177207a65726f60601b6044820152606490fd5b3461009357600036600319011261009357602090478152f35b600435906001600160a01b038216820361009357565b1561039a57565b60405162461bcd60e51b81526020600482015260096024820152682737ba1037bbb732b960b91b6044820152606490fd5b156103d257565b60405162461bcd60e51b815260206004820152601060248201526f2737ba1020b9b9b2ba26b0b730b3b2b960811b6044820152606490fdfea2646970667358221220d19d66529a43d2b6d2befe8d56e51a0ab1c42cf0b8a2cb5c05fd41664a36e85b64736f6c634300081c0033",
  "linkReferences": {},
  "deployedLinkReferences": {}
}